{
  "address": "0x6dB026A85c9D1c46ED1D16A09Eb879204c2c3aaF",
  "abi": [
    {
      "inputs": [
        {
          "internalType": "address",
          "name": "accessAddress",
          "type": "address"
        },
        {
          "internalType": "address",
          "name": "logic",
          "type": "address"
        }
      ],
      "stateMutability": "nonpayable",
      "type": "constructor"
    },
    {
      "anonymous": false,
      "inputs": [
        {
          "indexed": true,
          "internalType": "address",
          "name": "caller",
          "type": "address"
        },
        {
          "indexed": true,
          "internalType": "address",
          "name": "blabs",
          "type": "address"
        }
      ],
      "name": "LOG_BLABS",
      "type": "event"
    },
    {
      "anonymous": false,
      "inputs": [
        {
          "indexed": true,
          "internalType": "address",
          "name": "caller",
          "type": "address"
        },
        {
          "indexed": true,
          "internalType": "address",
          "name": "pool",
          "type": "address"
        }
      ],
      "name": "LOG_NEW_POOL",
      "type": "event"
    },
    {
      "inputs": [
        {
          "internalType": "contract BPool",
          "name": "pool",
          "type": "address"
        }
      ],
      "name": "collect",
      "outputs": [],
      "stateMutability": "nonpayable",
      "type": "function"
    },
    {
      "inputs": [],
      "name": "getAccessControlAddress",
      "outputs": [
        {
          "internalType": "address",
          "name": "",
          "type": "address"
        }
      ],
      "stateMutability": "view",
      "type": "function"
    },
    {
      "inputs": [],
      "name": "getBLabs",
      "outputs": [
        {
          "internalType": "address",
          "name": "",
          "type": "address"
        }
      ],
      "stateMutability": "view",
      "type": "function"
    },
    {
      "inputs": [],
      "name": "getColor",
      "outputs": [
        {
          "internalType": "bytes32",
          "name": "",
          "type": "bytes32"
        }
      ],
      "stateMutability": "view",
      "type": "function"
    },
    {
      "inputs": [
        {
          "internalType": "address",
          "name": "b",
          "type": "address"
        }
      ],
      "name": "isBPool",
      "outputs": [
        {
          "internalType": "bool",
          "name": "",
          "type": "bool"
        }
      ],
      "stateMutability": "view",
      "type": "function"
    },
    {
      "inputs": [],
      "name": "newBPool",
      "outputs": [
        {
          "internalType": "contract BPool",
          "name": "",
          "type": "address"
        }
      ],
      "stateMutability": "nonpayable",
      "type": "function"
    },
    {
      "inputs": [
        {
          "internalType": "address",
          "name": "accessAddress",
          "type": "address"
        }
      ],
      "name": "setAccessControlAddress",
      "outputs": [],
      "stateMutability": "nonpayable",
      "type": "function"
    },
    {
      "inputs": [
        {
          "internalType": "address",
          "name": "b",
          "type": "address"
        }
      ],
      "name": "setBLabs",
      "outputs": [],
      "stateMutability": "nonpayable",
      "type": "function"
    }
  ],
  "transactionHash": "0xe987eb4328b99c5e3f6692ec68a79346635e2e9ad74b06d16cc3087bbe3a29d4",
  "args": [
    "0xFB2b87255Aac30a0B66f75330B428a62351C8A75",
    "0x9ca2344C75449adE3e25bD4CA8556F064Ea6c8fc"
  ],
  "solcInputHash": "cf8c495b5decfdc177649d0e4b03bed8",
  "bytecode": "0x608060405234801561001057600080fd5b506040516159de3803806159de8339818101604052604081101561003357600080fd5b508051602090910151600180546001600160a01b039384166001600160a01b03199182161790915560028054939092169281169290921790556003805490911633179055615958806100866000396000f3fe608060405234801561001057600080fd5b50600436106100885760003560e01c8063c6ce34fb1161005b578063c6ce34fb1461012d578063c7154c0a14610153578063d556c5dc1461015b578063e8d56b8b1461016357610088565b806306ec16f81461008d57806336ffb167146100b55780639a86139b146100d9578063c2bb6dc2146100f3575b600080fd5b6100b3600480360360208110156100a357600080fd5b50356001600160a01b0316610189565b005b6100bd610326565b604080516001600160a01b039092168252519081900360200190f35b6100e1610335565b60408051918252519081900360200190f35b6101196004803603602081101561010957600080fd5b50356001600160a01b0316610342565b604080519115158252519081900360200190f35b6100b36004803603602081101561014357600080fd5b50356001600160a01b0316610360565b6100bd610407565b6100bd610416565b6100b36004803603602081101561017957600080fd5b50356001600160a01b0316610653565b6003546001600160a01b031633146101d8576040805162461bcd60e51b815260206004820152600d60248201526c4552525f4e4f545f424c41425360981b604482015290519081900360640190fd5b6000816001600160a01b03166370a08231306040518263ffffffff1660e01b815260040180826001600160a01b0316815260200191505060206040518083038186803b15801561022757600080fd5b505afa15801561023b573d6000803e3d6000fd5b505050506040513d602081101561025157600080fd5b50516003546040805163a9059cbb60e01b81526001600160a01b0392831660048201526024810184905290519293506000929185169163a9059cbb9160448082019260209290919082900301818787803b1580156102ae57600080fd5b505af11580156102c2573d6000803e3d6000fd5b505050506040513d60208110156102d857600080fd5b5051905080610321576040805162461bcd60e51b815260206004820152601060248201526f11549497d15490cc8c17d1905253115160821b604482015290519081900360640190fd5b505050565b6003546001600160a01b031690565b6542524f4e5a4560d01b90565b6001600160a01b031660009081526020819052604090205460ff1690565b6003546001600160a01b031633146103af576040805162461bcd60e51b815260206004820152600d60248201526c4552525f4e4f545f424c41425360981b604482015290519081900360640190fd5b6040516001600160a01b0382169033907ff586fa6ee1fc42f5b727f3b214ccbd0b6d7e698c45d49ba32f224fbb8670155d90600090a3600380546001600160a01b0319166001600160a01b0392909216919091179055565b6001546001600160a01b031690565b60015460408051632474521560e21b81527fa49807205ce4d355092ef5a8a18f56e8913cf4a201fbe287825b095693c21775600482015232602482015290516000926001600160a01b0316916391d14854916044808301926020929190829003018186803b15801561048757600080fd5b505afa15801561049b573d6000803e3d6000fd5b505050506040513d60208110156104b157600080fd5b50516104ef5760405162461bcd60e51b8152600401808060200182810382526036815260200180620058b46036913960400191505060405180910390fd5b6002546040516000916001600160a01b03169061050b90610873565b6001600160a01b03909116815260405190819003602001906000f080158015610538573d6000803e3d6000fd5b506001600160a01b038116600081815260208190526040808220805460ff1916600117905551929350909133917f8ccec77b0cb63ac2cafd0f5de8cdfadab91ce656d262240ba8a6343bccc5f94591a36001546040805163e8d56b8b60e01b81526001600160a01b03928316600482015290519183169163e8d56b8b9160248082019260009290919082900301818387803b1580156105d657600080fd5b505af11580156105ea573d6000803e3d6000fd5b5050604080516392eefe9b60e01b815233600482015290516001600160a01b03851693506392eefe9b9250602480830192600092919082900301818387803b15801561063557600080fd5b505af1158015610649573d6000803e3d6000fd5b5092935050505090565b60015460408051632474521560e21b81527fa49807205ce4d355092ef5a8a18f56e8913cf4a201fbe287825b095693c21775600482015232602482015290516001600160a01b03909216916391d1485491604480820192602092909190829003018186803b1580156106c457600080fd5b505afa1580156106d8573d6000803e3d6000fd5b505050506040513d60208110156106ee57600080fd5b505161072c5760405162461bcd60e51b8152600401808060200182810382526036815260200180620058b46036913960400191505060405180910390fd5b6001600160a01b03811661077d576040805162461bcd60e51b81526020600482015260136024820152724552525f494e56414c49445f4144445245535360681b604482015290519081900360640190fd5b60408051632474521560e21b81527fa49807205ce4d355092ef5a8a18f56e8913cf4a201fbe287825b095693c21775600482015232602482015290516001600160a01b038316916391d14854916044808301926020929190829003018186803b1580156107e957600080fd5b505afa1580156107fd573d6000803e3d6000fd5b505050506040513d602081101561081357600080fd5b50516108515760405162461bcd60e51b8152600401808060200182810382526039815260200180620058ea6039913960400191505060405180910390fd5b600180546001600160a01b0319166001600160a01b0392909216919091179055565b61503280620008828339019056fe60c0604052600e60808190526d2321ac102837b7b6102a37b5b2b760911b60a090815262000031916003919062000209565b506040805180820190915260038082526211941560ea1b60209092019182526200005e9160049162000209565b506005805460ff191660121790553480156200007957600080fd5b506040516200503238038062005032833981810160405260208110156200009f57600080fd5b5051600680546005805462010000600160b01b031916336201000081029190911790915564e8d4a510006007556001600160a01b03199091161760ff60a01b191690556008805460ff19169055620000f7816200018c565b60405180606001604052807fa49807205ce4d355092ef5a8a18f56e8913cf4a201fbe287825b095693c2177581526020017fa0962abd2c4b5637166310be8994eed908f58b5b5396ff129d47c68a40bd22be81526020017ff1ace51d64be07e49551907f704b17a27f35380de69c40bb47b25cccef03fe1e815250600e906003620001849291906200028e565b5050620002e2565b620001a2816200020360201b620043701760201c565b620001df5760405162461bcd60e51b815260040180806020018281038252603681526020018062004ffc6036913960400191505060405180910390fd5b7f360894a13ba1a3210667c828492db98dca3e2076cc3735a920a3ca505d382bbc55565b3b151590565b828054600181600116156101000203166002900490600052602060002090601f016020900481019282601f106200024c57805160ff19168380011785556200027c565b828001600101855582156200027c579182015b828111156200027c5782518255916020019190600101906200025f565b506200028a929150620002cb565b5090565b8280548282559060005260206000209081019282156200027c57916020028201828111156200027c5782518255916020019190600101906200025f565b5b808211156200028a5760008155600101620002cc565b614d0a80620002f26000396000f3fe608060405234801561001057600080fd5b50600436106102a05760003560e01c8063867378c511610167578063ba9530a6116100ce578063d73dd62311610087578063d73dd623146108fa578063dd62ed3e14610926578063e4a28a52146103b3578063e4e1e53814610954578063ec09302114610986578063f8d6aed41461098e576102a0565b8063ba9530a614610889578063bc063e1a146103cb578063bc694ea2146108c4578063c36596a6146103cb578063c6580d12146108cc578063cf5e7bd3146108d4576102a0565b8063a221ee4911610120578063a221ee4914610799578063a9059cbb146107ce578063b02f0b73146107fa578063b0e0d13614610871578063b7b800a414610879578063ba019dab14610881576102a0565b8063867378c514610736578063892980121461073e5780639381cd2b1461077957806395d89b4114610781578063992e2a92146107895780639a86139b14610791576102a0565b80634f69c0d41161020b57806376c7a3c7116101c457806376c7a3c7146105fb5780637c5e9ea4146106035780637f6d712b1461065c5780638201aa3f1461068057806382f652ad146106c05780638656b653146106fb576102a0565b80634f69c0d4146104935780635c1bbaf71461050a5780635db342771461054557806366188463146105775780636d06dfa0146105a357806370a08231146105d5576102a0565b8063218b53821161025d578063218b5382146103cb57806323b872dd146103d3578063313ce567146104095780633fdddaa21461042757806346ab38f1146104595780634bb278f31461048b576102a0565b806302c96748146102b257806306fdde03146102f6578063095ea7b31461037357806309a3bbe4146103b357806318160ddd146103bb578063189d00ca146103c3575b6102b06102ab6109c9565b6109ee565b005b6102e4600480360360608110156102c857600080fd5b506001600160a01b038135169060208101359060400135610a17565b60408051918252519081900360200190f35b6102fe610e2b565b6040805160208082528351818301528351919283929083019185019080838360005b83811015610338578181015183820152602001610320565b50505050905090810190601f1680156103655780820380516001836020036101000a031916815260200191505b509250505060405180910390f35b61039f6004803603604081101561038957600080fd5b506001600160a01b038135169060200135610ec1565b604080519115158252519081900360200190f35b6102e4610f16565b6102e4610f23565b6102e4610f29565b6102e4610f3d565b61039f600480360360608110156103e957600080fd5b506001600160a01b03813581169160208101359091169060400135610f49565b6104116110a3565b6040805160ff9092168252519081900360200190f35b6102b06004803603606081101561043d57600080fd5b506001600160a01b0381351690602081013590604001356110ac565b6102e46004803603606081101561046f57600080fd5b506001600160a01b0381351690602081013590604001356114b8565b6102b061186a565b6102b0600480360360408110156104a957600080fd5b813591908101906040810160208201356401000000008111156104cb57600080fd5b8201836020820111156104dd57600080fd5b803590602001918460208302840111640100000000831117156104ff57600080fd5b509092509050611a61565b6102e4600480360360c081101561052057600080fd5b5080359060208101359060408101359060608101359060808101359060a00135611e20565b6102e46004803603606081101561055b57600080fd5b506001600160a01b038135169060208101359060400135611ed8565b61039f6004803603604081101561058d57600080fd5b506001600160a01b03813516906020013561226f565b6102e4600480360360608110156105b957600080fd5b506001600160a01b038135169060208101359060400135612347565b6102e4600480360360208110156105eb57600080fd5b50356001600160a01b031661270b565b6102e4612726565b610643600480360360a081101561061957600080fd5b506001600160a01b0381358116916020810135916040820135169060608101359060800135612738565b6040805192835260208301919091528051918290030190f35b610664612da8565b604080516001600160a01b039092168252519081900360200190f35b610643600480360360a081101561069657600080fd5b506001600160a01b0381358116916020810135916040820135169060608101359060800135612e4d565b6102e4600480360360c08110156106d657600080fd5b5080359060208101359060408101359060608101359060808101359060a0013561349a565b6102e4600480360360c081101561071157600080fd5b5080359060208101359060408101359060608101359060808101359060a00135613559565b6102e46135fa565b6102e4600480360360c081101561075457600080fd5b5080359060208101359060408101359060608101359060808101359060a0013561360f565b6102e46136bf565b6102fe6136cc565b6102e461372d565b6102e4613739565b6102e4600480360360a08110156107af57600080fd5b5080359060208101359060408101359060608101359060800135613746565b61039f600480360360408110156107e457600080fd5b506001600160a01b0381351690602001356137ab565b6102b06004803603604081101561081057600080fd5b8135919081019060408101602082013564010000000081111561083257600080fd5b82018360208201111561084457600080fd5b8035906020019184602083028401116401000000008311171561086657600080fd5b5090925090506137c1565b6102e4613bbc565b6102e4613bc1565b6102e4613bc6565b6102e4600480360360c081101561089f57600080fd5b5080359060208101359060408101359060608101359060808101359060a00135613bcb565b6102e4613c4c565b6102e4613c58565b6102b0600480360360208110156108ea57600080fd5b50356001600160a01b0316613c5d565b61039f6004803603604081101561091057600080fd5b506001600160a01b038135169060200135613fdf565b6102e46004803603604081101561093c57600080fd5b506001600160a01b0381358116916020013516614060565b6102b06004803603606081101561096a57600080fd5b506001600160a01b03813516906020810135906040013561408b565b6102e46142dd565b6102e4600480360360c08110156109a457600080fd5b5080359060208101359060408101359060608101359060808101359060a001356142ed565b7f360894a13ba1a3210667c828492db98dca3e2076cc3735a920a3ca505d382bbc5490565b3660008037600080366000845af43d6000803e808015610a0d573d6000f35b3d6000fd5b505050565b600d5460408051636c9b2a3f60e11b815232600482015290516000926001600160a01b031691829163d936547e91602480820192602092909190829003018186803b158015610a6557600080fd5b505afa158015610a79573d6000803e3d6000fd5b505050506040513d6020811015610a8f57600080fd5b5051610acc5760405162461bcd60e51b815260040180806020018281038252602c815260200180614c89602c913960400191505060405180910390fd5b336001600160a01b03166000356001600160e01b0319166001600160e01b03191660003660405180806020018281038252848482818152602001925080828437600083820152604051601f909101601f19169092018290039550909350505050a2600554610100900460ff1615610b78576040805162461bcd60e51b815260206004820152600b60248201526a4552525f5245454e54525960a81b604482015290519081900360640190fd5b6005805461ff00191661010017905560085460ff16610bd2576040805162461bcd60e51b815260206004820152601160248201527011549497d393d517d19253905312569151607a1b604482015290519081900360640190fd5b6001600160a01b0385166000908152600a602052604090205460ff16610c2f576040805162461bcd60e51b815260206004820152600d60248201526c11549497d393d517d093d55391609a1b604482015290519081900360640190fd5b6001600160a01b0385166000908152600a60205260409020600390810154610c6491670de0b6b3a76400005b04600101614376565b841115610cac576040805162461bcd60e51b81526020600482015260116024820152704552525f4d41585f4f55545f524154494f60781b604482015290519081900360640190fd5b6001600160a01b0385166000908152600a6020526040902060038101546002808301549054600b54600754610ce694939291908a9061349a565b925082610d2c576040805162461bcd60e51b815260206004820152600f60248201526e08aa4a4be9a82a890be82a0a0a49eb608b1b604482015290519081900360640190fd5b83831115610d70576040805162461bcd60e51b815260206004820152600c60248201526b22a9292fa624a6a4aa2fa4a760a11b604482015290519081900360640190fd5b610d7e81600301548661443f565b60038201556000610d8f8482614376565b6040805188815290519192506001600160a01b0389169133917fe74c91552b64c2e2e7bd255639e004e693bd3e1d01cc33e65610b86afcc1ffed919081900360200190a3610ddd33856144a1565b610def610dea858361443f565b6144af565b600554610e0b906201000090046001600160a01b0316826144bb565b610e168733886144c5565b5050506005805461ff00191690559392505050565b60038054604080516020601f6002600019610100600188161502019095169490940493840181900481028201810190925282815260609390929091830182828015610eb75780601f10610e8c57610100808354040283529160200191610eb7565b820191906000526020600020905b815481529060010190602001808311610e9a57829003601f168201915b5050505050905090565b3360008181526001602090815260408083206001600160a01b03871680855290835281842086905581518681529151939490939092600080516020614cb5833981519152928290030190a35060015b92915050565b6802b5e3af16b188000081565b60025490565b6402540be400670de0b6b3a76400005b0481565b670de0b6b3a764000081565b6000336001600160a01b0385161480610f8557506001600160a01b03841660009081526001602090815260408083203384529091529020548211155b610fce576040805162461bcd60e51b815260206004820152601560248201527422a9292fa12a27a5a2a72fa120a22fa1a0a62622a960591b604482015290519081900360640190fd5b610fd9848484614596565b336001600160a01b0385161480159061101757506001600160a01b038416600090815260016020908152604080832033845290915290205460001914155b15611099576001600160a01b038416600090815260016020908152604080832033845290915290205461104a908361443f565b6001600160a01b0385811660009081526001602090815260408083203380855290835292819020859055805194855251928716939192600080516020614cb58339815191529281900390910190a35b5060019392505050565b60055460ff1690565b336001600160a01b03166000356001600160e01b0319166001600160e01b03191660003660405180806020018281038252848482818152602001925080828437600083820152604051601f909101601f19169092018290039550909350505050a2600554610100900460ff1615611158576040805162461bcd60e51b815260206004820152600b60248201526a4552525f5245454e54525960a81b604482015290519081900360640190fd5b6005805461ff001916610100179055600654336001600160a01b03909116146111bd576040805162461bcd60e51b815260206004820152601260248201527122a9292fa727aa2fa1a7a72a2927a62622a960711b604482015290519081900360640190fd5b6001600160a01b0383166000908152600a602052604090205460ff1661121a576040805162461bcd60e51b815260206004820152600d60248201526c11549497d393d517d093d55391609a1b604482015290519081900360640190fd5b60085460ff1615611265576040805162461bcd60e51b815260206004820152601060248201526f11549497d254d7d1925390531256915160821b604482015290519081900360640190fd5b670de0b6b3a76400008110156112b3576040805162461bcd60e51b815260206004820152600e60248201526d11549497d3525397d5d15251d21560921b604482015290519081900360640190fd5b6802b5e3af16b1880000811115611302576040805162461bcd60e51b815260206004820152600e60248201526d11549497d3505617d5d15251d21560921b604482015290519081900360640190fd5b61271082101561134b576040805162461bcd60e51b815260206004820152600f60248201526e4552525f4d494e5f42414c414e434560881b604482015290519081900360640190fd5b6001600160a01b0383166000908152600a6020526040902060020154808211156113e257611384600b5461137f848461443f565b6146a6565b600b8190556802b5e3af16b188000010156113dd576040805162461bcd60e51b815260206004820152601460248201527311549497d3505617d513d5105317d5d15251d21560621b604482015290519081900360640190fd5b611403565b80821015611403576113ff600b546113fa838561443f565b61443f565b600b555b6001600160a01b0384166000908152600a60205260409020600281018390556003018054908490558084111561144c576114478533611442878561443f565b6146fa565b6114a6565b808410156114a6576000611460828661443f565b9050600061146f826000614376565b90506114858733611480858561443f565b6144c5565b6005546114a39088906201000090046001600160a01b0316836144c5565b50505b50506005805461ff0019169055505050565b600d5460408051636c9b2a3f60e11b815232600482015290516000926001600160a01b031691829163d936547e91602480820192602092909190829003018186803b15801561150657600080fd5b505afa15801561151a573d6000803e3d6000fd5b505050506040513d602081101561153057600080fd5b505161156d5760405162461bcd60e51b815260040180806020018281038252602c815260200180614c89602c913960400191505060405180910390fd5b336001600160a01b03166000356001600160e01b0319166001600160e01b03191660003660405180806020018281038252848482818152602001925080828437600083820152604051601f909101601f19169092018290039550909350505050a2600554610100900460ff1615611619576040805162461bcd60e51b815260206004820152600b60248201526a4552525f5245454e54525960a81b604482015290519081900360640190fd5b6005805461ff00191661010017905560085460ff16611673576040805162461bcd60e51b815260206004820152601160248201527011549497d393d517d19253905312569151607a1b604482015290519081900360640190fd5b6001600160a01b0385166000908152600a602052604090205460ff166116d0576040805162461bcd60e51b815260206004820152600d60248201526c11549497d393d517d093d55391609a1b604482015290519081900360640190fd5b6001600160a01b0385166000908152600a6020526040902060038101546002808301549054600b5460075461170a94939291908a9061360f565b925083831015611751576040805162461bcd60e51b815260206004820152600d60248201526c11549497d31253525517d3d555609a1b604482015290519081900360640190fd5b6001600160a01b0386166000908152600a6020526040902060039081015461178191670de0b6b3a7640000610c5b565b8311156117c9576040805162461bcd60e51b81526020600482015260116024820152704552525f4d41585f4f55545f524154494f60781b604482015290519081900360640190fd5b6117d781600301548461443f565b600382015560006117e88682614376565b6040805186815290519192506001600160a01b0389169133917fe74c91552b64c2e2e7bd255639e004e693bd3e1d01cc33e65610b86afcc1ffed919081900360200190a361183633876144a1565b611843610dea878361443f565b60055461185f906201000090046001600160a01b0316826144bb565b610e168733866144c5565b336001600160a01b03166000356001600160e01b0319166001600160e01b03191660003660405180806020018281038252848482818152602001925080828437600083820152604051601f909101601f19169092018290039550909350505050a2600554610100900460ff1615611916576040805162461bcd60e51b815260206004820152600b60248201526a4552525f5245454e54525960a81b604482015290519081900360640190fd5b6005805461ff001916610100179055600654336001600160a01b039091161461197b576040805162461bcd60e51b815260206004820152601260248201527122a9292fa727aa2fa1a7a72a2927a62622a960711b604482015290519081900360640190fd5b60085460ff16156119c6576040805162461bcd60e51b815260206004820152601060248201526f11549497d254d7d1925390531256915160821b604482015290519081900360640190fd5b60095460021115611a0f576040805162461bcd60e51b815260206004820152600e60248201526d4552525f4d494e5f544f4b454e5360901b604482015290519081900360640190fd5b6008805460ff191660011790556006805460ff60a01b1916600160a01b179055611a4168056bc75e2d63100000614753565b611a543368056bc75e2d631000006144bb565b6005805461ff0019169055565b600d5460408051636c9b2a3f60e11b815232600482015290516001600160a01b0390921691829163d936547e916024808301926020929190829003018186803b158015611aad57600080fd5b505afa158015611ac1573d6000803e3d6000fd5b505050506040513d6020811015611ad757600080fd5b5051611b145760405162461bcd60e51b815260040180806020018281038252602c815260200180614c89602c913960400191505060405180910390fd5b336001600160a01b03166000356001600160e01b0319166001600160e01b03191660003660405180806020018281038252848482818152602001925080828437600083820152604051601f909101601f19169092018290039550909350505050a2600554610100900460ff1615611bc0576040805162461bcd60e51b815260206004820152600b60248201526a4552525f5245454e54525960a81b604482015290519081900360640190fd5b6005805461ff00191661010017905560085460ff16611c1a576040805162461bcd60e51b815260206004820152601160248201527011549497d393d517d19253905312569151607a1b604482015290519081900360640190fd5b6000611c24610f23565b90506000611c32868361475c565b905080611c78576040805162461bcd60e51b815260206004820152600f60248201526e08aa4a4be9a82a890be82a0a0a49eb608b1b604482015290519081900360640190fd5b60005b600954811015611df957600060098281548110611c9457fe5b60009182526020808320909101546001600160a01b0316808352600a909152604082206003015490925090611cc98583614376565b905080611d0f576040805162461bcd60e51b815260206004820152600f60248201526e08aa4a4be9a82a890be82a0a0a49eb608b1b604482015290519081900360640190fd5b888885818110611d1b57fe5b90506020020135811115611d65576040805162461bcd60e51b815260206004820152600c60248201526b22a9292fa624a6a4aa2fa4a760a11b604482015290519081900360640190fd5b6001600160a01b0383166000908152600a6020526040902060030154611d8b90826146a6565b6001600160a01b0384166000818152600a60209081526040918290206003019390935580518481529051919233927f63982df10efd8dfaaaa0fcc7f50b2d93b7cba26ccc48adee2873220d485dc39a9281900390910190a3611dee8333836146fa565b505050600101611c7b565b50611e0386614753565b611e0d33876144bb565b50506005805461ff001916905550505050565b600080611e2d878661475c565b90506000611e3b87866146a6565b90506000611e49828961475c565b90506000611e5f670de0b6b3a76400008561475c565b90506000611e6d8383614864565b90506000611e7b828e614376565b90506000611e89828f61443f565b90506000611ea8611ea2670de0b6b3a76400008a61443f565b8b614376565b9050611ec582611ec0670de0b6b3a76400008461443f565b61475c565b9f9e505050505050505050505050505050565b600d5460408051636c9b2a3f60e11b815232600482015290516000926001600160a01b031691829163d936547e91602480820192602092909190829003018186803b158015611f2657600080fd5b505afa158015611f3a573d6000803e3d6000fd5b505050506040513d6020811015611f5057600080fd5b5051611f8d5760405162461bcd60e51b815260040180806020018281038252602c815260200180614c89602c913960400191505060405180910390fd5b336001600160a01b03166000356001600160e01b0319166001600160e01b03191660003660405180806020018281038252848482818152602001925080828437600083820152604051601f909101601f19169092018290039550909350505050a2600554610100900460ff1615612039576040805162461bcd60e51b815260206004820152600b60248201526a4552525f5245454e54525960a81b604482015290519081900360640190fd5b6005805461ff00191661010017905560085460ff16612093576040805162461bcd60e51b815260206004820152601160248201527011549497d393d517d19253905312569151607a1b604482015290519081900360640190fd5b6001600160a01b0385166000908152600a602052604090205460ff166120f0576040805162461bcd60e51b815260206004820152600d60248201526c11549497d393d517d093d55391609a1b604482015290519081900360640190fd5b6001600160a01b0385166000908152600a6020526040902060030154612122906002670de0b6b3a76400005b04614376565b841115612169576040805162461bcd60e51b815260206004820152601060248201526f4552525f4d41585f494e5f524154494f60801b604482015290519081900360640190fd5b6001600160a01b0385166000908152600a6020526040902060038101546002808301549054600b546007546121a394939291908a90613559565b9250838310156121ea576040805162461bcd60e51b815260206004820152600d60248201526c11549497d31253525517d3d555609a1b604482015290519081900360640190fd5b6121f88160030154866146a6565b60038201556040805186815290516001600160a01b0388169133917f63982df10efd8dfaaaa0fcc7f50b2d93b7cba26ccc48adee2873220d485dc39a9181900360200190a361224683614753565b61225033846144bb565b61225b8633876146fa565b50506005805461ff00191690559392505050565b3360009081526001602090815260408083206001600160a01b0386168452909152812054808311156122c4573360009081526001602090815260408083206001600160a01b03881684529091528120556122f3565b6122ce818461443f565b3360009081526001602090815260408083206001600160a01b03891684529091529020555b3360008181526001602090815260408083206001600160a01b038916808552908352928190205481519081529051929392600080516020614cb5833981519152929181900390910190a35060019392505050565b600d5460408051636c9b2a3f60e11b815232600482015290516000926001600160a01b031691829163d936547e91602480820192602092909190829003018186803b15801561239557600080fd5b505afa1580156123a9573d6000803e3d6000fd5b505050506040513d60208110156123bf57600080fd5b50516123fc5760405162461bcd60e51b815260040180806020018281038252602c815260200180614c89602c913960400191505060405180910390fd5b336001600160a01b03166000356001600160e01b0319166001600160e01b03191660003660405180806020018281038252848482818152602001925080828437600083820152604051601f909101601f19169092018290039550909350505050a2600554610100900460ff16156124a8576040805162461bcd60e51b815260206004820152600b60248201526a4552525f5245454e54525960a81b604482015290519081900360640190fd5b6005805461ff00191661010017905560085460ff16612502576040805162461bcd60e51b815260206004820152601160248201527011549497d393d517d19253905312569151607a1b604482015290519081900360640190fd5b6001600160a01b0385166000908152600a602052604090205460ff1661255f576040805162461bcd60e51b815260206004820152600d60248201526c11549497d393d517d093d55391609a1b604482015290519081900360640190fd5b6001600160a01b0385166000908152600a6020526040902060038101546002808301549054600b5460075461259994939291908a90611e20565b9250826125df576040805162461bcd60e51b815260206004820152600f60248201526e08aa4a4be9a82a890be82a0a0a49eb608b1b604482015290519081900360640190fd5b83831115612623576040805162461bcd60e51b815260206004820152600c60248201526b22a9292fa624a6a4aa2fa4a760a11b604482015290519081900360640190fd5b6001600160a01b0386166000908152600a6020526040902060030154612653906002670de0b6b3a764000061211c565b83111561269a576040805162461bcd60e51b815260206004820152601060248201526f4552525f4d41585f494e5f524154494f60801b604482015290519081900360640190fd5b6126a88160030154846146a6565b60038201556040805184815290516001600160a01b0388169133917f63982df10efd8dfaaaa0fcc7f50b2d93b7cba26ccc48adee2873220d485dc39a9181900360200190a36126f685614753565b61270033866144bb565b61225b8633856146fa565b6001600160a01b031660009081526020819052604090205490565b620f4240670de0b6b3a7640000610f39565b600d54600090819081906001600160a01b0316815b600e5481101561280557816001600160a01b03166391d14854600e838154811061277357fe5b9060005260206000200154326040518363ffffffff1660e01b815260040180838152602001826001600160a01b031681526020019250505060206040518083038186803b1580156127c357600080fd5b505afa1580156127d7573d6000803e3d6000fd5b505050506040513d60208110156127ed57600080fd5b5051156127fd5760019250612805565b60010161274d565b50816128425760405162461bcd60e51b8152600401808060200182810382526038815260200180614c516038913960400191505060405180910390fd5b336001600160a01b03166000356001600160e01b0319166001600160e01b03191660003660405180806020018281038252848482818152602001925080828437600083820152604051601f909101601f19169092018290039550909350505050a2600554610100900460ff16156128ee576040805162461bcd60e51b815260206004820152600b60248201526a4552525f5245454e54525960a81b604482015290519081900360640190fd5b6005805461ff0019166101001790556001600160a01b0389166000908152600a602052604090205460ff1661295a576040805162461bcd60e51b815260206004820152600d60248201526c11549497d393d517d093d55391609a1b604482015290519081900360640190fd5b6001600160a01b0387166000908152600a602052604090205460ff166129b7576040805162461bcd60e51b815260206004820152600d60248201526c11549497d393d517d093d55391609a1b604482015290519081900360640190fd5b600654600160a01b900460ff16612a0b576040805162461bcd60e51b81526020600482015260136024820152724552525f535741505f4e4f545f5055424c494360681b604482015290519081900360640190fd5b6001600160a01b03808a166000908152600a6020526040808220928a1682529020600380820154612a4491670de0b6b3a7640000610c5b565b881115612a8c576040805162461bcd60e51b81526020600482015260116024820152704552525f4d41585f4f55545f524154494f60781b604482015290519081900360640190fd5b6000612aad8360030154846002015484600301548560020154600754613746565b905087811115612afa576040805162461bcd60e51b81526020600482015260136024820152724552525f4241445f4c494d49545f505249434560681b604482015290519081900360640190fd5b612b1a83600301548460020154846003015485600201548d6007546142ed565b96508a871115612b60576040805162461bcd60e51b815260206004820152600c60248201526b22a9292fa624a6a4aa2fa4a760a11b604482015290519081900360640190fd5b612b6e8360030154886146a6565b8360030181905550612b8482600301548a61443f565b600380840182905584015460028086015490850154600754612ba7949190613746565b955080861015612bf0576040805162461bcd60e51b815260206004820152600f60248201526e08aa4a4be9a82a890be82a0a0a49eb608b1b604482015290519081900360640190fd5b87861115612c37576040805162461bcd60e51b815260206004820152600f60248201526e4552525f4c494d49545f505249434560881b604482015290519081900360640190fd5b612c41878a61475c565b811115612c87576040805162461bcd60e51b815260206004820152600f60248201526e08aa4a4be9a82a890be82a0a0a49eb608b1b604482015290519081900360640190fd5b896001600160a01b03168c6001600160a01b0316336001600160a01b03167f908fb5ee8f16c6bc9bc3690973819f32a4d4b10188134543c88706e0e1d433788a8d604051808381526020018281526020019250505060405180910390a4612cef8c33896146fa565b612cfa8a338b6144c5565b612d708c306001600160a01b0316637f6d712b6040518163ffffffff1660e01b815260040160206040518083038186803b158015612d3757600080fd5b505afa158015612d4b573d6000803e3d6000fd5b505050506040513d6020811015612d6157600080fd5b5051600c54611480908b614376565b612d8483600301546113fa600c548a614376565b836003018190555050505050506005805461ff001916905590969095509350505050565b600d5460408051632404341f60e21b81527fa49807205ce4d355092ef5a8a18f56e8913cf4a201fbe287825b095693c217756004820152600060248201819052915191926001600160a01b031691639010d07c91604480820192602092909190829003018186803b158015612e1c57600080fd5b505afa158015612e30573d6000803e3d6000fd5b505050506040513d6020811015612e4657600080fd5b5051905090565b600d54600090819081906001600160a01b0316815b600e54811015612f1a57816001600160a01b03166391d14854600e8381548110612e8857fe5b9060005260206000200154326040518363ffffffff1660e01b815260040180838152602001826001600160a01b031681526020019250505060206040518083038186803b158015612ed857600080fd5b505afa158015612eec573d6000803e3d6000fd5b505050506040513d6020811015612f0257600080fd5b505115612f125760019250612f1a565b600101612e62565b5081612f575760405162461bcd60e51b8152600401808060200182810382526038815260200180614c516038913960400191505060405180910390fd5b336001600160a01b03166000356001600160e01b0319166001600160e01b03191660003660405180806020018281038252848482818152602001925080828437600083820152604051601f909101601f19169092018290039550909350505050a2600554610100900460ff1615613003576040805162461bcd60e51b815260206004820152600b60248201526a4552525f5245454e54525960a81b604482015290519081900360640190fd5b6005805461ff0019166101001790556001600160a01b0389166000908152600a602052604090205460ff1661306f576040805162461bcd60e51b815260206004820152600d60248201526c11549497d393d517d093d55391609a1b604482015290519081900360640190fd5b6001600160a01b0387166000908152600a602052604090205460ff166130cc576040805162461bcd60e51b815260206004820152600d60248201526c11549497d393d517d093d55391609a1b604482015290519081900360640190fd5b600654600160a01b900460ff16613120576040805162461bcd60e51b81526020600482015260136024820152724552525f535741505f4e4f545f5055424c494360681b604482015290519081900360640190fd5b6001600160a01b03808a166000908152600a6020526040808220928a1682529020600382015461315a906002670de0b6b3a764000061211c565b8a11156131a1576040805162461bcd60e51b815260206004820152601060248201526f4552525f4d41585f494e5f524154494f60801b604482015290519081900360640190fd5b60006131c28360030154846002015484600301548560020154600754613746565b90508781111561320f576040805162461bcd60e51b81526020600482015260136024820152724552525f4241445f4c494d49545f505249434560681b604482015290519081900360640190fd5b61322f83600301548460020154846003015485600201548f600754613bcb565b965088871015613276576040805162461bcd60e51b815260206004820152600d60248201526c11549497d31253525517d3d555609a1b604482015290519081900360640190fd5b61328483600301548c6146a6565b836003018190555061329a82600301548861443f565b6003808401829055840154600280860154908501546007546132bd949190613746565b955080861015613306576040805162461bcd60e51b815260206004820152600f60248201526e08aa4a4be9a82a890be82a0a0a49eb608b1b604482015290519081900360640190fd5b8786111561334d576040805162461bcd60e51b815260206004820152600f60248201526e4552525f4c494d49545f505249434560881b604482015290519081900360640190fd5b6133578b8861475c565b81111561339d576040805162461bcd60e51b815260206004820152600f60248201526e08aa4a4be9a82a890be82a0a0a49eb608b1b604482015290519081900360640190fd5b896001600160a01b03168c6001600160a01b0316336001600160a01b03167f908fb5ee8f16c6bc9bc3690973819f32a4d4b10188134543c88706e0e1d433788e8b604051808381526020018281526020019250505060405180910390a46134058c338d6146fa565b6134108a33896144c5565b6134868c306001600160a01b0316637f6d712b6040518163ffffffff1660e01b815260040160206040518083038186803b15801561344d57600080fd5b505afa158015613461573d6000803e3d6000fd5b505050506040513d602081101561347757600080fd5b5051600c54611480908f614376565b612d8483600301546113fa600c548e614376565b6000806134a7878661475c565b905060006134bd670de0b6b3a76400008361443f565b905060006134cb8286614376565b905060006134e587611ec0670de0b6b3a76400008561443f565b905060006134f38c8361443f565b90506000613501828e61475c565b9050600061350f8288614864565b9050600061351d828e614376565b9050600061352b8e8361443f565b905061354481611ec0670de0b6b3a7640000600061443f565b99505050505050505050509695505050505050565b600080613566878661475c565b9050600061358561357f670de0b6b3a76400008461443f565b85614376565b905060006135a48661359f670de0b6b3a76400008561443f565b614376565b905060006135b28b836146a6565b905060006135c0828d61475c565b905060006135ce8287614864565b905060006135dc828d614376565b90506135e8818d61443f565b9e9d5050505050505050505050505050565b655af3107a4000670de0b6b3a7640000610f39565b60008061361c878661475c565b905060006136378561359f670de0b6b3a7640000600061443f565b90506000613645888361443f565b90506000613653828a61475c565b905060006136728261366d670de0b6b3a76400008861475c565b614864565b90506000613680828e614376565b9050600061368e8e8361443f565b905060006136a7611ea2670de0b6b3a76400008a61443f565b9050611ec58261359f670de0b6b3a76400008461443f565b68056bc75e2d6310000081565b60048054604080516020601f6002600019610100600188161502019095169490940493840181900481028201810190925282815260609390929091830182828015610eb75780601f10610e8c57610100808354040283529160200191610eb7565b6704a03ce68d21555681565b6542524f4e5a4560d01b90565b600080613753878761475c565b90506000613761868661475c565b9050600061376f838361475c565b90506000613791670de0b6b3a7640000611ec0670de0b6b3a76400008961443f565b905061379d8282614376565b9a9950505050505050505050565b60006137b8338484614596565b50600192915050565b600d5460408051636c9b2a3f60e11b815232600482015290516001600160a01b0390921691829163d936547e916024808301926020929190829003018186803b15801561380d57600080fd5b505afa158015613821573d6000803e3d6000fd5b505050506040513d602081101561383757600080fd5b50516138745760405162461bcd60e51b815260040180806020018281038252602c815260200180614c89602c913960400191505060405180910390fd5b336001600160a01b03166000356001600160e01b0319166001600160e01b03191660003660405180806020018281038252848482818152602001925080828437600083820152604051601f909101601f19169092018290039550909350505050a2600554610100900460ff1615613920576040805162461bcd60e51b815260206004820152600b60248201526a4552525f5245454e54525960a81b604482015290519081900360640190fd5b6005805461ff00191661010017905560085460ff1661397a576040805162461bcd60e51b815260206004820152601160248201527011549497d393d517d19253905312569151607a1b604482015290519081900360640190fd5b6000613984610f23565b90506000613993866000614376565b905060006139a1878361443f565b905060006139af828561475c565b9050806139f5576040805162461bcd60e51b815260206004820152600f60248201526e08aa4a4be9a82a890be82a0a0a49eb608b1b604482015290519081900360640190fd5b6139ff33896144a1565b600554613a1b906201000090046001600160a01b0316846144bb565b613a24826144af565b60005b600954811015613ba657600060098281548110613a4057fe5b60009182526020808320909101546001600160a01b0316808352600a909152604082206003015490925090613a758583614376565b905080613abb576040805162461bcd60e51b815260206004820152600f60248201526e08aa4a4be9a82a890be82a0a0a49eb608b1b604482015290519081900360640190fd5b8a8a85818110613ac757fe5b90506020020135811015613b12576040805162461bcd60e51b815260206004820152600d60248201526c11549497d31253525517d3d555609a1b604482015290519081900360640190fd5b6001600160a01b0383166000908152600a6020526040902060030154613b38908261443f565b6001600160a01b0384166000818152600a60209081526040918290206003019390935580518481529051919233927fe74c91552b64c2e2e7bd255639e004e693bd3e1d01cc33e65610b86afcc1ffed9281900390910190a3613b9b8333836144c5565b505050600101613a27565b50506005805461ff001916905550505050505050565b600881565b600281565b600181565b600080613bd8878661475c565b90506000613bee670de0b6b3a76400008561443f565b9050613bfa8582614376565b90506000613c0c8a611ec08c856146a6565b90506000613c1a8285614864565b90506000613c30670de0b6b3a76400008361443f565b9050613c3c8a82614376565b9c9b505050505050505050505050565b671bc16d674ec7ffff81565b600081565b336001600160a01b03166000356001600160e01b0319166001600160e01b03191660003660405180806020018281038252848482818152602001925080828437600083820152604051601f909101601f19169092018290039550909350505050a2600554610100900460ff1615613d09576040805162461bcd60e51b815260206004820152600b60248201526a4552525f5245454e54525960a81b604482015290519081900360640190fd5b6005805461ff001916610100179055600654336001600160a01b0390911614613d6e576040805162461bcd60e51b815260206004820152601260248201527122a9292fa727aa2fa1a7a72a2927a62622a960711b604482015290519081900360640190fd5b6001600160a01b0381166000908152600a602052604090205460ff16613dcb576040805162461bcd60e51b815260206004820152600d60248201526c11549497d393d517d093d55391609a1b604482015290519081900360640190fd5b60085460ff1615613e16576040805162461bcd60e51b815260206004820152601060248201526f11549497d254d7d1925390531256915160821b604482015290519081900360640190fd5b6001600160a01b0381166000908152600a602052604081206003015490613e3d8282614376565b600b546001600160a01b0385166000908152600a6020526040902060020154919250613e689161443f565b600b556001600160a01b0383166000908152600a6020526040902060010154600980546000198101919082908110613e9c57fe5b600091825260209091200154600980546001600160a01b039092169184908110613ec257fe5b9060005260206000200160006101000a8154816001600160a01b0302191690836001600160a01b0316021790555081600a600060098581548110613f0257fe5b60009182526020808320909101546001600160a01b031683528201929092526040019020600101556009805480613f3557fe5b60008281526020808220600019908401810180546001600160a01b031916905590920190925560408051608081018252838152808301848152818301858152606083018681526001600160a01b038c168752600a909552929094209051815460ff19169015151781559251600184015551600283015551600390910155613fc18533611480878761443f565b6005546114a69086906201000090046001600160a01b0316856144c5565b3360009081526001602090815260408083206001600160a01b038616845290915281205461400d90836146a6565b3360008181526001602090815260408083206001600160a01b038916808552908352928190208590558051948552519193600080516020614cb5833981519152929081900390910190a350600192915050565b6001600160a01b03918216600090815260016020908152604080832093909416825291909152205490565b336001600160a01b03166000356001600160e01b0319166001600160e01b03191660003660405180806020018281038252848482818152602001925080828437600083820152604051601f909101601f19169092018290039550909350505050a26006546001600160a01b03163314614140576040805162461bcd60e51b815260206004820152601260248201527122a9292fa727aa2fa1a7a72a2927a62622a960711b604482015290519081900360640190fd5b6001600160a01b0383166000908152600a602052604090205460ff161561419d576040805162461bcd60e51b815260206004820152600c60248201526b11549497d254d7d093d5539160a21b604482015290519081900360640190fd5b60085460ff16156141e8576040805162461bcd60e51b815260206004820152601060248201526f11549497d254d7d1925390531256915160821b604482015290519081900360640190fd5b600954600811614230576040805162461bcd60e51b815260206004820152600e60248201526d4552525f4d41585f544f4b454e5360901b604482015290519081900360640190fd5b6040805160808101825260018082526009805460208085019182526000858701818152606087018281526001600160a01b038c16808452600a9094529782209651875460ff1916901515178755925186860155915160028601559451600390940193909355805491820181559091527f6e1540171b6c0c960b71a7020d9f60077f6af931a8bbf590da0223dacf75c7af0180546001600160a01b0319169091179055610a128383836110ac565b6002670de0b6b3a7640000610f39565b6000806142fa858861475c565b90506000614308878661443f565b90506000614316888361475c565b905060006143248285614864565b905061433881670de0b6b3a764000061443f565b905061434c670de0b6b3a76400008761443f565b945061436161435b8c83614376565b8661475c565b9b9a5050505050505050505050565b3b151590565b600082820283158061439057508284828161438d57fe5b04145b6143d4576040805162461bcd60e51b815260206004820152601060248201526f4552525f4d554c5f4f564552464c4f5760801b604482015290519081900360640190fd5b6706f05b59d3b20000810181811015614427576040805162461bcd60e51b815260206004820152601060248201526f4552525f4d554c5f4f564552464c4f5760801b604482015290519081900360640190fd5b6000670de0b6b3a7640000825b049695505050505050565b600080600061444e8585614972565b915091508015614499576040805162461bcd60e51b81526020600482015260116024820152704552525f5355425f554e444552464c4f5760781b604482015290519081900360640190fd5b509392505050565b6144ab8282614997565b5050565b6144b8816149a2565b50565b6144ab8282614a72565b6000836001600160a01b031663a9059cbb84846040518363ffffffff1660e01b815260040180836001600160a01b0316815260200182815260200192505050602060405180830381600087803b15801561451e57600080fd5b505af1158015614532573d6000803e3d6000fd5b505050506040513d602081101561454857600080fd5b5051905080614590576040805162461bcd60e51b815260206004820152600f60248201526e4552525f45524332305f46414c534560881b604482015290519081900360640190fd5b50505050565b6001600160a01b0383166000908152602081905260409020548111156145fa576040805162461bcd60e51b815260206004820152601460248201527311549497d25394d551919250d251539517d0905360621b604482015290519081900360640190fd5b6001600160a01b03831660009081526020819052604090205461461d908261443f565b6001600160a01b03808516600090815260208190526040808220939093559084168152205461464c90826146a6565b6001600160a01b038084166000818152602081815260409182902094909455805185815290519193928716927fddf252ad1be2c89b69c2b068fc378daa952ba7f163c4a11628f55a4df523b3ef92918290030190a3505050565b6000828201838110156146f3576040805162461bcd60e51b815260206004820152601060248201526f4552525f4144445f4f564552464c4f5760801b604482015290519081900360640190fd5b9392505050565b604080516323b872dd60e01b81526001600160a01b0384811660048301523060248301526044820184905291516000928616916323b872dd91606480830192602092919082900301818787803b15801561451e57600080fd5b6144b881614a7d565b60008161479f576040805162461bcd60e51b815260206004820152600c60248201526b4552525f4449565f5a45524f60a01b604482015290519081900360640190fd5b670de0b6b3a764000083028315806147c75750670de0b6b3a76400008482816147c457fe5b04145b61480b576040805162461bcd60e51b815260206004820152601060248201526f11549497d1125597d25395115493905360821b604482015290519081900360640190fd5b60028304810181811015614859576040805162461bcd60e51b815260206004820152601060248201526f11549497d1125597d25395115493905360821b604482015290519081900360640190fd5b600084828161443457fe5b600060018310156148b4576040805162461bcd60e51b81526020600482015260156024820152744552525f42504f575f424153455f544f4f5f4c4f5760581b604482015290519081900360640190fd5b671bc16d674ec7ffff83111561490a576040805162461bcd60e51b815260206004820152601660248201527508aa4a4be84a09eaebe8482a68abea89e9ebe90928e960531b604482015290519081900360640190fd5b600061491583614af2565b90506000614923848361443f565b905060006149398661493485614b0d565b614b1b565b90508161494a579250610f10915050565b600061495b87846305f5e100614b72565b90506149678282614376565b979650505050505050565b6000808284106149885750508082036000614990565b505081810360015b9250929050565b6144ab823083614596565b306000908152602081905260409020548111156149fd576040805162461bcd60e51b815260206004820152601460248201527311549497d25394d551919250d251539517d0905360621b604482015290519081900360640190fd5b30600090815260208190526040902054614a17908261443f565b30600090815260208190526040902055600254614a34908261443f565b60025560408051828152905160009130917fddf252ad1be2c89b69c2b068fc378daa952ba7f163c4a11628f55a4df523b3ef9181900360200190a350565b6144ab308383614596565b30600090815260208190526040902054614a9790826146a6565b30600090815260208190526040902055600254614ab490826146a6565b60025560408051828152905130916000917fddf252ad1be2c89b69c2b068fc378daa952ba7f163c4a11628f55a4df523b3ef9181900360200190a350565b6000670de0b6b3a7640000614b0683614b0d565b0292915050565b670de0b6b3a7640000900490565b60008060028306614b3457670de0b6b3a7640000614b36565b835b90506002830492505b82156146f357614b4f8485614376565b93506002830615614b6757614b648185614376565b90505b600283049250614b3f565b6000828180614b8987670de0b6b3a7640000614972565b9092509050670de0b6b3a764000080600060015b888410614c41576000670de0b6b3a764000082029050600080614bd18a614bcc85670de0b6b3a764000061443f565b614972565b91509150614be38761359f848c614376565b9650614bef878461475c565b965086614bfe57505050614c41565b8715614c08579315935b8015614c12579315935b8415614c2957614c22868861443f565b9550614c36565b614c3386886146a6565b95505b505050600101614b9d565b5090999850505050505050505056fe464358416363657373436f6e74726f6c3a2073656e64657220646f65736e277420686176652073616d6520726f6c657320617320706f6f6c464358416363657373436f6e74726f6c3a2073656e646572206973206e6f7420696e2077686974656c6973748c5be1e5ebec7d5bd14f71427d1e84f3dd0314c0f7b2291e5b200ac8c7c3b925a264697066735822122057e0ea5b7b5f994c1b06e06e221ffad11e661e5b00214d23e1e4ae63d096e96964736f6c634300060c00335570677261646561626c6550726f78793a206e657720696d706c656d656e746174696f6e206973206e6f74206120636f6e7472616374416363657373436f6e74726f6c3a2073656e646572206d7573742062652061646d696e20746f2068617665207065726d697373696f6e416363657373436f6e74726f6c3a2073656e646572206d7573742062652061646d696e206f66206e65772061636365737320636f6e74726f6ca26469706673582212209e7d2ebedf9dc8d908483209602c2c7ef8a07fafffe6d951b49b031408b85e0564736f6c634300060c0033",
  "devdoc": {
    "kind": "dev",
    "methods": {},
    "version": 1
  },
  "userdoc": {
    "kind": "user",
    "methods": {},
    "version": 1
  },
  "storageLayout": {
    "storage": [
      {
        "astId": 6155,
        "contract": "contracts/core/BFactory.sol:BFactory",
        "label": "_isBPool",
        "offset": 0,
        "slot": "0",
        "type": "t_mapping(t_address,t_bool)"
      },
      {
        "astId": 6157,
        "contract": "contracts/core/BFactory.sol:BFactory",
        "label": "_accessAddress",
        "offset": 0,
        "slot": "1",
        "type": "t_address"
      },
      {
        "astId": 6159,
        "contract": "contracts/core/BFactory.sol:BFactory",
        "label": "_logic",
        "offset": 0,
        "slot": "2",
        "type": "t_address"
      },
      {
        "astId": 6262,
        "contract": "contracts/core/BFactory.sol:BFactory",
        "label": "_blabs",
        "offset": 0,
        "slot": "3",
        "type": "t_address"
      }
    ],
    "types": {
      "t_address": {
        "encoding": "inplace",
        "label": "address",
        "numberOfBytes": "20"
      },
      "t_bool": {
        "encoding": "inplace",
        "label": "bool",
        "numberOfBytes": "1"
      },
      "t_mapping(t_address,t_bool)": {
        "encoding": "mapping",
        "key": "t_address",
        "label": "mapping(address => bool)",
        "numberOfBytes": "32",
        "value": "t_bool"
      }
    }
  }
}