{
  "address": "0x5174dC75aEf03792b255398438C14ca8e0B0bb29",
  "abi": [
    {
      "inputs": [],
      "stateMutability": "nonpayable",
      "type": "constructor"
    },
    {
      "anonymous": false,
      "inputs": [
        {
          "indexed": true,
          "internalType": "address",
          "name": "owner",
          "type": "address"
        },
        {
          "indexed": true,
          "internalType": "address",
          "name": "spender",
          "type": "address"
        },
        {
          "indexed": false,
          "internalType": "uint256",
          "name": "value",
          "type": "uint256"
        }
      ],
      "name": "Approval",
      "type": "event"
    },
    {
      "anonymous": false,
      "inputs": [
        {
          "indexed": true,
          "internalType": "address",
          "name": "caller",
          "type": "address"
        },
        {
          "indexed": false,
          "internalType": "uint256",
          "name": "oldCap",
          "type": "uint256"
        },
        {
          "indexed": false,
          "internalType": "uint256",
          "name": "newCap",
          "type": "uint256"
        }
      ],
      "name": "CapChanged",
      "type": "event"
    },
    {
      "anonymous": true,
      "inputs": [
        {
          "indexed": true,
          "internalType": "bytes4",
          "name": "sig",
          "type": "bytes4"
        },
        {
          "indexed": true,
          "internalType": "address",
          "name": "caller",
          "type": "address"
        },
        {
          "indexed": false,
          "internalType": "bytes",
          "name": "data",
          "type": "bytes"
        }
      ],
      "name": "LogCall",
      "type": "event"
    },
    {
      "anonymous": false,
      "inputs": [
        {
          "indexed": true,
          "internalType": "address",
          "name": "caller",
          "type": "address"
        },
        {
          "indexed": true,
          "internalType": "address",
          "name": "tokenOut",
          "type": "address"
        },
        {
          "indexed": false,
          "internalType": "uint256",
          "name": "tokenAmountOut",
          "type": "uint256"
        }
      ],
      "name": "LogExit",
      "type": "event"
    },
    {
      "anonymous": false,
      "inputs": [
        {
          "indexed": true,
          "internalType": "address",
          "name": "caller",
          "type": "address"
        },
        {
          "indexed": true,
          "internalType": "address",
          "name": "tokenIn",
          "type": "address"
        },
        {
          "indexed": false,
          "internalType": "uint256",
          "name": "tokenAmountIn",
          "type": "uint256"
        }
      ],
      "name": "LogJoin",
      "type": "event"
    },
    {
      "anonymous": false,
      "inputs": [
        {
          "indexed": true,
          "internalType": "address",
          "name": "token",
          "type": "address"
        },
        {
          "indexed": true,
          "internalType": "address",
          "name": "pool",
          "type": "address"
        },
        {
          "indexed": true,
          "internalType": "address",
          "name": "caller",
          "type": "address"
        }
      ],
      "name": "NewTokenCommitted",
      "type": "event"
    },
    {
      "anonymous": false,
      "inputs": [
        {
          "indexed": true,
          "internalType": "address",
          "name": "previousOwner",
          "type": "address"
        },
        {
          "indexed": true,
          "internalType": "address",
          "name": "newOwner",
          "type": "address"
        }
      ],
      "name": "OwnershipTransferred",
      "type": "event"
    },
    {
      "anonymous": false,
      "inputs": [
        {
          "indexed": true,
          "internalType": "address",
          "name": "from",
          "type": "address"
        },
        {
          "indexed": true,
          "internalType": "address",
          "name": "to",
          "type": "address"
        },
        {
          "indexed": false,
          "internalType": "uint256",
          "name": "value",
          "type": "uint256"
        }
      ],
      "name": "Transfer",
      "type": "event"
    },
    {
      "inputs": [],
      "name": "DECIMALS",
      "outputs": [
        {
          "internalType": "uint8",
          "name": "",
          "type": "uint8"
        }
      ],
      "stateMutability": "view",
      "type": "function"
    },
    {
      "inputs": [],
      "name": "DEFAULT_ADD_TOKEN_TIME_LOCK_IN_BLOCKS",
      "outputs": [
        {
          "internalType": "uint256",
          "name": "",
          "type": "uint256"
        }
      ],
      "stateMutability": "view",
      "type": "function"
    },
    {
      "inputs": [],
      "name": "DEFAULT_MIN_WEIGHT_CHANGE_BLOCK_PERIOD",
      "outputs": [
        {
          "internalType": "uint256",
          "name": "",
          "type": "uint256"
        }
      ],
      "stateMutability": "view",
      "type": "function"
    },
    {
      "inputs": [],
      "name": "NAME",
      "outputs": [
        {
          "internalType": "string",
          "name": "",
          "type": "string"
        }
      ],
      "stateMutability": "view",
      "type": "function"
    },
    {
      "inputs": [],
      "name": "addTokenTimeLockInBlocks",
      "outputs": [
        {
          "internalType": "uint256",
          "name": "",
          "type": "uint256"
        }
      ],
      "stateMutability": "view",
      "type": "function"
    },
    {
      "inputs": [
        {
          "internalType": "address",
          "name": "owner",
          "type": "address"
        },
        {
          "internalType": "address",
          "name": "spender",
          "type": "address"
        }
      ],
      "name": "allowance",
      "outputs": [
        {
          "internalType": "uint256",
          "name": "",
          "type": "uint256"
        }
      ],
      "stateMutability": "view",
      "type": "function"
    },
    {
      "inputs": [
        {
          "internalType": "address",
          "name": "spender",
          "type": "address"
        },
        {
          "internalType": "uint256",
          "name": "amount",
          "type": "uint256"
        }
      ],
      "name": "approve",
      "outputs": [
        {
          "internalType": "bool",
          "name": "",
          "type": "bool"
        }
      ],
      "stateMutability": "nonpayable",
      "type": "function"
    },
    {
      "inputs": [],
      "name": "bFactory",
      "outputs": [
        {
          "internalType": "contract IBFactory",
          "name": "",
          "type": "address"
        }
      ],
      "stateMutability": "view",
      "type": "function"
    },
    {
      "inputs": [],
      "name": "bPool",
      "outputs": [
        {
          "internalType": "contract IBPool",
          "name": "",
          "type": "address"
        }
      ],
      "stateMutability": "view",
      "type": "function"
    },
    {
      "inputs": [
        {
          "internalType": "address",
          "name": "account",
          "type": "address"
        }
      ],
      "name": "balanceOf",
      "outputs": [
        {
          "internalType": "uint256",
          "name": "",
          "type": "uint256"
        }
      ],
      "stateMutability": "view",
      "type": "function"
    },
    {
      "inputs": [],
      "name": "bspCap",
      "outputs": [
        {
          "internalType": "uint256",
          "name": "",
          "type": "uint256"
        }
      ],
      "stateMutability": "view",
      "type": "function"
    },
    {
      "inputs": [
        {
          "internalType": "address",
          "name": "provider",
          "type": "address"
        }
      ],
      "name": "canProvideLiquidity",
      "outputs": [
        {
          "internalType": "bool",
          "name": "",
          "type": "bool"
        }
      ],
      "stateMutability": "view",
      "type": "function"
    },
    {
      "inputs": [],
      "name": "decimals",
      "outputs": [
        {
          "internalType": "uint8",
          "name": "",
          "type": "uint8"
        }
      ],
      "stateMutability": "pure",
      "type": "function"
    },
    {
      "inputs": [
        {
          "internalType": "address",
          "name": "spender",
          "type": "address"
        },
        {
          "internalType": "uint256",
          "name": "amount",
          "type": "uint256"
        }
      ],
      "name": "decreaseApproval",
      "outputs": [
        {
          "internalType": "bool",
          "name": "",
          "type": "bool"
        }
      ],
      "stateMutability": "nonpayable",
      "type": "function"
    },
    {
      "inputs": [],
      "name": "getController",
      "outputs": [
        {
          "internalType": "address",
          "name": "",
          "type": "address"
        }
      ],
      "stateMutability": "view",
      "type": "function"
    },
    {
      "inputs": [
        {
          "internalType": "address",
          "name": "token",
          "type": "address"
        }
      ],
      "name": "getDenormalizedWeight",
      "outputs": [
        {
          "internalType": "uint256",
          "name": "",
          "type": "uint256"
        }
      ],
      "stateMutability": "view",
      "type": "function"
    },
    {
      "inputs": [],
      "name": "gradualUpdate",
      "outputs": [
        {
          "internalType": "uint256",
          "name": "startBlock",
          "type": "uint256"
        },
        {
          "internalType": "uint256",
          "name": "endBlock",
          "type": "uint256"
        }
      ],
      "stateMutability": "view",
      "type": "function"
    },
    {
      "inputs": [
        {
          "internalType": "address",
          "name": "spender",
          "type": "address"
        },
        {
          "internalType": "uint256",
          "name": "amount",
          "type": "uint256"
        }
      ],
      "name": "increaseApproval",
      "outputs": [
        {
          "internalType": "bool",
          "name": "",
          "type": "bool"
        }
      ],
      "stateMutability": "nonpayable",
      "type": "function"
    },
    {
      "inputs": [],
      "name": "isPublicSwap",
      "outputs": [
        {
          "internalType": "bool",
          "name": "",
          "type": "bool"
        }
      ],
      "stateMutability": "view",
      "type": "function"
    },
    {
      "inputs": [],
      "name": "minimumWeightChangeBlockPeriod",
      "outputs": [
        {
          "internalType": "uint256",
          "name": "",
          "type": "uint256"
        }
      ],
      "stateMutability": "view",
      "type": "function"
    },
    {
      "inputs": [],
      "name": "name",
      "outputs": [
        {
          "internalType": "string",
          "name": "",
          "type": "string"
        }
      ],
      "stateMutability": "view",
      "type": "function"
    },
    {
      "inputs": [],
      "name": "newToken",
      "outputs": [
        {
          "internalType": "address",
          "name": "addr",
          "type": "address"
        },
        {
          "internalType": "bool",
          "name": "isCommitted",
          "type": "bool"
        },
        {
          "internalType": "uint256",
          "name": "commitBlock",
          "type": "uint256"
        },
        {
          "internalType": "uint256",
          "name": "denorm",
          "type": "uint256"
        },
        {
          "internalType": "uint256",
          "name": "balance",
          "type": "uint256"
        }
      ],
      "stateMutability": "view",
      "type": "function"
    },
    {
      "inputs": [
        {
          "internalType": "address[]",
          "name": "providers",
          "type": "address[]"
        }
      ],
      "name": "removeWhitelistedLiquidityProvider",
      "outputs": [],
      "stateMutability": "nonpayable",
      "type": "function"
    },
    {
      "inputs": [],
      "name": "rights",
      "outputs": [
        {
          "internalType": "bool",
          "name": "canPauseSwapping",
          "type": "bool"
        },
        {
          "internalType": "bool",
          "name": "canChangeSwapFee",
          "type": "bool"
        },
        {
          "internalType": "bool",
          "name": "canChangeWeights",
          "type": "bool"
        },
        {
          "internalType": "bool",
          "name": "canAddRemoveTokens",
          "type": "bool"
        },
        {
          "internalType": "bool",
          "name": "canWhitelistLPs",
          "type": "bool"
        },
        {
          "internalType": "bool",
          "name": "canChangeCap",
          "type": "bool"
        },
        {
          "internalType": "bool",
          "name": "canChangeProtocolFee",
          "type": "bool"
        }
      ],
      "stateMutability": "view",
      "type": "function"
    },
    {
      "inputs": [
        {
          "internalType": "address",
          "name": "accessAddress",
          "type": "address"
        }
      ],
      "name": "setAccessControlAddress",
      "outputs": [],
      "stateMutability": "nonpayable",
      "type": "function"
    },
    {
      "inputs": [
        {
          "internalType": "bool",
          "name": "_canChangeSwapFee",
          "type": "bool"
        }
      ],
      "name": "setCanWhitelistLPs",
      "outputs": [],
      "stateMutability": "nonpayable",
      "type": "function"
    },
    {
      "inputs": [
        {
          "internalType": "address",
          "name": "newOwner",
          "type": "address"
        }
      ],
      "name": "setController",
      "outputs": [],
      "stateMutability": "nonpayable",
      "type": "function"
    },
    {
      "inputs": [
        {
          "internalType": "uint256",
          "name": "protocolFee",
          "type": "uint256"
        }
      ],
      "name": "setProtocolFee",
      "outputs": [],
      "stateMutability": "nonpayable",
      "type": "function"
    },
    {
      "inputs": [
        {
          "internalType": "bool",
          "name": "publicSwap",
          "type": "bool"
        }
      ],
      "name": "setPublicSwap",
      "outputs": [],
      "stateMutability": "nonpayable",
      "type": "function"
    },
    {
      "inputs": [
        {
          "internalType": "bytes32[]",
          "name": "roles",
          "type": "bytes32[]"
        }
      ],
      "name": "setRoles",
      "outputs": [],
      "stateMutability": "nonpayable",
      "type": "function"
    },
    {
      "inputs": [
        {
          "internalType": "uint256",
          "name": "swapFee",
          "type": "uint256"
        }
      ],
      "name": "setSwapFee",
      "outputs": [],
      "stateMutability": "nonpayable",
      "type": "function"
    },
    {
      "inputs": [],
      "name": "symbol",
      "outputs": [
        {
          "internalType": "string",
          "name": "",
          "type": "string"
        }
      ],
      "stateMutability": "view",
      "type": "function"
    },
    {
      "inputs": [],
      "name": "totalSupply",
      "outputs": [
        {
          "internalType": "uint256",
          "name": "",
          "type": "uint256"
        }
      ],
      "stateMutability": "view",
      "type": "function"
    },
    {
      "inputs": [
        {
          "internalType": "address",
          "name": "recipient",
          "type": "address"
        },
        {
          "internalType": "uint256",
          "name": "amount",
          "type": "uint256"
        }
      ],
      "name": "transfer",
      "outputs": [
        {
          "internalType": "bool",
          "name": "",
          "type": "bool"
        }
      ],
      "stateMutability": "nonpayable",
      "type": "function"
    },
    {
      "inputs": [
        {
          "internalType": "address",
          "name": "sender",
          "type": "address"
        },
        {
          "internalType": "address",
          "name": "recipient",
          "type": "address"
        },
        {
          "internalType": "uint256",
          "name": "amount",
          "type": "uint256"
        }
      ],
      "name": "transferFrom",
      "outputs": [
        {
          "internalType": "bool",
          "name": "",
          "type": "bool"
        }
      ],
      "stateMutability": "nonpayable",
      "type": "function"
    },
    {
      "inputs": [
        {
          "internalType": "address[]",
          "name": "providers",
          "type": "address[]"
        }
      ],
      "name": "whitelistLiquidityProvider",
      "outputs": [],
      "stateMutability": "nonpayable",
      "type": "function"
    }
  ],
  "transactionHash": "0x84e2679ace115b30b2a8b6d9e116586f85d714eba2f453e06a8a06951e00c6c5",
  "args": [],
  "solcInputHash": "3ab02400ec88730fc886e6b58fe6ae75",
  "bytecode": "0x60806040523480156200001157600080fd5b506040518060400160405280600381526020016208c86b60eb1b8152506040518060400160405280600381526020016208c86b60eb1b81525081600390805190602001906200006292919062000098565b5080516200007890600490602084019062000098565b5050600580546001600160a01b0319163317905550600160065562000134565b828054600181600116156101000203166002900490600052602060002090601f016020900481019282601f10620000db57805160ff19168380011785556200010b565b828001600101855582156200010b579182015b828111156200010b578251825591602001919060010190620000ee565b50620001199291506200011d565b5090565b5b808211156200011957600081556001016200011e565b6122d880620001446000396000f3fe608060405234801561001057600080fd5b506004361061021c5760003560e01c80638cc3780111610125578063c2a14eb5116100ad578063e7f1a5541161007c578063e7f1a5541461078f578063e854f53d14610797578063e8d56b8b1461079f578063f226b528146107c5578063fde924f7146107cd5761021c565b8063c2a14eb5146106d9578063c42bd05a146106f8578063d73dd62314610735578063dd62ed3e146107615761021c565b8063980e8db6116100f4578063980e8db61461064d578063a3f4df7e14610695578063a835a0de1461069d578063a9059cbb146106a5578063b64ef17b146106d15761021c565b80638cc378011461058b57806392eefe9b146105f9578063948d8ce61461061f57806395d89b41146106455761021c565b806334e19907116101a857806366476661116101775780636647666114610413578063691a91c21461048157806370a0823114610522578063787dce3d14610548578063806c6f87146105655761021c565b806334e199071461038857806349b59552146103a75780635a8342d8146103c657806366188463146103e75761021c565b806318160ddd116101ef57806318160ddd1461031c57806323b872dd146103245780632e0f26251461035a5780633018205f14610378578063313ce567146103805761021c565b806306fdde0314610221578063095ea7b31461029e5780630a165940146102de5780630ce2792514610302575b600080fd5b6102296107d5565b6040805160208082528351818301528351919283929083019185019080838360005b8381101561026357818101518382015260200161024b565b50505050905090810190601f1680156102905780820380516001836020036101000a031916815260200191505b509250505060405180910390f35b6102ca600480360360408110156102b457600080fd5b506001600160a01b03813516906020013561086b565b604080519115158252519081900360200190f35b6102e66108bf565b604080516001600160a01b039092168252519081900360200190f35b61030a6108ce565b60408051918252519081900360200190f35b61030a6108d4565b6102ca6004803603606081101561033a57600080fd5b506001600160a01b038135811691602081013590911690604001356108da565b610362610a58565b6040805160ff9092168252519081900360200190f35b6102e6610a5d565b610362610a6c565b6103a56004803603602081101561039e57600080fd5b5035610a71565b005b6103a5600480360360208110156103bd57600080fd5b50351515610c89565b6103ce610e75565b6040805192835260208301919091528051918290030190f35b6102ca600480360360408110156103fd57600080fd5b506001600160a01b038135169060200135610e7e565b6103a56004803603602081101561042957600080fd5b810190602081018135600160201b81111561044357600080fd5b82018360208201111561045557600080fd5b803590602001918460208302840111600160201b8311171561047657600080fd5b509092509050610f55565b6103a56004803603602081101561049757600080fd5b810190602081018135600160201b8111156104b157600080fd5b8201836020820111156104c357600080fd5b803590602001918460208302840111600160201b831117156104e457600080fd5b9190808060200260200160405190810160405280939291908181526020018383602002808284376000920191909152509295506111ab945050505050565b61030a6004803603602081101561053857600080fd5b50356001600160a01b0316611380565b6103a56004803603602081101561055e57600080fd5b503561139f565b6102ca6004803603602081101561057b57600080fd5b50356001600160a01b0316611586565b6103a5600480360360208110156105a157600080fd5b810190602081018135600160201b8111156105bb57600080fd5b8201836020820111156105cd57600080fd5b803590602001918460208302840111600160201b831117156105ee57600080fd5b5090925090506115cf565b6103a56004803603602081101561060f57600080fd5b50356001600160a01b03166117ca565b61030a6004803603602081101561063557600080fd5b50356001600160a01b03166118c8565b6102296119e3565b610655611a44565b604080519715158852951515602088015293151586860152911515606086015215156080850152151560a0840152151560c0830152519081900360e00190f35b610229611a8d565b61030a611abc565b6102ca600480360360408110156106bb57600080fd5b506001600160a01b038135169060200135611ac2565b6102e6611b26565b6103a5600480360360208110156106ef57600080fd5b50351515611b35565b610700611cfa565b604080516001600160a01b03909616865293151560208601528484019290925260608401526080830152519081900360a00190f35b6102ca6004803603604081101561074b57600080fd5b506001600160a01b038135169060200135611d21565b61030a6004803603604081101561077757600080fd5b506001600160a01b0381358116916020013516611da2565b61030a611dcd565b61030a611dd3565b6103a5600480360360208110156107b557600080fd5b50356001600160a01b0316611dd9565b61030a611fb6565b6102ca611fbd565b60048054604080516020601f60026000196101006001881615020190951694909404938401819004810282018101909252828152606093909290918301828280156108615780601f1061083657610100808354040283529160200191610861565b820191906000526020600020905b81548152906001019060200180831161084457829003601f168201915b5050505050905090565b3360008181526002602090815260408083206001600160a01b03871680855290835281842086905581518681529151939490939092600080516020612283833981519152928290030190a350600192915050565b6007546001600160a01b031681565b601a5481565b60005490565b60006001600160a01b03831661092a576040805162461bcd60e51b815260206004820152601060248201526f4552525f5a45524f5f4144445245535360801b604482015290519081900360640190fd5b336001600160a01b038516148061096457506001600160a01b03841660009081526002602090815260408083203384529091529020548211155b6109ae576040805162461bcd60e51b815260206004820152601660248201527522a9292fa821aa27a5a2a72fa120a22fa1a0a62622a960511b604482015290519081900360640190fd5b6109b98484846120d8565b6001600160a01b03841660008181526002602090815260408083203380855292529091205491148015906109ef57506000198114155b15610a4d576109fe8184612186565b6001600160a01b03868116600090815260026020908152604080832033808552908352928190208590558051948552519288169391926000805160206122838339815191529281900390910190a35b506001949350505050565b601281565b6005546001600160a01b031690565b601290565b336001600160a01b03166000356001600160e01b0319166001600160e01b03191660003660405180806020018281038252848482818152602001925080828437600083820152604051601f909101601f19169092018290039550909350505050a260026006541415610b18576040805162461bcd60e51b815260206004820152600b60248201526a4552525f5245454e54525960a81b604482015290519081900360640190fd5b60026006556005546001600160a01b03163314610b71576040805162461bcd60e51b815260206004820152601260248201527122a9292fa727aa2fa1a7a72a2927a62622a960711b604482015290519081900360640190fd5b6008546001600160a01b0316610bc0576040805162461bcd60e51b815260206004820152600f60248201526e11549497d393d517d0d49150551151608a1b604482015290519081900360640190fd5b600954610100900460ff16610c1c576040805162461bcd60e51b815260206004820152601d60248201527f4552525f4e4f545f434f4e464947555241424c455f535741505f464545000000604482015290519081900360640190fd5b600854604080516334e1990760e01b81526004810184905290516001600160a01b03909216916334e199079160248082019260009290919082900301818387803b158015610c6957600080fd5b505af1158015610c7d573d6000803e3d6000fd5b50506001600655505050565b336001600160a01b03166000356001600160e01b0319166001600160e01b03191660003660405180806020018281038252848482818152602001925080828437600083820152604051601f909101601f19169092018290039550909350505050a260026006541415610d30576040805162461bcd60e51b815260206004820152600b60248201526a4552525f5245454e54525960a81b604482015290519081900360640190fd5b60026006556005546001600160a01b03163314610d89576040805162461bcd60e51b815260206004820152601260248201527122a9292fa727aa2fa1a7a72a2927a62622a960711b604482015290519081900360640190fd5b6008546001600160a01b0316610dd8576040805162461bcd60e51b815260206004820152600f60248201526e11549497d393d517d0d49150551151608a1b604482015290519081900360640190fd5b60095460ff16610e27576040805162461bcd60e51b815260206004820152601560248201527404552525f4e4f545f5041555341424c455f5357415605c1b604482015290519081900360640190fd5b600854604080516324dacaa960e11b8152831515600482015290516001600160a01b03909216916349b595529160248082019260009290919082900301818387803b158015610c6957600080fd5b600a54600b5482565b3360009081526002602090815260408083206001600160a01b0386168452909152812054808310610ed2573360009081526002602090815260408083206001600160a01b0388168452909152812055610f01565b610edc8184612186565b3360009081526002602090815260408083206001600160a01b03891684529091529020555b3360008181526002602090815260408083206001600160a01b038916808552908352928190205481519081529051929392600080516020612283833981519152929181900390910190a35060019392505050565b6005546001600160a01b03163314610fa9576040805162461bcd60e51b815260206004820152601260248201527122a9292fa727aa2fa1a7a72a2927a62622a960711b604482015290519081900360640190fd5b60026006541415610fef576040805162461bcd60e51b815260206004820152600b60248201526a4552525f5245454e54525960a81b604482015290519081900360640190fd5b6002600655604080516020808252369082018190523392600080356001600160e01b0319169390929181908101848480828437600083820152604051601f909101601f19169092018290039550909350505050a2600954600160201b900460ff1661109c576040805162461bcd60e51b81526020600482015260186024820152774552525f43414e4e4f545f57484954454c4953545f4c505360401b604482015290519081900360640190fd5b60005b818110156111a15760008383838181106110b557fe5b602090810292909201356001600160a01b0316600081815260199093526040909220549192505060ff16611129576040805162461bcd60e51b815260206004820152601660248201527511549497d31417d393d517d5d2125511531254d5115160521b604482015290519081900360640190fd5b6001600160a01b03811661117a576040805162461bcd60e51b81526020600482015260136024820152724552525f494e56414c49445f4144445245535360681b604482015290519081900360640190fd5b6001600160a01b03166000908152601960205260409020805460ff1916905560010161109f565b5050600160065550565b336001600160a01b03166000356001600160e01b0319166001600160e01b03191660003660405180806020018281038252848482818152602001925080828437600083820152604051601f909101601f19169092018290039550909350505050a260026006541415611252576040805162461bcd60e51b815260206004820152600b60248201526a4552525f5245454e54525960a81b604482015290519081900360640190fd5b60026006556005546001600160a01b031633146112ab576040805162461bcd60e51b815260206004820152601260248201527122a9292fa727aa2fa1a7a72a2927a62622a960711b604482015290519081900360640190fd5b6008546001600160a01b03166112fa576040805162461bcd60e51b815260206004820152600f60248201526e11549497d393d517d0d49150551151608a1b604482015290519081900360640190fd5b60085460405163348d48e160e11b81526020600482018181528451602484015284516001600160a01b039094169363691a91c29386938392604490920191818601910280838360005b8381101561135b578181015183820152602001611343565b5050505090500192505050600060405180830381600087803b158015610c6957600080fd5b6001600160a01b0381166000908152600160205260409020545b919050565b336001600160a01b03166000356001600160e01b0319166001600160e01b03191660003660405180806020018281038252848482818152602001925080828437600083820152604051601f909101601f19169092018290039550909350505050a260026006541415611446576040805162461bcd60e51b815260206004820152600b60248201526a4552525f5245454e54525960a81b604482015290519081900360640190fd5b60026006556005546001600160a01b0316331461149f576040805162461bcd60e51b815260206004820152601260248201527122a9292fa727aa2fa1a7a72a2927a62622a960711b604482015290519081900360640190fd5b6008546001600160a01b03166114ee576040805162461bcd60e51b815260206004820152600f60248201526e11549497d393d517d0d49150551151608a1b604482015290519081900360640190fd5b6009546601000000000000900460ff166115395760405162461bcd60e51b81526004018080602001828103825260218152602001806122626021913960400191505060405180910390fd5b6008546040805163787dce3d60e01b81526004810184905290516001600160a01b039092169163787dce3d9160248082019260009290919082900301818387803b158015610c6957600080fd5b600954600090600160201b900460ff16156115bd57506001600160a01b03811660009081526019602052604090205460ff1661139a565b506001600160a01b038116151561139a565b6005546001600160a01b03163314611623576040805162461bcd60e51b815260206004820152601260248201527122a9292fa727aa2fa1a7a72a2927a62622a960711b604482015290519081900360640190fd5b60026006541415611669576040805162461bcd60e51b815260206004820152600b60248201526a4552525f5245454e54525960a81b604482015290519081900360640190fd5b6002600655604080516020808252369082018190523392600080356001600160e01b0319169390929181908101848480828437600083820152604051601f909101601f19169092018290039550909350505050a2600954600160201b900460ff16611716576040805162461bcd60e51b81526020600482015260186024820152774552525f43414e4e4f545f57484954454c4953545f4c505360401b604482015290519081900360640190fd5b60005b818110156111a157600083838381811061172f57fe5b905060200201356001600160a01b0316905060006001600160a01b0316816001600160a01b0316141561179f576040805162461bcd60e51b81526020600482015260136024820152724552525f494e56414c49445f4144445245535360681b604482015290519081900360640190fd5b6001600160a01b03166000908152601960205260409020805460ff1916600190811790915501611719565b6005546001600160a01b0316331461181e576040805162461bcd60e51b815260206004820152601260248201527122a9292fa727aa2fa1a7a72a2927a62622a960711b604482015290519081900360640190fd5b6001600160a01b03811661186c576040805162461bcd60e51b815260206004820152601060248201526f4552525f5a45524f5f4144445245535360801b604482015290519081900360640190fd5b6005546040516001600160a01b038084169216907f8be0079c531659141344cd1fd0a4f28419497f9722a3daafe3b4186f6b6457e090600090a3600580546001600160a01b0319166001600160a01b0392909216919091179055565b600060026006541415611915576040805162461bcd60e51b815260206004820152601060248201526f4552525f5245454e5452595f5649455760801b604482015290519081900360640190fd5b6008546001600160a01b0316611964576040805162461bcd60e51b815260206004820152600f60248201526e11549497d393d517d0d49150551151608a1b604482015290519081900360640190fd5b60085460408051634a46c67360e11b81526001600160a01b0385811660048301529151919092169163948d8ce6916024808301926020929190829003018186803b1580156119b157600080fd5b505afa1580156119c5573d6000803e3d6000fd5b505050506040513d60208110156119db57600080fd5b505192915050565b60038054604080516020601f60026000196101006001881615020190951694909404938401819004810282018101909252828152606093909290918301828280156108615780601f1061083657610100808354040283529160200191610861565b60095460ff80821691610100810482169162010000820481169163010000008104821691600160201b820481169165010000000000810482169166010000000000009091041687565b6040518060400160405280601381526020017210985b185b98d95c8814db585c9d08141bdbdb606a1b81525081565b6101f481565b60006001600160a01b038316611b12576040805162461bcd60e51b815260206004820152601060248201526f4552525f5a45524f5f4144445245535360801b604482015290519081900360640190fd5b611b1d3384846120d8565b50600192915050565b6008546001600160a01b031681565b336001600160a01b03166000356001600160e01b0319166001600160e01b03191660003660405180806020018281038252848482818152602001925080828437600083820152604051601f909101601f19169092018290039550909350505050a260026006541415611bdc576040805162461bcd60e51b815260206004820152600b60248201526a4552525f5245454e54525960a81b604482015290519081900360640190fd5b60026006556005546001600160a01b03163314611c35576040805162461bcd60e51b815260206004820152601260248201527122a9292fa727aa2fa1a7a72a2927a62622a960711b604482015290519081900360640190fd5b6008546001600160a01b0316611c84576040805162461bcd60e51b815260206004820152600f60248201526e11549497d393d517d0d49150551151608a1b604482015290519081900360640190fd5b60095460ff600160201b909104161515811514611cd6576040805162461bcd60e51b815260206004820152600b60248201526a1053149150511657d4d15560aa1b604482015290519081900360640190fd5b60098054911515600160201b0264ff00000000199092169190911790556001600655565b600e54600f546010546011546001600160a01b03841693600160a01b900460ff1692919085565b3360009081526002602090815260408083206001600160a01b0386168452909152812054611d4f90836121e8565b3360008181526002602090815260408083206001600160a01b038916808552908352928190208590558051948552519193600080516020612283833981519152929081900390910190a350600192915050565b6001600160a01b03918216600090815260026020908152604080832093909416825291909152205490565b60185481565b60175481565b336001600160a01b03166000356001600160e01b0319166001600160e01b03191660003660405180806020018281038252848482818152602001925080828437600083820152604051601f909101601f19169092018290039550909350505050a260026006541415611e80576040805162461bcd60e51b815260206004820152600b60248201526a4552525f5245454e54525960a81b604482015290519081900360640190fd5b60026006556005546001600160a01b03163314611ed9576040805162461bcd60e51b815260206004820152601260248201527122a9292fa727aa2fa1a7a72a2927a62622a960711b604482015290519081900360640190fd5b6008546001600160a01b0316611f28576040805162461bcd60e51b815260206004820152600f60248201526e11549497d393d517d0d49150551151608a1b604482015290519081900360640190fd5b6008546040805163e8d56b8b60e01b81526001600160a01b0384811660048301529151919092169163e8d56b8b91602480830192600092919082900301818387803b158015611f7657600080fd5b505af1158015611f8a573d6000803e3d6000fd5b5050601480546001600160a01b0319166001600160a01b03949094169390931790925550506001600655565b62015f9081565b60006002600654141561200a576040805162461bcd60e51b815260206004820152601060248201526f4552525f5245454e5452595f5649455760801b604482015290519081900360640190fd5b6008546001600160a01b0316612059576040805162461bcd60e51b815260206004820152600f60248201526e11549497d393d517d0d49150551151608a1b604482015290519081900360640190fd5b600860009054906101000a90046001600160a01b03166001600160a01b031663fde924f76040518163ffffffff1660e01b815260040160206040518083038186803b1580156120a757600080fd5b505afa1580156120bb573d6000803e3d6000fd5b505050506040513d60208110156120d157600080fd5b5051905090565b6001600160a01b0383166000908152600160205260409020546120fb9082612186565b6001600160a01b03808516600090815260016020526040808220939093559084168152205461212a90826121e8565b6001600160a01b0380841660008181526001602090815260409182902094909455805185815290519193928716927fddf252ad1be2c89b69c2b068fc378daa952ba7f163c4a11628f55a4df523b3ef92918290030190a3505050565b6000806000612195858561223c565b9150915080156121e0576040805162461bcd60e51b81526020600482015260116024820152704552525f5355425f554e444552464c4f5760781b604482015290519081900360640190fd5b509392505050565b600082820183811015612235576040805162461bcd60e51b815260206004820152601060248201526f4552525f4144445f4f564552464c4f5760801b604482015290519081900360640190fd5b9392505050565b600080838311612252575050808203600061225a565b505081810360015b925092905056fe4552525f4e4f545f434f4e464947555241424c455f50524f544f434f4c5f4645458c5be1e5ebec7d5bd14f71427d1e84f3dd0314c0f7b2291e5b200ac8c7c3b925a26469706673582212209e3d93fb2c583f87c5e7b5f65e7120cd6baef6f48cb337b1e817fe053019930264736f6c634300060c0033",
  "devdoc": {
    "kind": "dev",
    "methods": {
      "allowance(address,address)": {
        "params": {
          "owner": "- owner of the tokens",
          "spender": "- entity allowed to spend the tokens"
        },
        "returns": {
          "_0": "uint - remaining amount spender is allowed to transfer"
        }
      },
      "approve(address,uint256)": {
        "details": "emits an Approval event",
        "params": {
          "amount": "- number of tokens being approved",
          "spender": "- entity the owner (sender) is approving to spend his tokens"
        },
        "returns": {
          "_0": "bool - result of the approval (will always be true if it doesn't revert)"
        }
      },
      "balanceOf(address)": {
        "params": {
          "account": "- address we're checking the balance of"
        },
        "returns": {
          "_0": "uint - token balance in the account"
        }
      },
      "canProvideLiquidity(address)": {
        "details": "If the whitelist feature is not enabled, anyone can provide liquidity (assuming finalized)",
        "returns": {
          "_0": "boolean value indicating whether the address can join a pool"
        }
      },
      "decimals()": {
        "details": "Returns the number of decimals used to get its user representation. For example, if `decimals` equals `2`, a balance of `505` tokens should be displayed to a user as `5,05` (`505 / 10 ** 2`). Tokens usually opt for a value of 18, imitating the relationship between Ether and Wei. This is the value {ERC20} uses, unless {_setupDecimals} is called. NOTE: This information is only used for _display_ purposes: it in no way affects any of the arithmetic of the contract, including {IERC20-balanceOf} and {IERC20-transfer}."
      },
      "decreaseApproval(address,uint256)": {
        "details": "emits an Approval eventIf you try to decrease it below the current limit, it's just set to zero (not an error)",
        "params": {
          "amount": "- number of tokens being approved",
          "spender": "- entity the owner (sender) is approving to spend his tokens"
        },
        "returns": {
          "_0": "bool - result of the approval (will always be true if it doesn't revert)"
        }
      },
      "getController()": {
        "details": "external for gas optimization",
        "returns": {
          "_0": "address - of the owner (AKA controller)"
        }
      },
      "getDenormalizedWeight(address)": {
        "details": "viewlock to prevent calling if it's being updated",
        "returns": {
          "_0": "token weight"
        }
      },
      "increaseApproval(address,uint256)": {
        "details": "emits an Approval event",
        "params": {
          "amount": "- number of tokens being approved",
          "spender": "- entity the owner (sender) is approving to spend his tokens"
        },
        "returns": {
          "_0": "bool - result of the approval (will always be true if it doesn't revert)"
        }
      },
      "isPublicSwap()": {
        "details": "viewLock, because setPublicSwap is lock      bPool is a contract interface; function calls on it are external",
        "returns": {
          "_0": "Current value of isPublicSwap"
        }
      },
      "name()": {
        "details": "Returns the name of the token.      We allow the user to set this name (as well as the symbol).      Alternatives are 1) A fixed string (original design)                       2) A fixed string plus the user-defined symbol                          return string(abi.encodePacked(NAME, \"-\", _symbol));"
      },
      "removeWhitelistedLiquidityProvider(address[])": {
        "params": {
          "providers": "- addresses of the liquidity provider"
        }
      },
      "setController(address)": {
        "details": "external for gas optimization",
        "params": {
          "newOwner": "- address of new owner"
        }
      },
      "setPublicSwap(bool)": {
        "details": "If this smart pool has canPauseSwapping enabled, we can turn publicSwap off if it's already on      Note that if they turn swapping off - but then finalize the pool - finalizing will turn the      swapping back on. They're not supposed to finalize the underlying pool... would defeat the      smart pool functions. (Only the owner can finalize the pool - which is this contract -      so there is no risk from outside.)      bPool is a contract interface; function calls on it are external",
        "params": {
          "publicSwap": "new value of the swap"
        }
      },
      "setSwapFee(uint256)": {
        "details": "Keep the local version and core in sync (see below)      bPool is a contract interface; function calls on it are external",
        "params": {
          "swapFee": "in Wei"
        }
      },
      "symbol()": {
        "details": "Returns the symbol of the token, usually a shorter version of the name."
      },
      "totalSupply()": {
        "details": "declared external for gas optimization",
        "returns": {
          "_0": "uint - total number of tokens in existence"
        }
      },
      "transfer(address,uint256)": {
        "details": "_move emits a Transfer event if successful",
        "params": {
          "amount": "- number of tokens being transferred",
          "recipient": "- entity receiving the tokens"
        },
        "returns": {
          "_0": "bool - result of the transfer (will always be true if it doesn't revert)"
        }
      },
      "transferFrom(address,address,uint256)": {
        "details": "_move emits a Transfer event if successful; may also emit an Approval event",
        "params": {
          "amount": "- number of tokens being transferred",
          "recipient": "- recipient of the tokens",
          "sender": "- entity sending the tokens (must be caller or allowed to spend on behalf of caller)"
        },
        "returns": {
          "_0": "bool - result of the transfer (will always be true if it doesn't revert)"
        }
      },
      "whitelistLiquidityProvider(address[])": {
        "params": {
          "providers": "- addresses of the liquidity provider"
        }
      }
    },
    "version": 1
  },
  "userdoc": {
    "kind": "user",
    "methods": {
      "allowance(address,address)": {
        "notice": "Getter for allowance: amount spender will be allowed to spend on behalf of owner"
      },
      "approve(address,uint256)": {
        "notice": "Approve owner (sender) to spend a certain amount"
      },
      "balanceOf(address)": {
        "notice": "Getter for current account balance"
      },
      "canProvideLiquidity(address)": {
        "notice": "Check if an address is a liquidity provider"
      },
      "decreaseApproval(address,uint256)": {
        "notice": "Decrease the amount the spender is allowed to spend on behalf of the owner (sender)"
      },
      "getController()": {
        "notice": "Returns the address of the current owner"
      },
      "getDenormalizedWeight(address)": {
        "notice": "Get the denormalized weight of a token"
      },
      "increaseApproval(address,uint256)": {
        "notice": "Increase the amount the spender is allowed to spend on behalf of the owner (sender)"
      },
      "isPublicSwap()": {
        "notice": "Getter for the publicSwap field on the underlying pool"
      },
      "removeWhitelistedLiquidityProvider(address[])": {
        "notice": "Remove from the whitelist of liquidity providers (if enabled)"
      },
      "setController(address)": {
        "notice": "Transfers ownership of the contract to a new account (`newOwner`).         Can only be called by the current owner"
      },
      "setPublicSwap(bool)": {
        "notice": "Set the public swap flag on the underlying pool"
      },
      "setSwapFee(uint256)": {
        "notice": "Set the swap fee on the underlying pool"
      },
      "totalSupply()": {
        "notice": "Getter for the total supply"
      },
      "transfer(address,uint256)": {
        "notice": "Transfer the given amount from sender (caller) to recipient"
      },
      "transferFrom(address,address,uint256)": {
        "notice": "Transfer the given amount from sender to recipient"
      },
      "whitelistLiquidityProvider(address[])": {
        "notice": "Add to the whitelist of liquidity providers (if enabled)"
      }
    },
    "version": 1
  },
  "storageLayout": {
    "storage": [
      {
        "astId": 5481,
        "contract": "contracts/ConfigurableRightsPoolExtension.sol:ConfigurableRightsPoolExtension",
        "label": "varTotalSupply",
        "offset": 0,
        "slot": "0",
        "type": "t_uint256"
      },
      {
        "astId": 5485,
        "contract": "contracts/ConfigurableRightsPoolExtension.sol:ConfigurableRightsPoolExtension",
        "label": "_balance",
        "offset": 0,
        "slot": "1",
        "type": "t_mapping(t_address,t_uint256)"
      },
      {
        "astId": 5491,
        "contract": "contracts/ConfigurableRightsPoolExtension.sol:ConfigurableRightsPoolExtension",
        "label": "_allowance",
        "offset": 0,
        "slot": "2",
        "type": "t_mapping(t_address,t_mapping(t_address,t_uint256))"
      },
      {
        "astId": 5493,
        "contract": "contracts/ConfigurableRightsPoolExtension.sol:ConfigurableRightsPoolExtension",
        "label": "_symbol",
        "offset": 0,
        "slot": "3",
        "type": "t_string_storage"
      },
      {
        "astId": 5495,
        "contract": "contracts/ConfigurableRightsPoolExtension.sol:ConfigurableRightsPoolExtension",
        "label": "_name",
        "offset": 0,
        "slot": "4",
        "type": "t_string_storage"
      },
      {
        "astId": 12020,
        "contract": "contracts/ConfigurableRightsPoolExtension.sol:ConfigurableRightsPoolExtension",
        "label": "_owner",
        "offset": 0,
        "slot": "5",
        "type": "t_address"
      },
      {
        "astId": 12098,
        "contract": "contracts/ConfigurableRightsPoolExtension.sol:ConfigurableRightsPoolExtension",
        "label": "_status",
        "offset": 0,
        "slot": "6",
        "type": "t_uint256"
      },
      {
        "astId": 4097,
        "contract": "contracts/ConfigurableRightsPoolExtension.sol:ConfigurableRightsPoolExtension",
        "label": "bFactory",
        "offset": 0,
        "slot": "7",
        "type": "t_contract(IBFactory)5435"
      },
      {
        "astId": 4099,
        "contract": "contracts/ConfigurableRightsPoolExtension.sol:ConfigurableRightsPoolExtension",
        "label": "bPool",
        "offset": 0,
        "slot": "8",
        "type": "t_contract(IBPool)5402"
      },
      {
        "astId": 4101,
        "contract": "contracts/ConfigurableRightsPoolExtension.sol:ConfigurableRightsPoolExtension",
        "label": "rights",
        "offset": 0,
        "slot": "9",
        "type": "t_struct(Rights)13040_storage"
      },
      {
        "astId": 4103,
        "contract": "contracts/ConfigurableRightsPoolExtension.sol:ConfigurableRightsPoolExtension",
        "label": "gradualUpdate",
        "offset": 0,
        "slot": "10",
        "type": "t_struct(GradualUpdateParams)13344_storage"
      },
      {
        "astId": 4105,
        "contract": "contracts/ConfigurableRightsPoolExtension.sol:ConfigurableRightsPoolExtension",
        "label": "newToken",
        "offset": 0,
        "slot": "14",
        "type": "t_struct(NewTokenParams)13333_storage"
      },
      {
        "astId": 4107,
        "contract": "contracts/ConfigurableRightsPoolExtension.sol:ConfigurableRightsPoolExtension",
        "label": "_initialSwapFee",
        "offset": 0,
        "slot": "18",
        "type": "t_uint256"
      },
      {
        "astId": 4109,
        "contract": "contracts/ConfigurableRightsPoolExtension.sol:ConfigurableRightsPoolExtension",
        "label": "_initialProtocolFee",
        "offset": 0,
        "slot": "19",
        "type": "t_uint256"
      },
      {
        "astId": 4111,
        "contract": "contracts/ConfigurableRightsPoolExtension.sol:ConfigurableRightsPoolExtension",
        "label": "_initialAccessAddress",
        "offset": 0,
        "slot": "20",
        "type": "t_address"
      },
      {
        "astId": 4114,
        "contract": "contracts/ConfigurableRightsPoolExtension.sol:ConfigurableRightsPoolExtension",
        "label": "_initialTokens",
        "offset": 0,
        "slot": "21",
        "type": "t_array(t_address)dyn_storage"
      },
      {
        "astId": 4117,
        "contract": "contracts/ConfigurableRightsPoolExtension.sol:ConfigurableRightsPoolExtension",
        "label": "_initialBalances",
        "offset": 0,
        "slot": "22",
        "type": "t_array(t_uint256)dyn_storage"
      },
      {
        "astId": 4119,
        "contract": "contracts/ConfigurableRightsPoolExtension.sol:ConfigurableRightsPoolExtension",
        "label": "minimumWeightChangeBlockPeriod",
        "offset": 0,
        "slot": "23",
        "type": "t_uint256"
      },
      {
        "astId": 4121,
        "contract": "contracts/ConfigurableRightsPoolExtension.sol:ConfigurableRightsPoolExtension",
        "label": "addTokenTimeLockInBlocks",
        "offset": 0,
        "slot": "24",
        "type": "t_uint256"
      },
      {
        "astId": 4125,
        "contract": "contracts/ConfigurableRightsPoolExtension.sol:ConfigurableRightsPoolExtension",
        "label": "_liquidityProviderWhitelist",
        "offset": 0,
        "slot": "25",
        "type": "t_mapping(t_address,t_bool)"
      },
      {
        "astId": 4127,
        "contract": "contracts/ConfigurableRightsPoolExtension.sol:ConfigurableRightsPoolExtension",
        "label": "bspCap",
        "offset": 0,
        "slot": "26",
        "type": "t_uint256"
      }
    ],
    "types": {
      "t_address": {
        "encoding": "inplace",
        "label": "address",
        "numberOfBytes": "20"
      },
      "t_array(t_address)dyn_storage": {
        "base": "t_address",
        "encoding": "dynamic_array",
        "label": "address[]",
        "numberOfBytes": "32"
      },
      "t_array(t_uint256)dyn_storage": {
        "base": "t_uint256",
        "encoding": "dynamic_array",
        "label": "uint256[]",
        "numberOfBytes": "32"
      },
      "t_bool": {
        "encoding": "inplace",
        "label": "bool",
        "numberOfBytes": "1"
      },
      "t_contract(IBFactory)5435": {
        "encoding": "inplace",
        "label": "contract IBFactory",
        "numberOfBytes": "20"
      },
      "t_contract(IBPool)5402": {
        "encoding": "inplace",
        "label": "contract IBPool",
        "numberOfBytes": "20"
      },
      "t_mapping(t_address,t_bool)": {
        "encoding": "mapping",
        "key": "t_address",
        "label": "mapping(address => bool)",
        "numberOfBytes": "32",
        "value": "t_bool"
      },
      "t_mapping(t_address,t_mapping(t_address,t_uint256))": {
        "encoding": "mapping",
        "key": "t_address",
        "label": "mapping(address => mapping(address => uint256))",
        "numberOfBytes": "32",
        "value": "t_mapping(t_address,t_uint256)"
      },
      "t_mapping(t_address,t_uint256)": {
        "encoding": "mapping",
        "key": "t_address",
        "label": "mapping(address => uint256)",
        "numberOfBytes": "32",
        "value": "t_uint256"
      },
      "t_string_storage": {
        "encoding": "bytes",
        "label": "string",
        "numberOfBytes": "32"
      },
      "t_struct(GradualUpdateParams)13344_storage": {
        "encoding": "inplace",
        "label": "struct SmartPoolManager.GradualUpdateParams",
        "members": [
          {
            "astId": 13335,
            "contract": "contracts/ConfigurableRightsPoolExtension.sol:ConfigurableRightsPoolExtension",
            "label": "startBlock",
            "offset": 0,
            "slot": "0",
            "type": "t_uint256"
          },
          {
            "astId": 13337,
            "contract": "contracts/ConfigurableRightsPoolExtension.sol:ConfigurableRightsPoolExtension",
            "label": "endBlock",
            "offset": 0,
            "slot": "1",
            "type": "t_uint256"
          },
          {
            "astId": 13340,
            "contract": "contracts/ConfigurableRightsPoolExtension.sol:ConfigurableRightsPoolExtension",
            "label": "startWeights",
            "offset": 0,
            "slot": "2",
            "type": "t_array(t_uint256)dyn_storage"
          },
          {
            "astId": 13343,
            "contract": "contracts/ConfigurableRightsPoolExtension.sol:ConfigurableRightsPoolExtension",
            "label": "endWeights",
            "offset": 0,
            "slot": "3",
            "type": "t_array(t_uint256)dyn_storage"
          }
        ],
        "numberOfBytes": "128"
      },
      "t_struct(NewTokenParams)13333_storage": {
        "encoding": "inplace",
        "label": "struct SmartPoolManager.NewTokenParams",
        "members": [
          {
            "astId": 13324,
            "contract": "contracts/ConfigurableRightsPoolExtension.sol:ConfigurableRightsPoolExtension",
            "label": "addr",
            "offset": 0,
            "slot": "0",
            "type": "t_address"
          },
          {
            "astId": 13326,
            "contract": "contracts/ConfigurableRightsPoolExtension.sol:ConfigurableRightsPoolExtension",
            "label": "isCommitted",
            "offset": 20,
            "slot": "0",
            "type": "t_bool"
          },
          {
            "astId": 13328,
            "contract": "contracts/ConfigurableRightsPoolExtension.sol:ConfigurableRightsPoolExtension",
            "label": "commitBlock",
            "offset": 0,
            "slot": "1",
            "type": "t_uint256"
          },
          {
            "astId": 13330,
            "contract": "contracts/ConfigurableRightsPoolExtension.sol:ConfigurableRightsPoolExtension",
            "label": "denorm",
            "offset": 0,
            "slot": "2",
            "type": "t_uint256"
          },
          {
            "astId": 13332,
            "contract": "contracts/ConfigurableRightsPoolExtension.sol:ConfigurableRightsPoolExtension",
            "label": "balance",
            "offset": 0,
            "slot": "3",
            "type": "t_uint256"
          }
        ],
        "numberOfBytes": "128"
      },
      "t_struct(Rights)13040_storage": {
        "encoding": "inplace",
        "label": "struct RightsManager.Rights",
        "members": [
          {
            "astId": 13027,
            "contract": "contracts/ConfigurableRightsPoolExtension.sol:ConfigurableRightsPoolExtension",
            "label": "canPauseSwapping",
            "offset": 0,
            "slot": "0",
            "type": "t_bool"
          },
          {
            "astId": 13029,
            "contract": "contracts/ConfigurableRightsPoolExtension.sol:ConfigurableRightsPoolExtension",
            "label": "canChangeSwapFee",
            "offset": 1,
            "slot": "0",
            "type": "t_bool"
          },
          {
            "astId": 13031,
            "contract": "contracts/ConfigurableRightsPoolExtension.sol:ConfigurableRightsPoolExtension",
            "label": "canChangeWeights",
            "offset": 2,
            "slot": "0",
            "type": "t_bool"
          },
          {
            "astId": 13033,
            "contract": "contracts/ConfigurableRightsPoolExtension.sol:ConfigurableRightsPoolExtension",
            "label": "canAddRemoveTokens",
            "offset": 3,
            "slot": "0",
            "type": "t_bool"
          },
          {
            "astId": 13035,
            "contract": "contracts/ConfigurableRightsPoolExtension.sol:ConfigurableRightsPoolExtension",
            "label": "canWhitelistLPs",
            "offset": 4,
            "slot": "0",
            "type": "t_bool"
          },
          {
            "astId": 13037,
            "contract": "contracts/ConfigurableRightsPoolExtension.sol:ConfigurableRightsPoolExtension",
            "label": "canChangeCap",
            "offset": 5,
            "slot": "0",
            "type": "t_bool"
          },
          {
            "astId": 13039,
            "contract": "contracts/ConfigurableRightsPoolExtension.sol:ConfigurableRightsPoolExtension",
            "label": "canChangeProtocolFee",
            "offset": 6,
            "slot": "0",
            "type": "t_bool"
          }
        ],
        "numberOfBytes": "32"
      },
      "t_uint256": {
        "encoding": "inplace",
        "label": "uint256",
        "numberOfBytes": "32"
      }
    }
  }
}