{
  "address": "0x3a22C1079fc4F6E2b784D4A182d0E63dedC3213D",
  "abi": [
    {
      "inputs": [
        {
          "internalType": "address",
          "name": "accessAddress",
          "type": "address"
        },
        {
          "internalType": "address",
          "name": "logic",
          "type": "address"
        }
      ],
      "stateMutability": "nonpayable",
      "type": "constructor"
    },
    {
      "anonymous": false,
      "inputs": [
        {
          "indexed": true,
          "internalType": "address",
          "name": "caller",
          "type": "address"
        },
        {
          "indexed": true,
          "internalType": "address",
          "name": "pool",
          "type": "address"
        }
      ],
      "name": "LogNewCrp",
      "type": "event"
    },
    {
      "inputs": [],
      "name": "getAccessControlAddress",
      "outputs": [
        {
          "internalType": "address",
          "name": "",
          "type": "address"
        }
      ],
      "stateMutability": "view",
      "type": "function"
    },
    {
      "inputs": [
        {
          "internalType": "address",
          "name": "addr",
          "type": "address"
        }
      ],
      "name": "isCrp",
      "outputs": [
        {
          "internalType": "bool",
          "name": "",
          "type": "bool"
        }
      ],
      "stateMutability": "view",
      "type": "function"
    },
    {
      "inputs": [
        {
          "internalType": "address",
          "name": "factoryAddress",
          "type": "address"
        },
        {
          "components": [
            {
              "internalType": "string",
              "name": "poolTokenSymbol",
              "type": "string"
            },
            {
              "internalType": "string",
              "name": "poolTokenName",
              "type": "string"
            },
            {
              "internalType": "address[]",
              "name": "constituentTokens",
              "type": "address[]"
            },
            {
              "internalType": "uint256[]",
              "name": "tokenBalances",
              "type": "uint256[]"
            },
            {
              "internalType": "uint256[]",
              "name": "tokenWeights",
              "type": "uint256[]"
            },
            {
              "internalType": "uint256",
              "name": "swapFee",
              "type": "uint256"
            },
            {
              "internalType": "uint256",
              "name": "protocolFee",
              "type": "uint256"
            }
          ],
          "internalType": "struct ConfigurableRightsPool.PoolParams",
          "name": "poolParams",
          "type": "tuple"
        },
        {
          "components": [
            {
              "internalType": "bool",
              "name": "canPauseSwapping",
              "type": "bool"
            },
            {
              "internalType": "bool",
              "name": "canChangeSwapFee",
              "type": "bool"
            },
            {
              "internalType": "bool",
              "name": "canChangeWeights",
              "type": "bool"
            },
            {
              "internalType": "bool",
              "name": "canAddRemoveTokens",
              "type": "bool"
            },
            {
              "internalType": "bool",
              "name": "canWhitelistLPs",
              "type": "bool"
            },
            {
              "internalType": "bool",
              "name": "canChangeCap",
              "type": "bool"
            },
            {
              "internalType": "bool",
              "name": "canChangeProtocolFee",
              "type": "bool"
            }
          ],
          "internalType": "struct RightsManager.Rights",
          "name": "rights",
          "type": "tuple"
        }
      ],
      "name": "newCrp",
      "outputs": [
        {
          "internalType": "contract ConfigurableRightsPool",
          "name": "",
          "type": "address"
        }
      ],
      "stateMutability": "nonpayable",
      "type": "function"
    },
    {
      "inputs": [
        {
          "internalType": "address",
          "name": "accessAddress",
          "type": "address"
        }
      ],
      "name": "setAccessControlAddress",
      "outputs": [],
      "stateMutability": "nonpayable",
      "type": "function"
    }
  ],
  "transactionHash": "0xff09990bf0cb0e1624672e89088a567e45872a78f6a9e94188ac7942a12acfd6",
  "args": [
    "0xFB2b87255Aac30a0B66f75330B428a62351C8A75",
    "0x5174dC75aEf03792b255398438C14ca8e0B0bb29"
  ],
  "solcInputHash": "cf8c495b5decfdc177649d0e4b03bed8",
  "bytecode": "0x608060405234801561001057600080fd5b50604051615fcb380380615fcb83398101604081905261002f91610060565b600180546001600160a01b039384166001600160a01b031991821617909155600280549290931691161790556100b1565b60008060408385031215610072578182fd5b825161007d81610099565b602084015190925061008e81610099565b809150509250929050565b6001600160a01b03811681146100ae57600080fd5b50565b615f0b806100c06000396000f3fe60806040523480156200001157600080fd5b5060043610620000525760003560e01c8063c7154c0a1462000057578063dc19e8421462000079578063e2cce565146200009f578063e8d56b8b14620000b6575b600080fd5b62000061620000cf565b60405162000070919062000780565b60405180910390f35b620000906200008a366004620005b0565b620000de565b60405162000070919062000902565b62000061620000b0366004620005d5565b620000fc565b620000cd620000c7366004620005b0565b62000397565b005b6001546001600160a01b031690565b6001600160a01b031660009081526020819052604090205460ff1690565b600154604051632474521560e21b81526000916001600160a01b0316906391d148549062000151907fa49807205ce4d355092ef5a8a18f56e8913cf4a201fbe287825b095693c217759032906004016200090d565b60206040518083038186803b1580156200016a57600080fd5b505afa1580156200017f573d6000803e3d6000fd5b505050506040513d601f19601f82011682018060405250810190620001a591906200063c565b620001cd5760405162461bcd60e51b8152600401620001c4906200095b565b60405180910390fd5b6002620001de604085018562000a9e565b90501015620002015760405162461bcd60e51b8152600401620001c49062000a72565b62000210604084018462000a9e565b905062000221606085018562000a9e565b905014620002435760405162461bcd60e51b8152600401620001c49062000a0e565b62000252604084018462000a9e565b905062000263608085018562000a9e565b905014620002855760405162461bcd60e51b8152600401620001c49062000924565b600084600260009054906101000a90046001600160a01b03168585604051620002ae906200056c565b620002bd949392919062000794565b604051809103906000f080158015620002da573d6000803e3d6000fd5b506040519091506001600160a01b0382169033907f8aaa45dbe91f274e1c80489691f3d62dbf595d587fcc6a989fa27696e7c2a23290600090a36001600160a01b03811660008181526020819052604090819020805460ff19166001179055516392eefe9b60e01b81526392eefe9b906200035a90339060040162000780565b600060405180830381600087803b1580156200037557600080fd5b505af11580156200038a573d6000803e3d6000fd5b5092979650505050505050565b600154604051632474521560e21b81526001600160a01b03909116906391d1485490620003eb907fa49807205ce4d355092ef5a8a18f56e8913cf4a201fbe287825b095693c217759032906004016200090d565b60206040518083038186803b1580156200040457600080fd5b505afa15801562000419573d6000803e3d6000fd5b505050506040513d601f19601f820116820180604052508101906200043f91906200063c565b6200045e5760405162461bcd60e51b8152600401620001c4906200095b565b6001600160a01b038116620004875760405162461bcd60e51b8152600401620001c49062000a45565b604051632474521560e21b81526001600160a01b038216906391d1485490620004d7907fa49807205ce4d355092ef5a8a18f56e8913cf4a201fbe287825b095693c217759032906004016200090d565b60206040518083038186803b158015620004f057600080fd5b505afa15801562000505573d6000803e3d6000fd5b505050506040513d601f19601f820116820180604052508101906200052b91906200063c565b6200054a5760405162461bcd60e51b8152600401620001c490620009b1565b600180546001600160a01b0319166001600160a01b0392909216919091179055565b6153298062000bad83390190565b80356001600160a01b03811681146200059257600080fd5b92915050565b600060e08284031215620005aa578081fd5b50919050565b600060208284031215620005c2578081fd5b620005ce83836200057a565b9392505050565b60008060006101208486031215620005eb578182fd5b620005f785856200057a565b9250602084013567ffffffffffffffff81111562000613578283fd5b620006218682870162000598565b92505062000633856040860162000598565b90509250925092565b6000602082840312156200064e578081fd5b8151620005ce8162000b9a565b6001600160a01b0316815260200190565b81835260006001600160fb1b0383111562000685578081fd5b6020830280836020870137939093016020019283525090919050565b15159052565b60008284528282602086013780602084860101526020601f19601f85011685010190509392505050565b8035620006de8162000b9a565b151582526020810135620006f28162000b9a565b151560208301526040810135620007098162000b9a565b151560408301526060810135620007208162000b9a565b151560608301526080810135620007378162000b9a565b151560808301526200074d60a082018262000b43565b6200075c60a0840182620006a1565b506200076c60c082018262000b43565b6200077b60c0840182620006a1565b505050565b6001600160a01b0391909116815260200190565b600061014060018060a01b038088168452602081881681860152826040860152620007c0878862000b52565b925060e084870152620007d961022087018483620006a7565b935050620007ea8188018862000b52565b925061013f19808786030161016088015262000808858584620006a7565b94506200081960408a018a62000af8565b9450915080878603016101808801528462000835858762000aef565b929550869290505b84831015620008725783860162000860826200085a838a6200057a565b6200065b565b9150809650506001830192506200083d565b6200088160608b018b62000af8565b9650945081888203016101a08901526200089d8187876200066c565b955050620008af60808a018a62000af8565b9450925080878603016101c08801525050620008cd8383836200066c565b60a08801356101e087015260c08801356102008701529350620008f992505060608401905084620006d1565b95945050505050565b901515815260200190565b9182526001600160a01b0316602082015260400190565b6020808252601a908201527f4552525f53544152545f574549474854535f4d49534d41544348000000000000604082015260600190565b60208082526036908201527f416363657373436f6e74726f6c3a2073656e646572206d75737420626520616460408201527536b4b7103a37903430bb32903832b936b4b9b9b4b7b760511b606082015260800190565b60208082526039908201527f416363657373436f6e74726f6c3a2073656e646572206d75737420626520616460408201527f6d696e206f66206e65772061636365737320636f6e74726f6c00000000000000606082015260800190565b6020808252601b908201527f4552525f53544152545f42414c414e4345535f4d49534d415443480000000000604082015260600190565b6020808252601390820152724552525f494e56414c49445f4144445245535360681b604082015260600190565b6020808252601290820152714552525f544f4f5f4645575f544f4b454e5360701b604082015260600190565b6000808335601e1984360301811262000ab5578283fd5b83018035915067ffffffffffffffff82111562000ad0578283fd5b602090810192508102360382131562000ae857600080fd5b9250929050565b90815260200190565b6000808335601e1984360301811262000b0f578283fd5b830160208101925035905067ffffffffffffffff81111562000b3057600080fd5b60208102360383131562000ae857600080fd5b60008235620005ce8162000b9a565b6000808335601e1984360301811262000b69578283fd5b830160208101925035905067ffffffffffffffff81111562000b8a57600080fd5b80360383131562000ae857600080fd5b801515811462000ba957600080fd5b5056fe60806040523480156200001157600080fd5b50604051620053293803806200532983398101604081905262000034916200086d565b815160208084015182519091620000519160039185019062000499565b5080516200006790600490602084019062000499565b5050600580546001600160a01b03191633179055506001600655620f4240670de0b6b3a7640000048260a001511015620000be5760405162461bcd60e51b8152600401620000b59062000b47565b60405180910390fd5b670de0b6b3a76400008260a001511115620000ed5760405162461bcd60e51b8152600401620000b59062000b47565b670de0b6b3a76400008260c0015111156200011c5760405162461bcd60e51b8152600401620000b59062000a50565b81604001515182606001515114620001485760405162461bcd60e51b8152600401620000b59062000a87565b81604001515182608001515114620001745760405162461bcd60e51b8152600401620000b59062000a19565b600282604001515110156200019d5760405162461bcd60e51b8152600401620000b59062000b1b565b60088260400151511115620001c65760405162461bcd60e51b8152600401620000b59062000b7e565b60408083015190516377d4434960e01b81527300098026682c3B24f9aD5e60311Ce7A0cb753b44916377d4434991620002039190600401620009ca565b60006040518083038186803b1580156200021c57600080fd5b505af415801562000231573d6000803e3d6000fd5b5050600780546001600160a01b0319166001600160a01b03881617905550508051600980546020808501516040808701516060880151608089015160a08a015160c08b015160ff199098169915159990991761ff001916610100951515959095029490941762ff0000191662010000921515929092029190911763ff00000019166301000000911515919091021760ff60201b1916640100000000921515929092029190911760ff60281b191665010000000000951515959095029490941760ff60301b191666010000000000009215159290920291909117909155908301518051620003239260159201906200051e565b50606082015180516200033f9160169160209091019062000584565b5060a082015160125560c08201516013556007546040805163638aa60560e11b815290516001600160a01b039092169163c7154c0a91600480820192602092909190829003018186803b1580156200039657600080fd5b505afa158015620003ab573d6000803e3d6000fd5b505050506040513d601f19601f82011682018060405250810190620003d1919062000848565b601480546001600160a01b0319166001600160a01b039290921691909117905562015f906017556101f4601855608082015180516200041991600c9160209091019062000584565b506000600a55600019601a5562000430836200043a565b5050505062000bfc565b62000450816200049360201b62002c1e1760201c565b6200046f5760405162461bcd60e51b8152600401620000b59062000abe565b7f360894a13ba1a3210667c828492db98dca3e2076cc3735a920a3ca505d382bbc55565b3b151590565b828054600181600116156101000203166002900490600052602060002090601f016020900481019282601f10620004dc57805160ff19168380011785556200050c565b828001600101855582156200050c579182015b828111156200050c578251825591602001919060010190620004ef565b506200051a929150620005c1565b5090565b82805482825590600052602060002090810192821562000576579160200282015b828111156200057657825182546001600160a01b0319166001600160a01b039091161782556020909201916001909101906200053f565b506200051a929150620005d8565b8280548282559060005260206000209081019282156200050c57916020028201828111156200050c578251825591602001919060010190620004ef565b5b808211156200051a5760008155600101620005c2565b5b808211156200051a5780546001600160a01b0319168155600101620005d9565b80516001600160a01b03811681146200061157600080fd5b92915050565b600082601f83011262000628578081fd5b81516200063f620006398262000bdc565b62000bb5565b8181529150602080830190848101818402860182018710156200066157600080fd5b60005b848110156200068c57620006798883620005f9565b8452928201929082019060010162000664565b505050505092915050565b600082601f830112620006a8578081fd5b8151620006b9620006398262000bdc565b818152915060208083019084810181840286018201871015620006db57600080fd5b60005b848110156200068c57815184529282019290820190600101620006de565b805180151581146200061157600080fd5b600082601f8301126200071e578081fd5b81516001600160401b0381111562000734578182fd5b60206200074a601f8301601f1916820162000bb5565b925081835284818386010111156200076157600080fd5b60005b828110156200078157848101820151848201830152810162000764565b82811115620007935760008284860101525b50505092915050565b600060e08284031215620007ae578081fd5b620007ba60e062000bb5565b9050620007c88383620006fc565b8152620007d98360208401620006fc565b6020820152620007ed8360408401620006fc565b6040820152620008018360608401620006fc565b6060820152620008158360808401620006fc565b6080820152620008298360a08401620006fc565b60a08201526200083d8360c08401620006fc565b60c082015292915050565b6000602082840312156200085a578081fd5b620008668383620005f9565b9392505050565b600080600080610140858703121562000884578283fd5b620008908686620005f9565b9350620008a18660208701620005f9565b60408601519093506001600160401b0380821115620008be578384fd5b9086019060e08289031215620008d2578384fd5b620008de60e062000bb5565b825182811115620008ed578586fd5b620008fb8a8286016200070d565b82525060208301518281111562000910578586fd5b6200091e8a8286016200070d565b60208301525060408301518281111562000936578586fd5b620009448a82860162000617565b6040830152506060830151828111156200095c578586fd5b6200096a8a82860162000697565b60608301525060808301518281111562000982578586fd5b620009908a82860162000697565b60808301525060a083015160a082015260c083015160c0820152809450505050620009bf86606087016200079c565b905092959194509250565b6020808252825182820181905260009190848201906040850190845b8181101562000a0d5783516001600160a01b031683529284019291840191600101620009e6565b50909695505050505050565b6020808252601a908201527f4552525f53544152545f574549474854535f4d49534d41544348000000000000604082015260600190565b60208082526018908201527f4552525f494e56414c49445f50524f544f434f4c5f4645450000000000000000604082015260600190565b6020808252601b908201527f4552525f53544152545f42414c414e4345535f4d49534d415443480000000000604082015260600190565b60208082526036908201527f5570677261646561626c6550726f78793a206e657720696d706c656d656e746160408201527f74696f6e206973206e6f74206120636f6e747261637400000000000000000000606082015260800190565b6020808252601290820152714552525f544f4f5f4645575f544f4b454e5360701b604082015260600190565b60208082526014908201527f4552525f494e56414c49445f535741505f464545000000000000000000000000604082015260600190565b60208082526013908201527f4552525f544f4f5f4d414e595f544f4b454e5300000000000000000000000000604082015260600190565b6040518181016001600160401b038111828210171562000bd457600080fd5b604052919050565b60006001600160401b0382111562000bf2578081fd5b5060209081020190565b61471d8062000c0c6000396000f3fe608060405234801561001057600080fd5b50600436106102a05760003560e01c80636d06dfa011610167578063a9059cbb116100ce578063d73dd62311610087578063d73dd62314610586578063dd62ed3e14610599578063e211b875146105ac578063e7f1a554146105b4578063e854f53d146105bc578063f226b528146105c4576102a0565b8063a9059cbb14610524578063b02f0b7314610537578063b64ef17b1461054a578063c275d81b14610552578063c3391d271461055a578063c42bd05a1461056d576102a0565b80639776e94b116101205780639776e94b146104d6578063980e8db6146104e95780639a82417e146105045780639d829c2b1461050c578063a3f4df7e14610514578063a835a0de1461051c576102a0565b80636d06dfa01461047a57806370a082311461048d57806374983a0d146104a05780638259e6a0146104a857806392eefe9b146104bb57806395d89b41146104ce576102a0565b8063313ce5671161020b5780634f69c0d4116101c45780634f69c0d41461040557806355c32a23146104185780635a8342d81461042b5780635db34277146104415780635fa7b584146104545780636618846314610467576102a0565b8063313ce5671461039e57806337c6f4d9146103a657806346ab38f1146103b957806347786d37146103cc5780634ba57882146103df5780634c20d209146103f2576102a0565b806318160ddd1161025d57806318160ddd14610340578063220eb7601461034857806323b872dd1461035b578063246bc19b1461036e5780632e0f2625146103815780633018205f14610396576102a0565b806302c96748146102b257806306fdde03146102db578063095dcccc146102f0578063095ea7b3146103035780630a165940146103235780630ce2792514610338575b6102b06102ab6105cc565b6105f1565b005b6102c56102c0366004613ba8565b610615565b6040516102d2919061463c565b60405180910390f35b6102e3610889565b6040516102d29190614137565b6102b06102fe366004613b7d565b61091f565b610316610311366004613b7d565b61094c565b6040516102d29190613f64565b61032b6109a4565b6040516102d29190613eaa565b6102c56109b3565b6102c56109b9565b6102b0610356366004613d5a565b6109bf565b610316610369366004613b3d565b6109ea565b6102b061037c366004613c75565b610b18565b610389610cac565b6040516102d29190614653565b61032b610cb1565b610389610cc0565b6103166103b4366004613d3b565b610cc5565b6102c56103c7366004613ba8565b610d58565b6102b06103da366004613d5a565b610fb3565b6102b06103ed366004613d5a565b6110e1565b6102b0610400366004613ba8565b611109565b6102b0610413366004613d8a565b61132a565b6102b0610426366004613b7d565b6117d3565b6104336117fc565b6040516102d2929190614645565b6102c561044f366004613ba8565b611805565b6102b0610462366004613ae9565b611a92565b610316610475366004613b7d565b611c39565b6102c5610488366004613ba8565b611d13565b6102c561049b366004613ae9565b611fa0565b61032b611fbb565b6102b06104b6366004613d5a565b611fd3565b6102b06104c9366004613ae9565b612070565b6102e361211c565b6102b06104e4366004613b7d565b61217d565b6104f16122fc565b6040516102d29796959493929190613f6f565b61032b612346565b61032b61235e565b6102e3612376565b6102c56123a5565b610316610532366004613b7d565b6123ab565b6102b0610545366004613d8a565b6123e7565b61032b612817565b6102b0612826565b6102b0610568366004613e45565b612985565b610575612a4e565b6040516102d2959493929190613efc565b610316610594366004613b7d565b612a75565b6102c56105a7366004613b05565b612ae9565b6102b0612b14565b6102c5612c0b565b6102c5612c11565b6102c5612c17565b7f360894a13ba1a3210667c828492db98dca3e2076cc3735a920a3ca505d382bbc5490565b3660008037600080366000845af43d6000803e808015610610573d6000f35b3d6000fd5b601454604051636c9b2a3f60e11b81526000916001600160a01b03169063d936547e90610646903290600401613eaa565b60206040518083038186803b15801561065e57600080fd5b505afa158015610672573d6000803e3d6000fd5b505050506040513d601f19601f820116820180604052508101906106969190613cff565b6106bb5760405162461bcd60e51b81526004016106b29061427d565b60405180910390fd5b336001600160a01b03166000356001600160e01b0319166001600160e01b0319166000366040516106ed929190613fa7565b60405180910390a2600260065414156107185760405162461bcd60e51b81526004016106b2906143a8565b60026006556008546001600160a01b03166107455760405162461bcd60e51b81526004016106b29061432a565b60085460405163724a2d5360e01b815260009182917300098026682c3B24f9aD5e60311Ce7A0cb753b449163724a2d53916107969130916001600160a01b03909116908b908b908b9060040161409b565b604080518083038186803b1580156107ad57600080fd5b505af41580156107c1573d6000803e3d6000fd5b505050506040513d601f19601f820116820180604052508101906107e59190613dd4565b9150915080925060006107f88484612c24565b9050866001600160a01b0316336001600160a01b03167fc62fc35ac75e3bff532648e2859a3e1694002cfa357614ae8e034df7f83db5e98860405161083d919061463c565b60405180910390a361084f33856117f2565b610858816109de565b60075461086e906001600160a01b03168461093e565b610879873388612c5d565b5050505b60016006559392505050565b60048054604080516020601f60026000196101006001881615020190951694909404938401819004810282018101909252828152606093909290918301828280156109155780601f106108ea57610100808354040283529160200191610915565b820191906000526020600020905b8154815290600101906020018083116108f857829003601f168201915b5050505050905090565b33301461093e5760405162461bcd60e51b81526004016106b29061418a565b6109488282612ea6565b5050565b3360008181526002602090815260408083206001600160a01b038716808552925280832085905551919290916000805160206146c88339815191529061099390869061463c565b60405180910390a350600192915050565b6007546001600160a01b031681565b601a5481565b60005490565b3330146109de5760405162461bcd60e51b81526004016106b29061418a565b6109e781612eb1565b50565b60006001600160a01b038316610a125760405162461bcd60e51b81526004016106b2906142c9565b336001600160a01b0385161480610a4c57506001600160a01b03841660009081526002602090815260408083203384529091529020548211155b610a685760405162461bcd60e51b81526004016106b290614459565b610a73848484612f2b565b6001600160a01b0384166000818152600260209081526040808320338085529252909120549114801590610aa957506000198114155b15610b0b57610ab88184612c24565b6001600160a01b0386811660009081526002602090815260408083203380855292529182902084905590519187169290916000805160206146c883398151915291610b029161463c565b60405180910390a35b60019150505b9392505050565b336001600160a01b03166000356001600160e01b0319166001600160e01b031916600036604051610b4a929190613fa7565b60405180910390a260026006541415610b755760405162461bcd60e51b81526004016106b2906143a8565b60026006556005546001600160a01b03163314610ba45760405162461bcd60e51b81526004016106b29061418a565b6008546001600160a01b0316610bcc5760405162461bcd60e51b81526004016106b29061432a565b60095462010000900460ff16610bf45760405162461bcd60e51b81526004016106b2906142f3565b600e54600160a01b900460ff1615610c1e5760405162461bcd60e51b81526004016106b290614489565b6008546017546040516304ee2fc960e21b81527300098026682c3B24f9aD5e60311Ce7A0cb753b44926313b8bf2492610c71926001600160a01b0390921691600a918a918a918a918a9190600401614007565b60006040518083038186803b158015610c8957600080fd5b505af4158015610c9d573d6000803e3d6000fd5b50506001600655505050505050565b601281565b6005546001600160a01b031690565b601290565b6040516322c1aa2560e11b8152600090739Fd5e70828D2157990A7ccB8E7AAe625fAB84de290634583544a90610d029060099086906004016145a4565b60206040518083038186803b158015610d1a57600080fd5b505af4158015610d2e573d6000803e3d6000fd5b505050506040513d601f19601f82011682018060405250810190610d529190613cff565b92915050565b601454604051636c9b2a3f60e11b81526000916001600160a01b03169063d936547e90610d89903290600401613eaa565b60206040518083038186803b158015610da157600080fd5b505afa158015610db5573d6000803e3d6000fd5b505050506040513d601f19601f82011682018060405250810190610dd99190613cff565b610df55760405162461bcd60e51b81526004016106b29061427d565b336001600160a01b03166000356001600160e01b0319166001600160e01b031916600036604051610e27929190613fa7565b60405180910390a260026006541415610e525760405162461bcd60e51b81526004016106b2906143a8565b60026006556008546001600160a01b0316610e7f5760405162461bcd60e51b81526004016106b29061432a565b600854604051636a82d4a760e11b815260009182917300098026682c3B24f9aD5e60311Ce7A0cb753b449163d505a94e91610ed09130916001600160a01b03909116908b908b908b9060040161409b565b604080518083038186803b158015610ee757600080fd5b505af4158015610efb573d6000803e3d6000fd5b505050506040513d601f19601f82011682018060405250810190610f1f9190613dd4565b915091508092506000610f328684612c24565b9050866001600160a01b0316336001600160a01b03167fc62fc35ac75e3bff532648e2859a3e1694002cfa357614ae8e034df7f83db5e986604051610f77919061463c565b60405180910390a3610f8933876117f2565b610f92816109de565b600754610fa8906001600160a01b03168461093e565b610879873386612c5d565b336001600160a01b03166000356001600160e01b0319166001600160e01b031916600036604051610fe5929190613fa7565b60405180910390a2600260065414156110105760405162461bcd60e51b81526004016106b2906143a8565b60026006556008546001600160a01b031661103d5760405162461bcd60e51b81526004016106b29061432a565b6005546001600160a01b031633146110675760405162461bcd60e51b81526004016106b29061418a565b60095465010000000000900460ff166110925760405162461bcd60e51b81526004016106b2906143cd565b336001600160a01b03167f6bc200110c7794738d401810b22ef824a2044a8ccb022d4ad8769840370331f5601a54836040516110cf929190614645565b60405180910390a2601a556001600655565b3330146111005760405162461bcd60e51b81526004016106b29061418a565b6109e781612fdc565b336001600160a01b03166000356001600160e01b0319166001600160e01b03191660003660405161113b929190613fa7565b60405180910390a2600260065414156111665760405162461bcd60e51b81526004016106b2906143a8565b60026006556005546001600160a01b031633146111955760405162461bcd60e51b81526004016106b29061418a565b6008546001600160a01b03166111bd5760405162461bcd60e51b81526004016106b29061432a565b6009546301000000900460ff166111e65760405162461bcd60e51b81526004016106b2906141b6565b600a54156112065760405162461bcd60e51b81526004016106b29061456d565b604051630e0d789b60e11b81527300098026682c3B24f9aD5e60311Ce7A0cb753b4490631c1af1369061123d908690600401613eaa565b60006040518083038186803b15801561125557600080fd5b505af4158015611269573d6000803e3d6000fd5b50506040513392503091506001600160a01b038616907f33b043686b9408a355896fe90b2f8ecc86a41d87d1554ef65a739948b4f23e2790600090a460085460405163b489ec1960e01b81527300098026682c3B24f9aD5e60311Ce7A0cb753b449163b489ec19916112f0916001600160a01b031690879087908790600e90600401613fd6565b60006040518083038186803b15801561130857600080fd5b505af415801561131c573d6000803e3d6000fd5b505060016006555050505050565b601454604051636c9b2a3f60e11b81526001600160a01b039091169063d936547e9061135a903290600401613eaa565b60206040518083038186803b15801561137257600080fd5b505afa158015611386573d6000803e3d6000fd5b505050506040513d601f19601f820116820180604052508101906113aa9190613cff565b6113c65760405162461bcd60e51b81526004016106b29061427d565b336001600160a01b03166000356001600160e01b0319166001600160e01b0319166000366040516113f8929190613fa7565b60405180910390a2600260065414156114235760405162461bcd60e51b81526004016106b2906143a8565b60026006556008546001600160a01b03166114505760405162461bcd60e51b81526004016106b29061432a565b6008546040805163fde924f760e01b815290516000926001600160a01b03169163fde924f7916004808301926020929190829003018186803b15801561149557600080fd5b505afa1580156114a9573d6000803e3d6000fd5b505050506040513d601f19601f820116820180604052508101906114cd9190613cff565b6008546040516324dacaa960e11b81529192506001600160a01b0316906349b59552906114ff90600090600401613f64565b600060405180830381600087803b15801561151957600080fd5b505af115801561152d573d6000803e3d6000fd5b5050600954640100000000900460ff1615915081905061155c57503360009081526019602052604090205460ff165b8061157657503260009081526019602052604090205460ff165b6115925760405162461bcd60e51b81526004016106b290614222565b60085460405163a1925f1d60e01b81526060917300098026682c3B24f9aD5e60311Ce7A0cb753b449163a1925f1d916115df9130916001600160a01b0316908a908a908a906004016140cf565b60006040518083038186803b1580156115f757600080fd5b505af415801561160b573d6000803e3d6000fd5b505050506040513d6000823e601f3d908101601f191682016040526116339190810190613cc4565b90506060600860009054906101000a90046001600160a01b03166001600160a01b031663cc77828d6040518163ffffffff1660e01b815260040160006040518083038186803b15801561168557600080fd5b505afa158015611699573d6000803e3d6000fd5b505050506040513d6000823e601f3d908101601f191682016040526116c19190810190613bdc565b905060005b815181101561175f5760008282815181106116dd57fe5b6020026020010151905060008483815181106116f557fe5b60200260200101519050816001600160a01b0316336001600160a01b03167fea39e3b35c5cd8937999ed5f7fbab30acd562a931fc4a887fed2a47c3074aa7283604051611742919061463c565b60405180910390a3611755823383613009565b50506001016116c6565b5061176986611100565b611773338761093e565b50506008546040516324dacaa960e11b81526001600160a01b03909116906349b59552906117a5908490600401613f64565b600060405180830381600087803b1580156117bf57600080fd5b505af1158015610c9d573d6000803e3d6000fd5b3330146117f25760405162461bcd60e51b81526004016106b29061418a565b6109488282613252565b600a54600b5482565b601454604051636c9b2a3f60e11b81526000916001600160a01b03169063d936547e90611836903290600401613eaa565b60206040518083038186803b15801561184e57600080fd5b505afa158015611862573d6000803e3d6000fd5b505050506040513d601f19601f820116820180604052508101906118869190613cff565b6118a25760405162461bcd60e51b81526004016106b29061427d565b336001600160a01b03166000356001600160e01b0319166001600160e01b0319166000366040516118d4929190613fa7565b60405180910390a2600260065414156118ff5760405162461bcd60e51b81526004016106b2906143a8565b60026006556008546001600160a01b031661192c5760405162461bcd60e51b81526004016106b29061432a565b600954640100000000900460ff16158061195557503360009081526019602052604090205460ff165b8061196f57503260009081526019602052604090205460ff165b61198b5760405162461bcd60e51b81526004016106b290614222565b60085460405163df90de0b60e01b81527300098026682c3B24f9aD5e60311Ce7A0cb753b449163df90de0b916119d79130916001600160a01b039091169089908990899060040161409b565b60206040518083038186803b1580156119ef57600080fd5b505af4158015611a03573d6000803e3d6000fd5b505050506040513d601f19601f82011682018060405250810190611a279190613d72565b9050836001600160a01b0316336001600160a01b03167fea39e3b35c5cd8937999ed5f7fbab30acd562a931fc4a887fed2a47c3074aa7285604051611a6c919061463c565b60405180910390a3611a7d81611100565b611a87338261093e565b61087d843385613009565b336001600160a01b03166000356001600160e01b0319166001600160e01b031916600036604051611ac4929190613fa7565b60405180910390a260026006541415611aef5760405162461bcd60e51b81526004016106b2906143a8565b60026006556005546001600160a01b03163314611b1e5760405162461bcd60e51b81526004016106b29061418a565b6008546001600160a01b0316611b465760405162461bcd60e51b81526004016106b29061432a565b6009546301000000900460ff16611b6f5760405162461bcd60e51b81526004016106b2906141b6565b600e54600160a01b900460ff1615611b995760405162461bcd60e51b81526004016106b2906144b8565b600a5415611bb95760405162461bcd60e51b81526004016106b29061456d565b600854604051630970e47f60e01b81527300098026682c3B24f9aD5e60311Ce7A0cb753b4491630970e47f91611c019130916001600160a01b0390911690869060040161404e565b60006040518083038186803b158015611c1957600080fd5b505af4158015611c2d573d6000803e3d6000fd5b50506001600655505050565b3360009081526002602090815260408083206001600160a01b0386168452909152812054808310611c8d573360009081526002602090815260408083206001600160a01b0388168452909152812055611cbc565b611c978184612c24565b3360009081526002602090815260408083206001600160a01b03891684529091529020555b3360008181526002602090815260408083206001600160a01b0389168085529252918290205491519092916000805160206146c883398151915291611d01919061463c565b60405180910390a35060019392505050565b601454604051636c9b2a3f60e11b81526000916001600160a01b03169063d936547e90611d44903290600401613eaa565b60206040518083038186803b158015611d5c57600080fd5b505afa158015611d70573d6000803e3d6000fd5b505050506040513d601f19601f82011682018060405250810190611d949190613cff565b611db05760405162461bcd60e51b81526004016106b29061427d565b336001600160a01b03166000356001600160e01b0319166001600160e01b031916600036604051611de2929190613fa7565b60405180910390a260026006541415611e0d5760405162461bcd60e51b81526004016106b2906143a8565b60026006556008546001600160a01b0316611e3a5760405162461bcd60e51b81526004016106b29061432a565b600954640100000000900460ff161580611e6357503360009081526019602052604090205460ff165b80611e7d57503260009081526019602052604090205460ff165b611e995760405162461bcd60e51b81526004016106b290614222565b600854604051636a6dc6e760e01b81527300098026682c3B24f9aD5e60311Ce7A0cb753b4491636a6dc6e791611ee59130916001600160a01b039091169089908990899060040161409b565b60206040518083038186803b158015611efd57600080fd5b505af4158015611f11573d6000803e3d6000fd5b505050506040513d601f19601f82011682018060405250810190611f359190613d72565b9050836001600160a01b0316336001600160a01b03167fea39e3b35c5cd8937999ed5f7fbab30acd562a931fc4a887fed2a47c3074aa7283604051611f7a919061463c565b60405180910390a3611f8b83611100565b611f95338461093e565b61087d843383613009565b6001600160a01b031660009081526001602052604090205490565b739Fd5e70828D2157990A7ccB8E7AAe625fAB84de290565b6005546001600160a01b03163314611ffd5760405162461bcd60e51b81526004016106b29061418a565b336001600160a01b03166000356001600160e01b0319166001600160e01b03191660003660405161202f929190613fa7565b60405180910390a26002600654141561205a5760405162461bcd60e51b81526004016106b2906143a8565b60026006556120688161325d565b506001600655565b6005546001600160a01b0316331461209a5760405162461bcd60e51b81526004016106b29061418a565b6001600160a01b0381166120c05760405162461bcd60e51b81526004016106b2906142c9565b6005546040516001600160a01b038084169216907f8be0079c531659141344cd1fd0a4f28419497f9722a3daafe3b4186f6b6457e090600090a3600580546001600160a01b0319166001600160a01b0392909216919091179055565b60038054604080516020601f60026000196101006001881615020190951694909404938401819004810282018101909252828152606093909290918301828280156109155780601f106108ea57610100808354040283529160200191610915565b336001600160a01b03166000356001600160e01b0319166001600160e01b0319166000366040516121af929190613fa7565b60405180910390a2600260065414156121da5760405162461bcd60e51b81526004016106b2906143a8565b60026006556005546001600160a01b031633146122095760405162461bcd60e51b81526004016106b29061418a565b6008546001600160a01b03166122315760405162461bcd60e51b81526004016106b29061432a565b60095462010000900460ff166122595760405162461bcd60e51b81526004016106b2906142f3565b600a54156122795760405162461bcd60e51b81526004016106b29061456d565b600854604051633d512a8760e21b81527300098026682c3B24f9aD5e60311Ce7A0cb753b449163f544aa1c916122c39130916001600160a01b039091169087908790600401614071565b60006040518083038186803b1580156122db57600080fd5b505af41580156122ef573d6000803e3d6000fd5b5050600160065550505050565b60095460ff80821691610100810482169162010000820481169163010000008104821691640100000000820481169165010000000000810482169166010000000000009091041687565b7389C3101E82f2B71ad8f3a23127752709BE35b67D90565b7300098026682c3B24f9aD5e60311Ce7A0cb753b4490565b6040518060400160405280601381526020017210985b185b98d95c8814db585c9d08141bdbdb606a1b81525081565b6101f481565b60006001600160a01b0383166123d35760405162461bcd60e51b81526004016106b2906142c9565b6123de338484612f2b565b50600192915050565b601454604051636c9b2a3f60e11b81526001600160a01b039091169063d936547e90612417903290600401613eaa565b60206040518083038186803b15801561242f57600080fd5b505afa158015612443573d6000803e3d6000fd5b505050506040513d601f19601f820116820180604052508101906124679190613cff565b6124835760405162461bcd60e51b81526004016106b29061427d565b336001600160a01b03166000356001600160e01b0319166001600160e01b0319166000366040516124b5929190613fa7565b60405180910390a2600260065414156124e05760405162461bcd60e51b81526004016106b2906143a8565b60026006556008546001600160a01b031661250d5760405162461bcd60e51b81526004016106b29061432a565b6008546040805163fde924f760e01b815290516000926001600160a01b03169163fde924f7916004808301926020929190829003018186803b15801561255257600080fd5b505afa158015612566573d6000803e3d6000fd5b505050506040513d601f19601f8201168201806040525081019061258a9190613cff565b6008546040516324dacaa960e11b81529192506001600160a01b0316906349b59552906125bc90600090600401613f64565b600060405180830381600087803b1580156125d657600080fd5b505af11580156125ea573d6000803e3d6000fd5b505060085460405163151c70f960e21b8152600093508392506060917300098026682c3B24f9aD5e60311Ce7A0cb753b4491635471c3e4916126409130916001600160a01b0316908c908c908c906004016140cf565b60006040518083038186803b15801561265857600080fd5b505af415801561266c573d6000803e3d6000fd5b505050506040513d6000823e601f3d908101601f191682016040526126949190810190613df7565b9250925092506126a433886117f2565b6007546126ba906001600160a01b03168461093e565b6126c3826109de565b6008546040805163cc77828d60e01b815290516060926001600160a01b03169163cc77828d916004808301926000929190829003018186803b15801561270857600080fd5b505afa15801561271c573d6000803e3d6000fd5b505050506040513d6000823e601f3d908101601f191682016040526127449190810190613bdc565b905060005b81518110156127e257600082828151811061276057fe5b60200260200101519050600084838151811061277857fe5b60200260200101519050816001600160a01b0316336001600160a01b03167fc62fc35ac75e3bff532648e2859a3e1694002cfa357614ae8e034df7f83db5e9836040516127c5919061463c565b60405180910390a36127d8823383612c5d565b5050600101612749565b50506008546040516324dacaa960e11b81526001600160a01b0390911693506349b5955292506117a591508490600401613f64565b6008546001600160a01b031681565b336001600160a01b03166000356001600160e01b0319166001600160e01b031916600036604051612858929190613fa7565b60405180910390a2600260065414156128835760405162461bcd60e51b81526004016106b2906143a8565b60026006556005546001600160a01b031633146128b25760405162461bcd60e51b81526004016106b29061418a565b6008546001600160a01b03166128da5760405162461bcd60e51b81526004016106b29061432a565b6009546301000000900460ff166129035760405162461bcd60e51b81526004016106b2906141b6565b600854601854604051633be961dd60e21b81527300098026682c3B24f9aD5e60311Ce7A0cb753b449263efa587749261294e9230926001600160a01b03169190600e9060040161410e565b60006040518083038186803b15801561296657600080fd5b505af415801561297a573d6000803e3d6000fd5b505060016006555050565b6005546001600160a01b031633146129af5760405162461bcd60e51b81526004016106b29061418a565b336001600160a01b03166000356001600160e01b0319166001600160e01b0319166000366040516129e1929190613fa7565b60405180910390a260026006541415612a0c5760405162461bcd60e51b81526004016106b2906143a8565b600260065580821015612a315760405162461bcd60e51b81526004016106b2906141ed565b60178290556018819055612a448361325d565b5050600160065550565b600e54600f546010546011546001600160a01b03841693600160a01b900460ff1692919085565b3360009081526002602090815260408083206001600160a01b0386168452909152812054612aa390836137d8565b3360008181526002602090815260408083206001600160a01b038916808552925291829020849055905190926000805160206146c883398151915291610993919061463c565b6001600160a01b03918216600090815260026020908152604080832093909416825291909152205490565b336001600160a01b03166000356001600160e01b0319166001600160e01b031916600036604051612b46929190613fa7565b60405180910390a260026006541415612b715760405162461bcd60e51b81526004016106b2906143a8565b60026006556008546001600160a01b0316612b9e5760405162461bcd60e51b81526004016106b29061432a565b60095462010000900460ff16612bc65760405162461bcd60e51b81526004016106b2906142f3565b6008546040516382495b4560e01b81527300098026682c3B24f9aD5e60311Ce7A0cb753b44916382495b459161294e916001600160a01b031690600a90600401613f2a565b60185481565b60175481565b62015f9081565b3b151590565b6000806000612c3385856137fd565b915091508015612c555760405162461bcd60e51b81526004016106b290614518565b509392505050565b6008546001600160a01b0316612c855760405162461bcd60e51b81526004016106b29061432a565b60085460405163f8b2cb4f60e01b81526000916001600160a01b03169063f8b2cb4f90612cb6908790600401613eaa565b60206040518083038186803b158015612cce57600080fd5b505afa158015612ce2573d6000803e3d6000fd5b505050506040513d601f19601f82011682018060405250810190612d069190613d72565b600854604051634a46c67360e11b81529192506000916001600160a01b039091169063948d8ce690612d3c908890600401613eaa565b60206040518083038186803b158015612d5457600080fd5b505afa158015612d68573d6000803e3d6000fd5b505050506040513d601f19601f82011682018060405250810190612d8c9190613d72565b6008549091506001600160a01b0316633fdddaa286612dab8587612c24565b846040518463ffffffff1660e01b8152600401612dca93929190613f43565b600060405180830381600087803b158015612de457600080fd5b505af1158015612df8573d6000803e3d6000fd5b505060405163a9059cbb60e01b8152600092506001600160a01b038816915063a9059cbb90612e2d9088908890600401613f2a565b602060405180830381600087803b158015612e4757600080fd5b505af1158015612e5b573d6000803e3d6000fd5b505050506040513d601f19601f82011682018060405250810190612e7f9190613cff565b905080612e9e5760405162461bcd60e51b81526004016106b2906144ef565b505050505050565b610948308383612f2b565b30600090815260016020526040902054612ecb9082612c24565b3060009081526001602052604081209190915554612ee99082612c24565b600090815560405130907fddf252ad1be2c89b69c2b068fc378daa952ba7f163c4a11628f55a4df523b3ef90612f2090859061463c565b60405180910390a350565b6001600160a01b038316600090815260016020526040902054612f4e9082612c24565b6001600160a01b038085166000908152600160205260408082209390935590841681522054612f7d90826137d8565b6001600160a01b0380841660008181526001602052604090819020939093559151908516907fddf252ad1be2c89b69c2b068fc378daa952ba7f163c4a11628f55a4df523b3ef90612fcf90859061463c565b60405180910390a3505050565b612fe581613822565b601a5460005411156109e75760405162461bcd60e51b81526004016106b29061442a565b6008546001600160a01b03166130315760405162461bcd60e51b81526004016106b29061432a565b60085460405163f8b2cb4f60e01b81526000916001600160a01b03169063f8b2cb4f90613062908790600401613eaa565b60206040518083038186803b15801561307a57600080fd5b505afa15801561308e573d6000803e3d6000fd5b505050506040513d601f19601f820116820180604052508101906130b29190613d72565b600854604051634a46c67360e11b81529192506000916001600160a01b039091169063948d8ce6906130e8908890600401613eaa565b60206040518083038186803b15801561310057600080fd5b505afa158015613114573d6000803e3d6000fd5b505050506040513d601f19601f820116820180604052508101906131389190613d72565b90506000856001600160a01b03166323b872dd8630876040518463ffffffff1660e01b815260040161316c93929190613ebe565b602060405180830381600087803b15801561318657600080fd5b505af115801561319a573d6000803e3d6000fd5b505050506040513d601f19601f820116820180604052508101906131be9190613cff565b9050806131dd5760405162461bcd60e51b81526004016106b2906144ef565b6008546001600160a01b0316633fdddaa2876131f986886137d8565b856040518463ffffffff1660e01b815260040161321893929190613f43565b600060405180830381600087803b15801561323257600080fd5b505af1158015613246573d6000803e3d6000fd5b50505050505050505050565b610948823083612f2b565b6008546001600160a01b0316156132865760405162461bcd60e51b81526004016106b290614353565b68056bc75e2d631000008110156132af5760405162461bcd60e51b81526004016106b29061437b565b6b033b2e3c9fd0803ce80000008111156132db5760405162461bcd60e51b81526004016106b290614250565b60095465010000000000900460ff16156132f557601a8190555b6132fe81611100565b613308338261093e565b600760009054906101000a90046001600160a01b03166001600160a01b031663d556c5dc6040518163ffffffff1660e01b8152600401602060405180830381600087803b15801561335857600080fd5b505af115801561336c573d6000803e3d6000fd5b505050506040513d601f19601f820116820180604052508101906133909190613d1f565b600880546001600160a01b0319166001600160a01b0392831617908190556040805163632c068960e11b81529051919092169163c6580d12916004808301926020929190829003018186803b1580156133e857600080fd5b505afa1580156133fc573d6000803e3d6000fd5b505050506040513d601f19601f820116820180604052508101906134209190613d72565b1561343d5760405162461bcd60e51b81526004016106b2906143fc565b60005b6015548110156135ff5760006015828154811061345957fe5b6000918252602082200154601680546001600160a01b039092169350908490811061348057fe5b906000526020600020015490506000600a600201848154811061349f57fe5b60009182526020822001546040516323b872dd60e01b81529092506001600160a01b038516906323b872dd906134dd90339030908890600401613ebe565b602060405180830381600087803b1580156134f757600080fd5b505af115801561350b573d6000803e3d6000fd5b505050506040513d601f19601f8201168201806040525081019061352f9190613cff565b90508061354e5760405162461bcd60e51b81526004016106b2906144ef565b60085461356a906001600160a01b038681169116600019613892565b9050806135895760405162461bcd60e51b81526004016106b2906144ef565b600854604051631c9c3ca760e31b81526001600160a01b039091169063e4e1e538906135bd90879087908790600401613f43565b600060405180830381600087803b1580156135d757600080fd5b505af11580156135eb573d6000803e3d6000fd5b505060019096019550613440945050505050565b505b6015541561363b57601580548061361457fe5b600082815260209020810160001990810180546001600160a01b0319169055019055613601565b6008546012546040516334e1990760e01b81526001600160a01b03909216916334e199079161366c9160040161463c565b600060405180830381600087803b15801561368657600080fd5b505af115801561369a573d6000803e3d6000fd5b50506008546040516324dacaa960e11b81526001600160a01b0390911692506349b5955291506136cf90600190600401613f64565b600060405180830381600087803b1580156136e957600080fd5b505af11580156136fd573d6000803e3d6000fd5b505060085460135460405163787dce3d60e01b81526001600160a01b03909216935063787dce3d92506137329160040161463c565b600060405180830381600087803b15801561374c57600080fd5b505af1158015613760573d6000803e3d6000fd5b505060085460145460405163e8d56b8b60e01b81526001600160a01b03928316945063e8d56b8b93506137999290911690600401613eaa565b600060405180830381600087803b1580156137b357600080fd5b505af11580156137c7573d6000803e3d6000fd5b505060006012819055601355505050565b600082820183811015610b115760405162461bcd60e51b81526004016106b290614543565b600080838311613813575050808203600061381b565b505081810360015b9250929050565b3060009081526001602052604090205461383c90826137d8565b306000908152600160205260408120919091555461385a90826137d8565b60009081556040513091907fddf252ad1be2c89b69c2b068fc378daa952ba7f163c4a11628f55a4df523b3ef90612f2090859061463c565b600080846001600160a01b031663dd62ed3e30866040518363ffffffff1660e01b81526004016138c3929190613ee2565b60206040518083038186803b1580156138db57600080fd5b505afa1580156138ef573d6000803e3d6000fd5b505050506040513d601f19601f820116820180604052508101906139139190613d72565b905082811415613927576001915050610b11565b80156139b05760405163095ea7b360e01b81526001600160a01b0386169063095ea7b39061395c908790600090600401613f2a565b602060405180830381600087803b15801561397657600080fd5b505af115801561398a573d6000803e3d6000fd5b505050506040513d601f19601f820116820180604052508101906139ae9190613cff565b505b60405163095ea7b360e01b81526001600160a01b0386169063095ea7b3906139de9087908790600401613f2a565b602060405180830381600087803b1580156139f857600080fd5b505af1158015613a0c573d6000803e3d6000fd5b505050506040513d601f19601f82011682018060405250810190613a309190613cff565b95945050505050565b60008083601f840112613a4a578081fd5b50813567ffffffffffffffff811115613a61578182fd5b602083019150836020808302850101111561381b57600080fd5b600082601f830112613a8b578081fd5b8151613a9e613a9982614688565b614661565b818152915060208083019084810181840286018201871015613abf57600080fd5b60005b84811015613ade57815184529282019290820190600101613ac2565b505050505092915050565b600060208284031215613afa578081fd5b8135610b11816146b2565b60008060408385031215613b17578081fd5b8235613b22816146b2565b91506020830135613b32816146b2565b809150509250929050565b600080600060608486031215613b51578081fd5b8335613b5c816146b2565b92506020840135613b6c816146b2565b929592945050506040919091013590565b60008060408385031215613b8f578182fd5b8235613b9a816146b2565b946020939093013593505050565b600080600060608486031215613bbc578283fd5b8335613bc7816146b2565b95602085013595506040909401359392505050565b60006020808385031215613bee578182fd5b825167ffffffffffffffff811115613c04578283fd5b8301601f81018513613c14578283fd5b8051613c22613a9982614688565b8181528381019083850185840285018601891015613c3e578687fd5b8694505b83851015613c69578051613c55816146b2565b835260019490940193918501918501613c42565b50979650505050505050565b60008060008060608587031215613c8a578081fd5b843567ffffffffffffffff811115613ca0578182fd5b613cac87828801613a39565b90989097506020870135966040013595509350505050565b600060208284031215613cd5578081fd5b815167ffffffffffffffff811115613ceb578182fd5b613cf784828501613a7b565b949350505050565b600060208284031215613d10578081fd5b81518015158114610b11578182fd5b600060208284031215613d30578081fd5b8151610b11816146b2565b600060208284031215613d4c578081fd5b813560078110610b11578182fd5b600060208284031215613d6b578081fd5b5035919050565b600060208284031215613d83578081fd5b5051919050565b600080600060408486031215613d9e578283fd5b83359250602084013567ffffffffffffffff811115613dbb578283fd5b613dc786828701613a39565b9497909650939450505050565b60008060408385031215613de6578182fd5b505080516020909101519092909150565b600080600060608486031215613e0b578081fd5b8351925060208401519150604084015167ffffffffffffffff811115613e2f578182fd5b613e3b86828701613a7b565b9150509250925092565b600080600060608486031215613e59578081fd5b505081359360208301359350604090920135919050565b81835260006001600160fb1b03831115613e88578081fd5b6020830280836020870137939093016020019283525090919050565b15159052565b6001600160a01b0391909116815260200190565b6001600160a01b039384168152919092166020820152604081019190915260600190565b6001600160a01b0392831681529116602082015260400190565b6001600160a01b03959095168552921515602085015260408401919091526060830152608082015260a00190565b6001600160a01b03929092168252602082015260400190565b6001600160a01b039390931683526020830191909152604082015260600190565b901515815260200190565b961515875294151560208701529215156040860152901515606085015215156080840152151560a0830152151560c082015260e00190565b60006020825282602083015282846040840137818301604090810191909152601f909201601f19160101919050565b6001600160a01b03958616815293909416602084015260408301919091526060820152608081019190915260a00190565b600060018060a01b038916825287602083015260c0604083015261402f60c083018789613e70565b606083019590955250608081019290925260a090910152949350505050565b6001600160a01b0393841681529183166020830152909116604082015260600190565b6001600160a01b039485168152928416602084015292166040820152606081019190915260800190565b6001600160a01b03958616815293851660208501529190931660408301526060820192909252608081019190915260a00190565b6001600160a01b03868116825285166020820152604081018490526080606082018190526000906141039083018486613e70565b979650505050505050565b6001600160a01b0394851681529290931660208301526040820152606081019190915260800190565b6000602080835283518082850152825b8181101561416357858101830151858201604001528201614147565b818111156141745783604083870101525b50601f01601f1916929092016040019392505050565b60208082526012908201527122a9292fa727aa2fa1a7a72a2927a62622a960711b604082015260600190565b6020808252601c908201527f4552525f43414e4e4f545f4144445f52454d4f56455f544f4b454e5300000000604082015260600190565b6020808252818101527f4552525f494e434f4e53495354454e545f544f4b454e5f54494d455f4c4f434b604082015260600190565b60208082526014908201527311549497d393d517d3d397d5d2125511531254d560621b604082015260600190565b60208082526013908201527208aa4a4be929c92a8bea6aaa0a098b2be9a82b606b1b604082015260600190565b6020808252602c908201527f464358416363657373436f6e74726f6c3a2073656e646572206973206e6f742060408201526b1a5b881dda1a5d195b1a5cdd60a21b606082015260800190565b60208082526010908201526f4552525f5a45524f5f4144445245535360801b604082015260600190565b6020808252601c908201527f4552525f4e4f545f434f4e464947555241424c455f5745494748545300000000604082015260600190565b6020808252600f908201526e11549497d393d517d0d49150551151608a1b604082015260600190565b6020808252600e908201526d11549497d254d7d0d4915055115160921b604082015260600190565b60208082526013908201527222a9292fa4a724aa2fa9aaa828262cafa6a4a760691b604082015260600190565b6020808252600b908201526a4552525f5245454e54525960a81b604082015260600190565b60208082526015908201527404552525f43414e4e4f545f4348414e47455f43415605c1b604082015260600190565b6020808252601490820152734552525f4e4f4e5a45524f5f455849545f46454560601b604082015260600190565b60208082526015908201527411549497d0d05417d31253525517d4915050d21151605a1b604082015260600190565b60208082526016908201527522a9292fa821aa27a5a2a72fa120a22fa1a0a62622a960511b604082015260600190565b60208082526015908201527411549497d4115391125391d7d513d2d15397d05111605a1b604082015260600190565b6020808252601b908201527f4552525f52454d4f56455f574954485f4144445f50454e44494e470000000000604082015260600190565b6020808252600f908201526e4552525f45524332305f46414c534560881b604082015260600190565b6020808252601190820152704552525f5355425f554e444552464c4f5760781b604082015260600190565b60208082526010908201526f4552525f4144445f4f564552464c4f5760801b604082015260600190565b6020808252601c908201527f4552525f4e4f5f5550444154455f445552494e475f4752414455414c00000000604082015260600190565b600061010082019050835460ff808216151584526145ca60208501828460081c16613ea4565b6145dc60408501828460101c16613ea4565b6145ee60608501828460181c16613ea4565b61460060808501828460201c16613ea4565b61461260a08501828460281c16613ea4565b61462460c08501828460301c16613ea4565b505061462f836146a8565b8260e08301529392505050565b90815260200190565b918252602082015260400190565b60ff91909116815260200190565b60405181810167ffffffffffffffff8111828210171561468057600080fd5b604052919050565b600067ffffffffffffffff82111561469e578081fd5b5060209081020190565b600781106109e757fe5b6001600160a01b03811681146109e757600080fdfe8c5be1e5ebec7d5bd14f71427d1e84f3dd0314c0f7b2291e5b200ac8c7c3b925a26469706673582212204f79656ea2dadc66de91b50d42eda1365ddc31de95bc05f67a3d82c63c80766864736f6c634300060c0033a264697066735822122032a723b4558a3c27854af2ad7d6fed7e80efe39144ab27ef662e85641b40d9ec64736f6c634300060c0033",
  "deployedBytecode": "0x60806040523480156200001157600080fd5b5060043610620000525760003560e01c8063c7154c0a1462000057578063dc19e8421462000079578063e2cce565146200009f578063e8d56b8b14620000b6575b600080fd5b62000061620000cf565b60405162000070919062000780565b60405180910390f35b620000906200008a366004620005b0565b620000de565b60405162000070919062000902565b62000061620000b0366004620005d5565b620000fc565b620000cd620000c7366004620005b0565b62000397565b005b6001546001600160a01b031690565b6001600160a01b031660009081526020819052604090205460ff1690565b600154604051632474521560e21b81526000916001600160a01b0316906391d148549062000151907fa49807205ce4d355092ef5a8a18f56e8913cf4a201fbe287825b095693c217759032906004016200090d565b60206040518083038186803b1580156200016a57600080fd5b505afa1580156200017f573d6000803e3d6000fd5b505050506040513d601f19601f82011682018060405250810190620001a591906200063c565b620001cd5760405162461bcd60e51b8152600401620001c4906200095b565b60405180910390fd5b6002620001de604085018562000a9e565b90501015620002015760405162461bcd60e51b8152600401620001c49062000a72565b62000210604084018462000a9e565b905062000221606085018562000a9e565b905014620002435760405162461bcd60e51b8152600401620001c49062000a0e565b62000252604084018462000a9e565b905062000263608085018562000a9e565b905014620002855760405162461bcd60e51b8152600401620001c49062000924565b600084600260009054906101000a90046001600160a01b03168585604051620002ae906200056c565b620002bd949392919062000794565b604051809103906000f080158015620002da573d6000803e3d6000fd5b506040519091506001600160a01b0382169033907f8aaa45dbe91f274e1c80489691f3d62dbf595d587fcc6a989fa27696e7c2a23290600090a36001600160a01b03811660008181526020819052604090819020805460ff19166001179055516392eefe9b60e01b81526392eefe9b906200035a90339060040162000780565b600060405180830381600087803b1580156200037557600080fd5b505af11580156200038a573d6000803e3d6000fd5b5092979650505050505050565b600154604051632474521560e21b81526001600160a01b03909116906391d1485490620003eb907fa49807205ce4d355092ef5a8a18f56e8913cf4a201fbe287825b095693c217759032906004016200090d565b60206040518083038186803b1580156200040457600080fd5b505afa15801562000419573d6000803e3d6000fd5b505050506040513d601f19601f820116820180604052508101906200043f91906200063c565b6200045e5760405162461bcd60e51b8152600401620001c4906200095b565b6001600160a01b038116620004875760405162461bcd60e51b8152600401620001c49062000a45565b604051632474521560e21b81526001600160a01b038216906391d1485490620004d7907fa49807205ce4d355092ef5a8a18f56e8913cf4a201fbe287825b095693c217759032906004016200090d565b60206040518083038186803b158015620004f057600080fd5b505afa15801562000505573d6000803e3d6000fd5b505050506040513d601f19601f820116820180604052508101906200052b91906200063c565b6200054a5760405162461bcd60e51b8152600401620001c490620009b1565b600180546001600160a01b0319166001600160a01b0392909216919091179055565b6153298062000bad83390190565b80356001600160a01b03811681146200059257600080fd5b92915050565b600060e08284031215620005aa578081fd5b50919050565b600060208284031215620005c2578081fd5b620005ce83836200057a565b9392505050565b60008060006101208486031215620005eb578182fd5b620005f785856200057a565b9250602084013567ffffffffffffffff81111562000613578283fd5b620006218682870162000598565b92505062000633856040860162000598565b90509250925092565b6000602082840312156200064e578081fd5b8151620005ce8162000b9a565b6001600160a01b0316815260200190565b81835260006001600160fb1b0383111562000685578081fd5b6020830280836020870137939093016020019283525090919050565b15159052565b60008284528282602086013780602084860101526020601f19601f85011685010190509392505050565b8035620006de8162000b9a565b151582526020810135620006f28162000b9a565b151560208301526040810135620007098162000b9a565b151560408301526060810135620007208162000b9a565b151560608301526080810135620007378162000b9a565b151560808301526200074d60a082018262000b43565b6200075c60a0840182620006a1565b506200076c60c082018262000b43565b6200077b60c0840182620006a1565b505050565b6001600160a01b0391909116815260200190565b600061014060018060a01b038088168452602081881681860152826040860152620007c0878862000b52565b925060e084870152620007d961022087018483620006a7565b935050620007ea8188018862000b52565b925061013f19808786030161016088015262000808858584620006a7565b94506200081960408a018a62000af8565b9450915080878603016101808801528462000835858762000aef565b929550869290505b84831015620008725783860162000860826200085a838a6200057a565b6200065b565b9150809650506001830192506200083d565b6200088160608b018b62000af8565b9650945081888203016101a08901526200089d8187876200066c565b955050620008af60808a018a62000af8565b9450925080878603016101c08801525050620008cd8383836200066c565b60a08801356101e087015260c08801356102008701529350620008f992505060608401905084620006d1565b95945050505050565b901515815260200190565b9182526001600160a01b0316602082015260400190565b6020808252601a908201527f4552525f53544152545f574549474854535f4d49534d41544348000000000000604082015260600190565b60208082526036908201527f416363657373436f6e74726f6c3a2073656e646572206d75737420626520616460408201527536b4b7103a37903430bb32903832b936b4b9b9b4b7b760511b606082015260800190565b60208082526039908201527f416363657373436f6e74726f6c3a2073656e646572206d75737420626520616460408201527f6d696e206f66206e65772061636365737320636f6e74726f6c00000000000000606082015260800190565b6020808252601b908201527f4552525f53544152545f42414c414e4345535f4d49534d415443480000000000604082015260600190565b6020808252601390820152724552525f494e56414c49445f4144445245535360681b604082015260600190565b6020808252601290820152714552525f544f4f5f4645575f544f4b454e5360701b604082015260600190565b6000808335601e1984360301811262000ab5578283fd5b83018035915067ffffffffffffffff82111562000ad0578283fd5b602090810192508102360382131562000ae857600080fd5b9250929050565b90815260200190565b6000808335601e1984360301811262000b0f578283fd5b830160208101925035905067ffffffffffffffff81111562000b3057600080fd5b60208102360383131562000ae857600080fd5b60008235620005ce8162000b9a565b6000808335601e1984360301811262000b69578283fd5b830160208101925035905067ffffffffffffffff81111562000b8a57600080fd5b80360383131562000ae857600080fd5b801515811462000ba957600080fd5b5056fe60806040523480156200001157600080fd5b50604051620053293803806200532983398101604081905262000034916200086d565b815160208084015182519091620000519160039185019062000499565b5080516200006790600490602084019062000499565b5050600580546001600160a01b03191633179055506001600655620f4240670de0b6b3a7640000048260a001511015620000be5760405162461bcd60e51b8152600401620000b59062000b47565b60405180910390fd5b670de0b6b3a76400008260a001511115620000ed5760405162461bcd60e51b8152600401620000b59062000b47565b670de0b6b3a76400008260c0015111156200011c5760405162461bcd60e51b8152600401620000b59062000a50565b81604001515182606001515114620001485760405162461bcd60e51b8152600401620000b59062000a87565b81604001515182608001515114620001745760405162461bcd60e51b8152600401620000b59062000a19565b600282604001515110156200019d5760405162461bcd60e51b8152600401620000b59062000b1b565b60088260400151511115620001c65760405162461bcd60e51b8152600401620000b59062000b7e565b60408083015190516377d4434960e01b815273__$e9561d504b82fb1c7a2b5ba864c93772fd$__916377d4434991620002039190600401620009ca565b60006040518083038186803b1580156200021c57600080fd5b505af415801562000231573d6000803e3d6000fd5b5050600780546001600160a01b0319166001600160a01b03881617905550508051600980546020808501516040808701516060880151608089015160a08a015160c08b015160ff199098169915159990991761ff001916610100951515959095029490941762ff0000191662010000921515929092029190911763ff00000019166301000000911515919091021760ff60201b1916640100000000921515929092029190911760ff60281b191665010000000000951515959095029490941760ff60301b191666010000000000009215159290920291909117909155908301518051620003239260159201906200051e565b50606082015180516200033f9160169160209091019062000584565b5060a082015160125560c08201516013556007546040805163638aa60560e11b815290516001600160a01b039092169163c7154c0a91600480820192602092909190829003018186803b1580156200039657600080fd5b505afa158015620003ab573d6000803e3d6000fd5b505050506040513d601f19601f82011682018060405250810190620003d1919062000848565b601480546001600160a01b0319166001600160a01b039290921691909117905562015f906017556101f4601855608082015180516200041991600c9160209091019062000584565b506000600a55600019601a5562000430836200043a565b5050505062000bfc565b62000450816200049360201b62002c1e1760201c565b6200046f5760405162461bcd60e51b8152600401620000b59062000abe565b7f360894a13ba1a3210667c828492db98dca3e2076cc3735a920a3ca505d382bbc55565b3b151590565b828054600181600116156101000203166002900490600052602060002090601f016020900481019282601f10620004dc57805160ff19168380011785556200050c565b828001600101855582156200050c579182015b828111156200050c578251825591602001919060010190620004ef565b506200051a929150620005c1565b5090565b82805482825590600052602060002090810192821562000576579160200282015b828111156200057657825182546001600160a01b0319166001600160a01b039091161782556020909201916001909101906200053f565b506200051a929150620005d8565b8280548282559060005260206000209081019282156200050c57916020028201828111156200050c578251825591602001919060010190620004ef565b5b808211156200051a5760008155600101620005c2565b5b808211156200051a5780546001600160a01b0319168155600101620005d9565b80516001600160a01b03811681146200061157600080fd5b92915050565b600082601f83011262000628578081fd5b81516200063f620006398262000bdc565b62000bb5565b8181529150602080830190848101818402860182018710156200066157600080fd5b60005b848110156200068c57620006798883620005f9565b8452928201929082019060010162000664565b505050505092915050565b600082601f830112620006a8578081fd5b8151620006b9620006398262000bdc565b818152915060208083019084810181840286018201871015620006db57600080fd5b60005b848110156200068c57815184529282019290820190600101620006de565b805180151581146200061157600080fd5b600082601f8301126200071e578081fd5b81516001600160401b0381111562000734578182fd5b60206200074a601f8301601f1916820162000bb5565b925081835284818386010111156200076157600080fd5b60005b828110156200078157848101820151848201830152810162000764565b82811115620007935760008284860101525b50505092915050565b600060e08284031215620007ae578081fd5b620007ba60e062000bb5565b9050620007c88383620006fc565b8152620007d98360208401620006fc565b6020820152620007ed8360408401620006fc565b6040820152620008018360608401620006fc565b6060820152620008158360808401620006fc565b6080820152620008298360a08401620006fc565b60a08201526200083d8360c08401620006fc565b60c082015292915050565b6000602082840312156200085a578081fd5b620008668383620005f9565b9392505050565b600080600080610140858703121562000884578283fd5b620008908686620005f9565b9350620008a18660208701620005f9565b60408601519093506001600160401b0380821115620008be578384fd5b9086019060e08289031215620008d2578384fd5b620008de60e062000bb5565b825182811115620008ed578586fd5b620008fb8a8286016200070d565b82525060208301518281111562000910578586fd5b6200091e8a8286016200070d565b60208301525060408301518281111562000936578586fd5b620009448a82860162000617565b6040830152506060830151828111156200095c578586fd5b6200096a8a82860162000697565b60608301525060808301518281111562000982578586fd5b620009908a82860162000697565b60808301525060a083015160a082015260c083015160c0820152809450505050620009bf86606087016200079c565b905092959194509250565b6020808252825182820181905260009190848201906040850190845b8181101562000a0d5783516001600160a01b031683529284019291840191600101620009e6565b50909695505050505050565b6020808252601a908201527f4552525f53544152545f574549474854535f4d49534d41544348000000000000604082015260600190565b60208082526018908201527f4552525f494e56414c49445f50524f544f434f4c5f4645450000000000000000604082015260600190565b6020808252601b908201527f4552525f53544152545f42414c414e4345535f4d49534d415443480000000000604082015260600190565b60208082526036908201527f5570677261646561626c6550726f78793a206e657720696d706c656d656e746160408201527f74696f6e206973206e6f74206120636f6e747261637400000000000000000000606082015260800190565b6020808252601290820152714552525f544f4f5f4645575f544f4b454e5360701b604082015260600190565b60208082526014908201527f4552525f494e56414c49445f535741505f464545000000000000000000000000604082015260600190565b60208082526013908201527f4552525f544f4f5f4d414e595f544f4b454e5300000000000000000000000000604082015260600190565b6040518181016001600160401b038111828210171562000bd457600080fd5b604052919050565b60006001600160401b0382111562000bf2578081fd5b5060209081020190565b61471d8062000c0c6000396000f3fe608060405234801561001057600080fd5b50600436106102a05760003560e01c80636d06dfa011610167578063a9059cbb116100ce578063d73dd62311610087578063d73dd62314610586578063dd62ed3e14610599578063e211b875146105ac578063e7f1a554146105b4578063e854f53d146105bc578063f226b528146105c4576102a0565b8063a9059cbb14610524578063b02f0b7314610537578063b64ef17b1461054a578063c275d81b14610552578063c3391d271461055a578063c42bd05a1461056d576102a0565b80639776e94b116101205780639776e94b146104d6578063980e8db6146104e95780639a82417e146105045780639d829c2b1461050c578063a3f4df7e14610514578063a835a0de1461051c576102a0565b80636d06dfa01461047a57806370a082311461048d57806374983a0d146104a05780638259e6a0146104a857806392eefe9b146104bb57806395d89b41146104ce576102a0565b8063313ce5671161020b5780634f69c0d4116101c45780634f69c0d41461040557806355c32a23146104185780635a8342d81461042b5780635db34277146104415780635fa7b584146104545780636618846314610467576102a0565b8063313ce5671461039e57806337c6f4d9146103a657806346ab38f1146103b957806347786d37146103cc5780634ba57882146103df5780634c20d209146103f2576102a0565b806318160ddd1161025d57806318160ddd14610340578063220eb7601461034857806323b872dd1461035b578063246bc19b1461036e5780632e0f2625146103815780633018205f14610396576102a0565b806302c96748146102b257806306fdde03146102db578063095dcccc146102f0578063095ea7b3146103035780630a165940146103235780630ce2792514610338575b6102b06102ab6105cc565b6105f1565b005b6102c56102c0366004613ba8565b610615565b6040516102d2919061463c565b60405180910390f35b6102e3610889565b6040516102d29190614137565b6102b06102fe366004613b7d565b61091f565b610316610311366004613b7d565b61094c565b6040516102d29190613f64565b61032b6109a4565b6040516102d29190613eaa565b6102c56109b3565b6102c56109b9565b6102b0610356366004613d5a565b6109bf565b610316610369366004613b3d565b6109ea565b6102b061037c366004613c75565b610b18565b610389610cac565b6040516102d29190614653565b61032b610cb1565b610389610cc0565b6103166103b4366004613d3b565b610cc5565b6102c56103c7366004613ba8565b610d58565b6102b06103da366004613d5a565b610fb3565b6102b06103ed366004613d5a565b6110e1565b6102b0610400366004613ba8565b611109565b6102b0610413366004613d8a565b61132a565b6102b0610426366004613b7d565b6117d3565b6104336117fc565b6040516102d2929190614645565b6102c561044f366004613ba8565b611805565b6102b0610462366004613ae9565b611a92565b610316610475366004613b7d565b611c39565b6102c5610488366004613ba8565b611d13565b6102c561049b366004613ae9565b611fa0565b61032b611fbb565b6102b06104b6366004613d5a565b611fd3565b6102b06104c9366004613ae9565b612070565b6102e361211c565b6102b06104e4366004613b7d565b61217d565b6104f16122fc565b6040516102d29796959493929190613f6f565b61032b612346565b61032b61235e565b6102e3612376565b6102c56123a5565b610316610532366004613b7d565b6123ab565b6102b0610545366004613d8a565b6123e7565b61032b612817565b6102b0612826565b6102b0610568366004613e45565b612985565b610575612a4e565b6040516102d2959493929190613efc565b610316610594366004613b7d565b612a75565b6102c56105a7366004613b05565b612ae9565b6102b0612b14565b6102c5612c0b565b6102c5612c11565b6102c5612c17565b7f360894a13ba1a3210667c828492db98dca3e2076cc3735a920a3ca505d382bbc5490565b3660008037600080366000845af43d6000803e808015610610573d6000f35b3d6000fd5b601454604051636c9b2a3f60e11b81526000916001600160a01b03169063d936547e90610646903290600401613eaa565b60206040518083038186803b15801561065e57600080fd5b505afa158015610672573d6000803e3d6000fd5b505050506040513d601f19601f820116820180604052508101906106969190613cff565b6106bb5760405162461bcd60e51b81526004016106b29061427d565b60405180910390fd5b336001600160a01b03166000356001600160e01b0319166001600160e01b0319166000366040516106ed929190613fa7565b60405180910390a2600260065414156107185760405162461bcd60e51b81526004016106b2906143a8565b60026006556008546001600160a01b03166107455760405162461bcd60e51b81526004016106b29061432a565b60085460405163724a2d5360e01b8152600091829173__$e9561d504b82fb1c7a2b5ba864c93772fd$__9163724a2d53916107969130916001600160a01b03909116908b908b908b9060040161409b565b604080518083038186803b1580156107ad57600080fd5b505af41580156107c1573d6000803e3d6000fd5b505050506040513d601f19601f820116820180604052508101906107e59190613dd4565b9150915080925060006107f88484612c24565b9050866001600160a01b0316336001600160a01b03167fc62fc35ac75e3bff532648e2859a3e1694002cfa357614ae8e034df7f83db5e98860405161083d919061463c565b60405180910390a361084f33856117f2565b610858816109de565b60075461086e906001600160a01b03168461093e565b610879873388612c5d565b5050505b60016006559392505050565b60048054604080516020601f60026000196101006001881615020190951694909404938401819004810282018101909252828152606093909290918301828280156109155780601f106108ea57610100808354040283529160200191610915565b820191906000526020600020905b8154815290600101906020018083116108f857829003601f168201915b5050505050905090565b33301461093e5760405162461bcd60e51b81526004016106b29061418a565b6109488282612ea6565b5050565b3360008181526002602090815260408083206001600160a01b038716808552925280832085905551919290916000805160206146c88339815191529061099390869061463c565b60405180910390a350600192915050565b6007546001600160a01b031681565b601a5481565b60005490565b3330146109de5760405162461bcd60e51b81526004016106b29061418a565b6109e781612eb1565b50565b60006001600160a01b038316610a125760405162461bcd60e51b81526004016106b2906142c9565b336001600160a01b0385161480610a4c57506001600160a01b03841660009081526002602090815260408083203384529091529020548211155b610a685760405162461bcd60e51b81526004016106b290614459565b610a73848484612f2b565b6001600160a01b0384166000818152600260209081526040808320338085529252909120549114801590610aa957506000198114155b15610b0b57610ab88184612c24565b6001600160a01b0386811660009081526002602090815260408083203380855292529182902084905590519187169290916000805160206146c883398151915291610b029161463c565b60405180910390a35b60019150505b9392505050565b336001600160a01b03166000356001600160e01b0319166001600160e01b031916600036604051610b4a929190613fa7565b60405180910390a260026006541415610b755760405162461bcd60e51b81526004016106b2906143a8565b60026006556005546001600160a01b03163314610ba45760405162461bcd60e51b81526004016106b29061418a565b6008546001600160a01b0316610bcc5760405162461bcd60e51b81526004016106b29061432a565b60095462010000900460ff16610bf45760405162461bcd60e51b81526004016106b2906142f3565b600e54600160a01b900460ff1615610c1e5760405162461bcd60e51b81526004016106b290614489565b6008546017546040516304ee2fc960e21b815273__$e9561d504b82fb1c7a2b5ba864c93772fd$__926313b8bf2492610c71926001600160a01b0390921691600a918a918a918a918a9190600401614007565b60006040518083038186803b158015610c8957600080fd5b505af4158015610c9d573d6000803e3d6000fd5b50506001600655505050505050565b601281565b6005546001600160a01b031690565b601290565b6040516322c1aa2560e11b815260009073__$65cfd2d5529dc81e7927c1d303488554ec$__90634583544a90610d029060099086906004016145a4565b60206040518083038186803b158015610d1a57600080fd5b505af4158015610d2e573d6000803e3d6000fd5b505050506040513d601f19601f82011682018060405250810190610d529190613cff565b92915050565b601454604051636c9b2a3f60e11b81526000916001600160a01b03169063d936547e90610d89903290600401613eaa565b60206040518083038186803b158015610da157600080fd5b505afa158015610db5573d6000803e3d6000fd5b505050506040513d601f19601f82011682018060405250810190610dd99190613cff565b610df55760405162461bcd60e51b81526004016106b29061427d565b336001600160a01b03166000356001600160e01b0319166001600160e01b031916600036604051610e27929190613fa7565b60405180910390a260026006541415610e525760405162461bcd60e51b81526004016106b2906143a8565b60026006556008546001600160a01b0316610e7f5760405162461bcd60e51b81526004016106b29061432a565b600854604051636a82d4a760e11b8152600091829173__$e9561d504b82fb1c7a2b5ba864c93772fd$__9163d505a94e91610ed09130916001600160a01b03909116908b908b908b9060040161409b565b604080518083038186803b158015610ee757600080fd5b505af4158015610efb573d6000803e3d6000fd5b505050506040513d601f19601f82011682018060405250810190610f1f9190613dd4565b915091508092506000610f328684612c24565b9050866001600160a01b0316336001600160a01b03167fc62fc35ac75e3bff532648e2859a3e1694002cfa357614ae8e034df7f83db5e986604051610f77919061463c565b60405180910390a3610f8933876117f2565b610f92816109de565b600754610fa8906001600160a01b03168461093e565b610879873386612c5d565b336001600160a01b03166000356001600160e01b0319166001600160e01b031916600036604051610fe5929190613fa7565b60405180910390a2600260065414156110105760405162461bcd60e51b81526004016106b2906143a8565b60026006556008546001600160a01b031661103d5760405162461bcd60e51b81526004016106b29061432a565b6005546001600160a01b031633146110675760405162461bcd60e51b81526004016106b29061418a565b60095465010000000000900460ff166110925760405162461bcd60e51b81526004016106b2906143cd565b336001600160a01b03167f6bc200110c7794738d401810b22ef824a2044a8ccb022d4ad8769840370331f5601a54836040516110cf929190614645565b60405180910390a2601a556001600655565b3330146111005760405162461bcd60e51b81526004016106b29061418a565b6109e781612fdc565b336001600160a01b03166000356001600160e01b0319166001600160e01b03191660003660405161113b929190613fa7565b60405180910390a2600260065414156111665760405162461bcd60e51b81526004016106b2906143a8565b60026006556005546001600160a01b031633146111955760405162461bcd60e51b81526004016106b29061418a565b6008546001600160a01b03166111bd5760405162461bcd60e51b81526004016106b29061432a565b6009546301000000900460ff166111e65760405162461bcd60e51b81526004016106b2906141b6565b600a54156112065760405162461bcd60e51b81526004016106b29061456d565b604051630e0d789b60e11b815273__$e9561d504b82fb1c7a2b5ba864c93772fd$__90631c1af1369061123d908690600401613eaa565b60006040518083038186803b15801561125557600080fd5b505af4158015611269573d6000803e3d6000fd5b50506040513392503091506001600160a01b038616907f33b043686b9408a355896fe90b2f8ecc86a41d87d1554ef65a739948b4f23e2790600090a460085460405163b489ec1960e01b815273__$e9561d504b82fb1c7a2b5ba864c93772fd$__9163b489ec19916112f0916001600160a01b031690879087908790600e90600401613fd6565b60006040518083038186803b15801561130857600080fd5b505af415801561131c573d6000803e3d6000fd5b505060016006555050505050565b601454604051636c9b2a3f60e11b81526001600160a01b039091169063d936547e9061135a903290600401613eaa565b60206040518083038186803b15801561137257600080fd5b505afa158015611386573d6000803e3d6000fd5b505050506040513d601f19601f820116820180604052508101906113aa9190613cff565b6113c65760405162461bcd60e51b81526004016106b29061427d565b336001600160a01b03166000356001600160e01b0319166001600160e01b0319166000366040516113f8929190613fa7565b60405180910390a2600260065414156114235760405162461bcd60e51b81526004016106b2906143a8565b60026006556008546001600160a01b03166114505760405162461bcd60e51b81526004016106b29061432a565b6008546040805163fde924f760e01b815290516000926001600160a01b03169163fde924f7916004808301926020929190829003018186803b15801561149557600080fd5b505afa1580156114a9573d6000803e3d6000fd5b505050506040513d601f19601f820116820180604052508101906114cd9190613cff565b6008546040516324dacaa960e11b81529192506001600160a01b0316906349b59552906114ff90600090600401613f64565b600060405180830381600087803b15801561151957600080fd5b505af115801561152d573d6000803e3d6000fd5b5050600954640100000000900460ff1615915081905061155c57503360009081526019602052604090205460ff165b8061157657503260009081526019602052604090205460ff165b6115925760405162461bcd60e51b81526004016106b290614222565b60085460405163a1925f1d60e01b815260609173__$e9561d504b82fb1c7a2b5ba864c93772fd$__9163a1925f1d916115df9130916001600160a01b0316908a908a908a906004016140cf565b60006040518083038186803b1580156115f757600080fd5b505af415801561160b573d6000803e3d6000fd5b505050506040513d6000823e601f3d908101601f191682016040526116339190810190613cc4565b90506060600860009054906101000a90046001600160a01b03166001600160a01b031663cc77828d6040518163ffffffff1660e01b815260040160006040518083038186803b15801561168557600080fd5b505afa158015611699573d6000803e3d6000fd5b505050506040513d6000823e601f3d908101601f191682016040526116c19190810190613bdc565b905060005b815181101561175f5760008282815181106116dd57fe5b6020026020010151905060008483815181106116f557fe5b60200260200101519050816001600160a01b0316336001600160a01b03167fea39e3b35c5cd8937999ed5f7fbab30acd562a931fc4a887fed2a47c3074aa7283604051611742919061463c565b60405180910390a3611755823383613009565b50506001016116c6565b5061176986611100565b611773338761093e565b50506008546040516324dacaa960e11b81526001600160a01b03909116906349b59552906117a5908490600401613f64565b600060405180830381600087803b1580156117bf57600080fd5b505af1158015610c9d573d6000803e3d6000fd5b3330146117f25760405162461bcd60e51b81526004016106b29061418a565b6109488282613252565b600a54600b5482565b601454604051636c9b2a3f60e11b81526000916001600160a01b03169063d936547e90611836903290600401613eaa565b60206040518083038186803b15801561184e57600080fd5b505afa158015611862573d6000803e3d6000fd5b505050506040513d601f19601f820116820180604052508101906118869190613cff565b6118a25760405162461bcd60e51b81526004016106b29061427d565b336001600160a01b03166000356001600160e01b0319166001600160e01b0319166000366040516118d4929190613fa7565b60405180910390a2600260065414156118ff5760405162461bcd60e51b81526004016106b2906143a8565b60026006556008546001600160a01b031661192c5760405162461bcd60e51b81526004016106b29061432a565b600954640100000000900460ff16158061195557503360009081526019602052604090205460ff165b8061196f57503260009081526019602052604090205460ff165b61198b5760405162461bcd60e51b81526004016106b290614222565b60085460405163df90de0b60e01b815273__$e9561d504b82fb1c7a2b5ba864c93772fd$__9163df90de0b916119d79130916001600160a01b039091169089908990899060040161409b565b60206040518083038186803b1580156119ef57600080fd5b505af4158015611a03573d6000803e3d6000fd5b505050506040513d601f19601f82011682018060405250810190611a279190613d72565b9050836001600160a01b0316336001600160a01b03167fea39e3b35c5cd8937999ed5f7fbab30acd562a931fc4a887fed2a47c3074aa7285604051611a6c919061463c565b60405180910390a3611a7d81611100565b611a87338261093e565b61087d843385613009565b336001600160a01b03166000356001600160e01b0319166001600160e01b031916600036604051611ac4929190613fa7565b60405180910390a260026006541415611aef5760405162461bcd60e51b81526004016106b2906143a8565b60026006556005546001600160a01b03163314611b1e5760405162461bcd60e51b81526004016106b29061418a565b6008546001600160a01b0316611b465760405162461bcd60e51b81526004016106b29061432a565b6009546301000000900460ff16611b6f5760405162461bcd60e51b81526004016106b2906141b6565b600e54600160a01b900460ff1615611b995760405162461bcd60e51b81526004016106b2906144b8565b600a5415611bb95760405162461bcd60e51b81526004016106b29061456d565b600854604051630970e47f60e01b815273__$e9561d504b82fb1c7a2b5ba864c93772fd$__91630970e47f91611c019130916001600160a01b0390911690869060040161404e565b60006040518083038186803b158015611c1957600080fd5b505af4158015611c2d573d6000803e3d6000fd5b50506001600655505050565b3360009081526002602090815260408083206001600160a01b0386168452909152812054808310611c8d573360009081526002602090815260408083206001600160a01b0388168452909152812055611cbc565b611c978184612c24565b3360009081526002602090815260408083206001600160a01b03891684529091529020555b3360008181526002602090815260408083206001600160a01b0389168085529252918290205491519092916000805160206146c883398151915291611d01919061463c565b60405180910390a35060019392505050565b601454604051636c9b2a3f60e11b81526000916001600160a01b03169063d936547e90611d44903290600401613eaa565b60206040518083038186803b158015611d5c57600080fd5b505afa158015611d70573d6000803e3d6000fd5b505050506040513d601f19601f82011682018060405250810190611d949190613cff565b611db05760405162461bcd60e51b81526004016106b29061427d565b336001600160a01b03166000356001600160e01b0319166001600160e01b031916600036604051611de2929190613fa7565b60405180910390a260026006541415611e0d5760405162461bcd60e51b81526004016106b2906143a8565b60026006556008546001600160a01b0316611e3a5760405162461bcd60e51b81526004016106b29061432a565b600954640100000000900460ff161580611e6357503360009081526019602052604090205460ff165b80611e7d57503260009081526019602052604090205460ff165b611e995760405162461bcd60e51b81526004016106b290614222565b600854604051636a6dc6e760e01b815273__$e9561d504b82fb1c7a2b5ba864c93772fd$__91636a6dc6e791611ee59130916001600160a01b039091169089908990899060040161409b565b60206040518083038186803b158015611efd57600080fd5b505af4158015611f11573d6000803e3d6000fd5b505050506040513d601f19601f82011682018060405250810190611f359190613d72565b9050836001600160a01b0316336001600160a01b03167fea39e3b35c5cd8937999ed5f7fbab30acd562a931fc4a887fed2a47c3074aa7283604051611f7a919061463c565b60405180910390a3611f8b83611100565b611f95338461093e565b61087d843383613009565b6001600160a01b031660009081526001602052604090205490565b73__$65cfd2d5529dc81e7927c1d303488554ec$__90565b6005546001600160a01b03163314611ffd5760405162461bcd60e51b81526004016106b29061418a565b336001600160a01b03166000356001600160e01b0319166001600160e01b03191660003660405161202f929190613fa7565b60405180910390a26002600654141561205a5760405162461bcd60e51b81526004016106b2906143a8565b60026006556120688161325d565b506001600655565b6005546001600160a01b0316331461209a5760405162461bcd60e51b81526004016106b29061418a565b6001600160a01b0381166120c05760405162461bcd60e51b81526004016106b2906142c9565b6005546040516001600160a01b038084169216907f8be0079c531659141344cd1fd0a4f28419497f9722a3daafe3b4186f6b6457e090600090a3600580546001600160a01b0319166001600160a01b0392909216919091179055565b60038054604080516020601f60026000196101006001881615020190951694909404938401819004810282018101909252828152606093909290918301828280156109155780601f106108ea57610100808354040283529160200191610915565b336001600160a01b03166000356001600160e01b0319166001600160e01b0319166000366040516121af929190613fa7565b60405180910390a2600260065414156121da5760405162461bcd60e51b81526004016106b2906143a8565b60026006556005546001600160a01b031633146122095760405162461bcd60e51b81526004016106b29061418a565b6008546001600160a01b03166122315760405162461bcd60e51b81526004016106b29061432a565b60095462010000900460ff166122595760405162461bcd60e51b81526004016106b2906142f3565b600a54156122795760405162461bcd60e51b81526004016106b29061456d565b600854604051633d512a8760e21b815273__$e9561d504b82fb1c7a2b5ba864c93772fd$__9163f544aa1c916122c39130916001600160a01b039091169087908790600401614071565b60006040518083038186803b1580156122db57600080fd5b505af41580156122ef573d6000803e3d6000fd5b5050600160065550505050565b60095460ff80821691610100810482169162010000820481169163010000008104821691640100000000820481169165010000000000810482169166010000000000009091041687565b73__$6550267eda8640387f6ec1d8d067b7c635$__90565b73__$e9561d504b82fb1c7a2b5ba864c93772fd$__90565b6040518060400160405280601381526020017210985b185b98d95c8814db585c9d08141bdbdb606a1b81525081565b6101f481565b60006001600160a01b0383166123d35760405162461bcd60e51b81526004016106b2906142c9565b6123de338484612f2b565b50600192915050565b601454604051636c9b2a3f60e11b81526001600160a01b039091169063d936547e90612417903290600401613eaa565b60206040518083038186803b15801561242f57600080fd5b505afa158015612443573d6000803e3d6000fd5b505050506040513d601f19601f820116820180604052508101906124679190613cff565b6124835760405162461bcd60e51b81526004016106b29061427d565b336001600160a01b03166000356001600160e01b0319166001600160e01b0319166000366040516124b5929190613fa7565b60405180910390a2600260065414156124e05760405162461bcd60e51b81526004016106b2906143a8565b60026006556008546001600160a01b031661250d5760405162461bcd60e51b81526004016106b29061432a565b6008546040805163fde924f760e01b815290516000926001600160a01b03169163fde924f7916004808301926020929190829003018186803b15801561255257600080fd5b505afa158015612566573d6000803e3d6000fd5b505050506040513d601f19601f8201168201806040525081019061258a9190613cff565b6008546040516324dacaa960e11b81529192506001600160a01b0316906349b59552906125bc90600090600401613f64565b600060405180830381600087803b1580156125d657600080fd5b505af11580156125ea573d6000803e3d6000fd5b505060085460405163151c70f960e21b81526000935083925060609173__$e9561d504b82fb1c7a2b5ba864c93772fd$__91635471c3e4916126409130916001600160a01b0316908c908c908c906004016140cf565b60006040518083038186803b15801561265857600080fd5b505af415801561266c573d6000803e3d6000fd5b505050506040513d6000823e601f3d908101601f191682016040526126949190810190613df7565b9250925092506126a433886117f2565b6007546126ba906001600160a01b03168461093e565b6126c3826109de565b6008546040805163cc77828d60e01b815290516060926001600160a01b03169163cc77828d916004808301926000929190829003018186803b15801561270857600080fd5b505afa15801561271c573d6000803e3d6000fd5b505050506040513d6000823e601f3d908101601f191682016040526127449190810190613bdc565b905060005b81518110156127e257600082828151811061276057fe5b60200260200101519050600084838151811061277857fe5b60200260200101519050816001600160a01b0316336001600160a01b03167fc62fc35ac75e3bff532648e2859a3e1694002cfa357614ae8e034df7f83db5e9836040516127c5919061463c565b60405180910390a36127d8823383612c5d565b5050600101612749565b50506008546040516324dacaa960e11b81526001600160a01b0390911693506349b5955292506117a591508490600401613f64565b6008546001600160a01b031681565b336001600160a01b03166000356001600160e01b0319166001600160e01b031916600036604051612858929190613fa7565b60405180910390a2600260065414156128835760405162461bcd60e51b81526004016106b2906143a8565b60026006556005546001600160a01b031633146128b25760405162461bcd60e51b81526004016106b29061418a565b6008546001600160a01b03166128da5760405162461bcd60e51b81526004016106b29061432a565b6009546301000000900460ff166129035760405162461bcd60e51b81526004016106b2906141b6565b600854601854604051633be961dd60e21b815273__$e9561d504b82fb1c7a2b5ba864c93772fd$__9263efa587749261294e9230926001600160a01b03169190600e9060040161410e565b60006040518083038186803b15801561296657600080fd5b505af415801561297a573d6000803e3d6000fd5b505060016006555050565b6005546001600160a01b031633146129af5760405162461bcd60e51b81526004016106b29061418a565b336001600160a01b03166000356001600160e01b0319166001600160e01b0319166000366040516129e1929190613fa7565b60405180910390a260026006541415612a0c5760405162461bcd60e51b81526004016106b2906143a8565b600260065580821015612a315760405162461bcd60e51b81526004016106b2906141ed565b60178290556018819055612a448361325d565b5050600160065550565b600e54600f546010546011546001600160a01b03841693600160a01b900460ff1692919085565b3360009081526002602090815260408083206001600160a01b0386168452909152812054612aa390836137d8565b3360008181526002602090815260408083206001600160a01b038916808552925291829020849055905190926000805160206146c883398151915291610993919061463c565b6001600160a01b03918216600090815260026020908152604080832093909416825291909152205490565b336001600160a01b03166000356001600160e01b0319166001600160e01b031916600036604051612b46929190613fa7565b60405180910390a260026006541415612b715760405162461bcd60e51b81526004016106b2906143a8565b60026006556008546001600160a01b0316612b9e5760405162461bcd60e51b81526004016106b29061432a565b60095462010000900460ff16612bc65760405162461bcd60e51b81526004016106b2906142f3565b6008546040516382495b4560e01b815273__$e9561d504b82fb1c7a2b5ba864c93772fd$__916382495b459161294e916001600160a01b031690600a90600401613f2a565b60185481565b60175481565b62015f9081565b3b151590565b6000806000612c3385856137fd565b915091508015612c555760405162461bcd60e51b81526004016106b290614518565b509392505050565b6008546001600160a01b0316612c855760405162461bcd60e51b81526004016106b29061432a565b60085460405163f8b2cb4f60e01b81526000916001600160a01b03169063f8b2cb4f90612cb6908790600401613eaa565b60206040518083038186803b158015612cce57600080fd5b505afa158015612ce2573d6000803e3d6000fd5b505050506040513d601f19601f82011682018060405250810190612d069190613d72565b600854604051634a46c67360e11b81529192506000916001600160a01b039091169063948d8ce690612d3c908890600401613eaa565b60206040518083038186803b158015612d5457600080fd5b505afa158015612d68573d6000803e3d6000fd5b505050506040513d601f19601f82011682018060405250810190612d8c9190613d72565b6008549091506001600160a01b0316633fdddaa286612dab8587612c24565b846040518463ffffffff1660e01b8152600401612dca93929190613f43565b600060405180830381600087803b158015612de457600080fd5b505af1158015612df8573d6000803e3d6000fd5b505060405163a9059cbb60e01b8152600092506001600160a01b038816915063a9059cbb90612e2d9088908890600401613f2a565b602060405180830381600087803b158015612e4757600080fd5b505af1158015612e5b573d6000803e3d6000fd5b505050506040513d601f19601f82011682018060405250810190612e7f9190613cff565b905080612e9e5760405162461bcd60e51b81526004016106b2906144ef565b505050505050565b610948308383612f2b565b30600090815260016020526040902054612ecb9082612c24565b3060009081526001602052604081209190915554612ee99082612c24565b600090815560405130907fddf252ad1be2c89b69c2b068fc378daa952ba7f163c4a11628f55a4df523b3ef90612f2090859061463c565b60405180910390a350565b6001600160a01b038316600090815260016020526040902054612f4e9082612c24565b6001600160a01b038085166000908152600160205260408082209390935590841681522054612f7d90826137d8565b6001600160a01b0380841660008181526001602052604090819020939093559151908516907fddf252ad1be2c89b69c2b068fc378daa952ba7f163c4a11628f55a4df523b3ef90612fcf90859061463c565b60405180910390a3505050565b612fe581613822565b601a5460005411156109e75760405162461bcd60e51b81526004016106b29061442a565b6008546001600160a01b03166130315760405162461bcd60e51b81526004016106b29061432a565b60085460405163f8b2cb4f60e01b81526000916001600160a01b03169063f8b2cb4f90613062908790600401613eaa565b60206040518083038186803b15801561307a57600080fd5b505afa15801561308e573d6000803e3d6000fd5b505050506040513d601f19601f820116820180604052508101906130b29190613d72565b600854604051634a46c67360e11b81529192506000916001600160a01b039091169063948d8ce6906130e8908890600401613eaa565b60206040518083038186803b15801561310057600080fd5b505afa158015613114573d6000803e3d6000fd5b505050506040513d601f19601f820116820180604052508101906131389190613d72565b90506000856001600160a01b03166323b872dd8630876040518463ffffffff1660e01b815260040161316c93929190613ebe565b602060405180830381600087803b15801561318657600080fd5b505af115801561319a573d6000803e3d6000fd5b505050506040513d601f19601f820116820180604052508101906131be9190613cff565b9050806131dd5760405162461bcd60e51b81526004016106b2906144ef565b6008546001600160a01b0316633fdddaa2876131f986886137d8565b856040518463ffffffff1660e01b815260040161321893929190613f43565b600060405180830381600087803b15801561323257600080fd5b505af1158015613246573d6000803e3d6000fd5b50505050505050505050565b610948823083612f2b565b6008546001600160a01b0316156132865760405162461bcd60e51b81526004016106b290614353565b68056bc75e2d631000008110156132af5760405162461bcd60e51b81526004016106b29061437b565b6b033b2e3c9fd0803ce80000008111156132db5760405162461bcd60e51b81526004016106b290614250565b60095465010000000000900460ff16156132f557601a8190555b6132fe81611100565b613308338261093e565b600760009054906101000a90046001600160a01b03166001600160a01b031663d556c5dc6040518163ffffffff1660e01b8152600401602060405180830381600087803b15801561335857600080fd5b505af115801561336c573d6000803e3d6000fd5b505050506040513d601f19601f820116820180604052508101906133909190613d1f565b600880546001600160a01b0319166001600160a01b0392831617908190556040805163632c068960e11b81529051919092169163c6580d12916004808301926020929190829003018186803b1580156133e857600080fd5b505afa1580156133fc573d6000803e3d6000fd5b505050506040513d601f19601f820116820180604052508101906134209190613d72565b1561343d5760405162461bcd60e51b81526004016106b2906143fc565b60005b6015548110156135ff5760006015828154811061345957fe5b6000918252602082200154601680546001600160a01b039092169350908490811061348057fe5b906000526020600020015490506000600a600201848154811061349f57fe5b60009182526020822001546040516323b872dd60e01b81529092506001600160a01b038516906323b872dd906134dd90339030908890600401613ebe565b602060405180830381600087803b1580156134f757600080fd5b505af115801561350b573d6000803e3d6000fd5b505050506040513d601f19601f8201168201806040525081019061352f9190613cff565b90508061354e5760405162461bcd60e51b81526004016106b2906144ef565b60085461356a906001600160a01b038681169116600019613892565b9050806135895760405162461bcd60e51b81526004016106b2906144ef565b600854604051631c9c3ca760e31b81526001600160a01b039091169063e4e1e538906135bd90879087908790600401613f43565b600060405180830381600087803b1580156135d757600080fd5b505af11580156135eb573d6000803e3d6000fd5b505060019096019550613440945050505050565b505b6015541561363b57601580548061361457fe5b600082815260209020810160001990810180546001600160a01b0319169055019055613601565b6008546012546040516334e1990760e01b81526001600160a01b03909216916334e199079161366c9160040161463c565b600060405180830381600087803b15801561368657600080fd5b505af115801561369a573d6000803e3d6000fd5b50506008546040516324dacaa960e11b81526001600160a01b0390911692506349b5955291506136cf90600190600401613f64565b600060405180830381600087803b1580156136e957600080fd5b505af11580156136fd573d6000803e3d6000fd5b505060085460135460405163787dce3d60e01b81526001600160a01b03909216935063787dce3d92506137329160040161463c565b600060405180830381600087803b15801561374c57600080fd5b505af1158015613760573d6000803e3d6000fd5b505060085460145460405163e8d56b8b60e01b81526001600160a01b03928316945063e8d56b8b93506137999290911690600401613eaa565b600060405180830381600087803b1580156137b357600080fd5b505af11580156137c7573d6000803e3d6000fd5b505060006012819055601355505050565b600082820183811015610b115760405162461bcd60e51b81526004016106b290614543565b600080838311613813575050808203600061381b565b505081810360015b9250929050565b3060009081526001602052604090205461383c90826137d8565b306000908152600160205260408120919091555461385a90826137d8565b60009081556040513091907fddf252ad1be2c89b69c2b068fc378daa952ba7f163c4a11628f55a4df523b3ef90612f2090859061463c565b600080846001600160a01b031663dd62ed3e30866040518363ffffffff1660e01b81526004016138c3929190613ee2565b60206040518083038186803b1580156138db57600080fd5b505afa1580156138ef573d6000803e3d6000fd5b505050506040513d601f19601f820116820180604052508101906139139190613d72565b905082811415613927576001915050610b11565b80156139b05760405163095ea7b360e01b81526001600160a01b0386169063095ea7b39061395c908790600090600401613f2a565b602060405180830381600087803b15801561397657600080fd5b505af115801561398a573d6000803e3d6000fd5b505050506040513d601f19601f820116820180604052508101906139ae9190613cff565b505b60405163095ea7b360e01b81526001600160a01b0386169063095ea7b3906139de9087908790600401613f2a565b602060405180830381600087803b1580156139f857600080fd5b505af1158015613a0c573d6000803e3d6000fd5b505050506040513d601f19601f82011682018060405250810190613a309190613cff565b95945050505050565b60008083601f840112613a4a578081fd5b50813567ffffffffffffffff811115613a61578182fd5b602083019150836020808302850101111561381b57600080fd5b600082601f830112613a8b578081fd5b8151613a9e613a9982614688565b614661565b818152915060208083019084810181840286018201871015613abf57600080fd5b60005b84811015613ade57815184529282019290820190600101613ac2565b505050505092915050565b600060208284031215613afa578081fd5b8135610b11816146b2565b60008060408385031215613b17578081fd5b8235613b22816146b2565b91506020830135613b32816146b2565b809150509250929050565b600080600060608486031215613b51578081fd5b8335613b5c816146b2565b92506020840135613b6c816146b2565b929592945050506040919091013590565b60008060408385031215613b8f578182fd5b8235613b9a816146b2565b946020939093013593505050565b600080600060608486031215613bbc578283fd5b8335613bc7816146b2565b95602085013595506040909401359392505050565b60006020808385031215613bee578182fd5b825167ffffffffffffffff811115613c04578283fd5b8301601f81018513613c14578283fd5b8051613c22613a9982614688565b8181528381019083850185840285018601891015613c3e578687fd5b8694505b83851015613c69578051613c55816146b2565b835260019490940193918501918501613c42565b50979650505050505050565b60008060008060608587031215613c8a578081fd5b843567ffffffffffffffff811115613ca0578182fd5b613cac87828801613a39565b90989097506020870135966040013595509350505050565b600060208284031215613cd5578081fd5b815167ffffffffffffffff811115613ceb578182fd5b613cf784828501613a7b565b949350505050565b600060208284031215613d10578081fd5b81518015158114610b11578182fd5b600060208284031215613d30578081fd5b8151610b11816146b2565b600060208284031215613d4c578081fd5b813560078110610b11578182fd5b600060208284031215613d6b578081fd5b5035919050565b600060208284031215613d83578081fd5b5051919050565b600080600060408486031215613d9e578283fd5b83359250602084013567ffffffffffffffff811115613dbb578283fd5b613dc786828701613a39565b9497909650939450505050565b60008060408385031215613de6578182fd5b505080516020909101519092909150565b600080600060608486031215613e0b578081fd5b8351925060208401519150604084015167ffffffffffffffff811115613e2f578182fd5b613e3b86828701613a7b565b9150509250925092565b600080600060608486031215613e59578081fd5b505081359360208301359350604090920135919050565b81835260006001600160fb1b03831115613e88578081fd5b6020830280836020870137939093016020019283525090919050565b15159052565b6001600160a01b0391909116815260200190565b6001600160a01b039384168152919092166020820152604081019190915260600190565b6001600160a01b0392831681529116602082015260400190565b6001600160a01b03959095168552921515602085015260408401919091526060830152608082015260a00190565b6001600160a01b03929092168252602082015260400190565b6001600160a01b039390931683526020830191909152604082015260600190565b901515815260200190565b961515875294151560208701529215156040860152901515606085015215156080840152151560a0830152151560c082015260e00190565b60006020825282602083015282846040840137818301604090810191909152601f909201601f19160101919050565b6001600160a01b03958616815293909416602084015260408301919091526060820152608081019190915260a00190565b600060018060a01b038916825287602083015260c0604083015261402f60c083018789613e70565b606083019590955250608081019290925260a090910152949350505050565b6001600160a01b0393841681529183166020830152909116604082015260600190565b6001600160a01b039485168152928416602084015292166040820152606081019190915260800190565b6001600160a01b03958616815293851660208501529190931660408301526060820192909252608081019190915260a00190565b6001600160a01b03868116825285166020820152604081018490526080606082018190526000906141039083018486613e70565b979650505050505050565b6001600160a01b0394851681529290931660208301526040820152606081019190915260800190565b6000602080835283518082850152825b8181101561416357858101830151858201604001528201614147565b818111156141745783604083870101525b50601f01601f1916929092016040019392505050565b60208082526012908201527122a9292fa727aa2fa1a7a72a2927a62622a960711b604082015260600190565b6020808252601c908201527f4552525f43414e4e4f545f4144445f52454d4f56455f544f4b454e5300000000604082015260600190565b6020808252818101527f4552525f494e434f4e53495354454e545f544f4b454e5f54494d455f4c4f434b604082015260600190565b60208082526014908201527311549497d393d517d3d397d5d2125511531254d560621b604082015260600190565b60208082526013908201527208aa4a4be929c92a8bea6aaa0a098b2be9a82b606b1b604082015260600190565b6020808252602c908201527f464358416363657373436f6e74726f6c3a2073656e646572206973206e6f742060408201526b1a5b881dda1a5d195b1a5cdd60a21b606082015260800190565b60208082526010908201526f4552525f5a45524f5f4144445245535360801b604082015260600190565b6020808252601c908201527f4552525f4e4f545f434f4e464947555241424c455f5745494748545300000000604082015260600190565b6020808252600f908201526e11549497d393d517d0d49150551151608a1b604082015260600190565b6020808252600e908201526d11549497d254d7d0d4915055115160921b604082015260600190565b60208082526013908201527222a9292fa4a724aa2fa9aaa828262cafa6a4a760691b604082015260600190565b6020808252600b908201526a4552525f5245454e54525960a81b604082015260600190565b60208082526015908201527404552525f43414e4e4f545f4348414e47455f43415605c1b604082015260600190565b6020808252601490820152734552525f4e4f4e5a45524f5f455849545f46454560601b604082015260600190565b60208082526015908201527411549497d0d05417d31253525517d4915050d21151605a1b604082015260600190565b60208082526016908201527522a9292fa821aa27a5a2a72fa120a22fa1a0a62622a960511b604082015260600190565b60208082526015908201527411549497d4115391125391d7d513d2d15397d05111605a1b604082015260600190565b6020808252601b908201527f4552525f52454d4f56455f574954485f4144445f50454e44494e470000000000604082015260600190565b6020808252600f908201526e4552525f45524332305f46414c534560881b604082015260600190565b6020808252601190820152704552525f5355425f554e444552464c4f5760781b604082015260600190565b60208082526010908201526f4552525f4144445f4f564552464c4f5760801b604082015260600190565b6020808252601c908201527f4552525f4e4f5f5550444154455f445552494e475f4752414455414c00000000604082015260600190565b600061010082019050835460ff808216151584526145ca60208501828460081c16613ea4565b6145dc60408501828460101c16613ea4565b6145ee60608501828460181c16613ea4565b61460060808501828460201c16613ea4565b61461260a08501828460281c16613ea4565b61462460c08501828460301c16613ea4565b505061462f836146a8565b8260e08301529392505050565b90815260200190565b918252602082015260400190565b60ff91909116815260200190565b60405181810167ffffffffffffffff8111828210171561468057600080fd5b604052919050565b600067ffffffffffffffff82111561469e578081fd5b5060209081020190565b600781106109e757fe5b6001600160a01b03811681146109e757600080fdfe8c5be1e5ebec7d5bd14f71427d1e84f3dd0314c0f7b2291e5b200ac8c7c3b925a26469706673582212204f79656ea2dadc66de91b50d42eda1365ddc31de95bc05f67a3d82c63c80766864736f6c634300060c0033a264697066735822122032a723b4558a3c27854af2ad7d6fed7e80efe39144ab27ef662e85641b40d9ec64736f6c634300060c0033",
  "libraries": {
    "BalancerSafeMath": "0x89C3101E82f2B71ad8f3a23127752709BE35b67D",
    "RightsManager": "0x9Fd5e70828D2157990A7ccB8E7AAe625fAB84de2",
    "SmartPoolManager": "0x00098026682c3B24f9aD5e60311Ce7A0cb753b44"
  },
  "devdoc": {
    "author": "Balancer Labs",
    "details": "Rights are held in a corresponding struct in ConfigurableRightsPool      Index values are as follows:      0: canPauseSwapping - can setPublicSwap back to false after turning it on                            by default, it is off on initialization and can only be turned on      1: canChangeSwapFee - can setSwapFee after initialization (by default, it is fixed at create time)      2: canChangeWeights - can bind new token weights (allowed by default in base pool)      3: canAddRemoveTokens - can bind/unbind tokens (allowed by default in base pool)      4: canWhitelistLPs - if set, only whitelisted addresses can join pools                           (enables private pools with more than one LP)      5: canChangeCap - can change the BSP cap (max # of pool tokens)",
    "kind": "dev",
    "methods": {
      "isCrp(address)": {
        "params": {
          "addr": "- address to check"
        },
        "returns": {
          "_0": "boolean indicating whether it is a CRP"
        }
      },
      "newCrp(address,(string,string,address[],uint256[],uint256[],uint256,uint256),(bool,bool,bool,bool,bool,bool,bool))": {
        "details": "emits a LogNewCRP event",
        "params": {
          "factoryAddress": "- the BFactory instance used to create the underlying pool",
          "poolParams": "- struct containing the names, tokens, weights, balances, and swap fee",
          "rights": "- struct of permissions, configuring this CRP instance (see above for definitions)"
        }
      }
    },
    "title": "Configurable Rights Pool Factory - create parameterized smart pools",
    "version": 1
  },
  "userdoc": {
    "kind": "user",
    "methods": {
      "isCrp(address)": {
        "notice": "Check to see if a given address is a CRP"
      },
      "newCrp(address,(string,string,address[],uint256[],uint256[],uint256,uint256),(bool,bool,bool,bool,bool,bool,bool))": {
        "notice": "Create a new CRP"
      }
    },
    "version": 1
  },
  "storageLayout": {
    "storage": [
      {
        "astId": 2039,
        "contract": "contracts/CRPFactory.sol:CRPFactory",
        "label": "_isCrp",
        "offset": 0,
        "slot": "0",
        "type": "t_mapping(t_address,t_bool)"
      },
      {
        "astId": 2041,
        "contract": "contracts/CRPFactory.sol:CRPFactory",
        "label": "_accessAddress",
        "offset": 0,
        "slot": "1",
        "type": "t_address"
      },
      {
        "astId": 2043,
        "contract": "contracts/CRPFactory.sol:CRPFactory",
        "label": "_logic",
        "offset": 0,
        "slot": "2",
        "type": "t_address"
      }
    ],
    "types": {
      "t_address": {
        "encoding": "inplace",
        "label": "address",
        "numberOfBytes": "20"
      },
      "t_bool": {
        "encoding": "inplace",
        "label": "bool",
        "numberOfBytes": "1"
      },
      "t_mapping(t_address,t_bool)": {
        "encoding": "mapping",
        "key": "t_address",
        "label": "mapping(address => bool)",
        "numberOfBytes": "32",
        "value": "t_bool"
      }
    }
  }
}