{
  "address": "0xFB2b87255Aac30a0B66f75330B428a62351C8A75",
  "abi": [
    {
      "inputs": [
        {
          "internalType": "address",
          "name": "adminAddress",
          "type": "address"
        },
        {
          "internalType": "address[]",
          "name": "restrictedAddresses",
          "type": "address[]"
        },
        {
          "internalType": "address[]",
          "name": "unrestrictedAddresses",
          "type": "address[]"
        }
      ],
      "stateMutability": "nonpayable",
      "type": "constructor"
    },
    {
      "anonymous": false,
      "inputs": [
        {
          "indexed": true,
          "internalType": "bytes32",
          "name": "role",
          "type": "bytes32"
        },
        {
          "indexed": true,
          "internalType": "bytes32",
          "name": "previousAdminRole",
          "type": "bytes32"
        },
        {
          "indexed": true,
          "internalType": "bytes32",
          "name": "newAdminRole",
          "type": "bytes32"
        }
      ],
      "name": "RoleAdminChanged",
      "type": "event"
    },
    {
      "anonymous": false,
      "inputs": [
        {
          "indexed": true,
          "internalType": "bytes32",
          "name": "role",
          "type": "bytes32"
        },
        {
          "indexed": true,
          "internalType": "address",
          "name": "account",
          "type": "address"
        },
        {
          "indexed": true,
          "internalType": "address",
          "name": "sender",
          "type": "address"
        }
      ],
      "name": "RoleGranted",
      "type": "event"
    },
    {
      "anonymous": false,
      "inputs": [
        {
          "indexed": true,
          "internalType": "bytes32",
          "name": "role",
          "type": "bytes32"
        },
        {
          "indexed": true,
          "internalType": "address",
          "name": "account",
          "type": "address"
        },
        {
          "indexed": true,
          "internalType": "address",
          "name": "sender",
          "type": "address"
        }
      ],
      "name": "RoleRevoked",
      "type": "event"
    },
    {
      "inputs": [],
      "name": "ADMIN_ROLE",
      "outputs": [
        {
          "internalType": "bytes32",
          "name": "",
          "type": "bytes32"
        }
      ],
      "stateMutability": "view",
      "type": "function"
    },
    {
      "inputs": [],
      "name": "DEFAULT_ADMIN_ROLE",
      "outputs": [
        {
          "internalType": "bytes32",
          "name": "",
          "type": "bytes32"
        }
      ],
      "stateMutability": "view",
      "type": "function"
    },
    {
      "inputs": [],
      "name": "RESTRICTED_ROLE",
      "outputs": [
        {
          "internalType": "bytes32",
          "name": "",
          "type": "bytes32"
        }
      ],
      "stateMutability": "view",
      "type": "function"
    },
    {
      "inputs": [],
      "name": "SUPER_ADMIN_ROLE",
      "outputs": [
        {
          "internalType": "bytes32",
          "name": "",
          "type": "bytes32"
        }
      ],
      "stateMutability": "view",
      "type": "function"
    },
    {
      "inputs": [],
      "name": "UNRESTRICTED_ROLE",
      "outputs": [
        {
          "internalType": "bytes32",
          "name": "",
          "type": "bytes32"
        }
      ],
      "stateMutability": "view",
      "type": "function"
    },
    {
      "inputs": [
        {
          "internalType": "address[]",
          "name": "accounts",
          "type": "address[]"
        }
      ],
      "name": "blacklist",
      "outputs": [],
      "stateMutability": "nonpayable",
      "type": "function"
    },
    {
      "inputs": [
        {
          "internalType": "bytes32",
          "name": "role",
          "type": "bytes32"
        }
      ],
      "name": "getRoleAdmin",
      "outputs": [
        {
          "internalType": "bytes32",
          "name": "",
          "type": "bytes32"
        }
      ],
      "stateMutability": "view",
      "type": "function"
    },
    {
      "inputs": [
        {
          "internalType": "bytes32",
          "name": "role",
          "type": "bytes32"
        },
        {
          "internalType": "uint256",
          "name": "index",
          "type": "uint256"
        }
      ],
      "name": "getRoleMember",
      "outputs": [
        {
          "internalType": "address",
          "name": "",
          "type": "address"
        }
      ],
      "stateMutability": "view",
      "type": "function"
    },
    {
      "inputs": [
        {
          "internalType": "bytes32",
          "name": "role",
          "type": "bytes32"
        }
      ],
      "name": "getRoleMemberCount",
      "outputs": [
        {
          "internalType": "uint256",
          "name": "",
          "type": "uint256"
        }
      ],
      "stateMutability": "view",
      "type": "function"
    },
    {
      "inputs": [
        {
          "internalType": "address",
          "name": "account",
          "type": "address"
        }
      ],
      "name": "getRoles",
      "outputs": [
        {
          "internalType": "bytes32[]",
          "name": "",
          "type": "bytes32[]"
        }
      ],
      "stateMutability": "view",
      "type": "function"
    },
    {
      "inputs": [
        {
          "internalType": "bytes32",
          "name": "role",
          "type": "bytes32"
        },
        {
          "internalType": "address",
          "name": "account",
          "type": "address"
        }
      ],
      "name": "grantRole",
      "outputs": [],
      "stateMutability": "nonpayable",
      "type": "function"
    },
    {
      "inputs": [
        {
          "components": [
            {
              "internalType": "address",
              "name": "account",
              "type": "address"
            },
            {
              "internalType": "bytes32",
              "name": "role",
              "type": "bytes32"
            }
          ],
          "internalType": "struct FCXAccessControl.GrantParams[]",
          "name": "params",
          "type": "tuple[]"
        }
      ],
      "name": "grantRoles",
      "outputs": [],
      "stateMutability": "nonpayable",
      "type": "function"
    },
    {
      "inputs": [
        {
          "internalType": "bytes32",
          "name": "role",
          "type": "bytes32"
        },
        {
          "internalType": "address",
          "name": "account",
          "type": "address"
        }
      ],
      "name": "hasRole",
      "outputs": [
        {
          "internalType": "bool",
          "name": "",
          "type": "bool"
        }
      ],
      "stateMutability": "view",
      "type": "function"
    },
    {
      "inputs": [
        {
          "internalType": "bytes32",
          "name": "role",
          "type": "bytes32"
        },
        {
          "internalType": "address",
          "name": "account",
          "type": "address"
        }
      ],
      "name": "renounceRole",
      "outputs": [],
      "stateMutability": "nonpayable",
      "type": "function"
    },
    {
      "inputs": [
        {
          "internalType": "bytes32",
          "name": "role",
          "type": "bytes32"
        },
        {
          "internalType": "address",
          "name": "account",
          "type": "address"
        }
      ],
      "name": "revokeRole",
      "outputs": [],
      "stateMutability": "nonpayable",
      "type": "function"
    },
    {
      "inputs": [
        {
          "internalType": "address",
          "name": "account",
          "type": "address"
        }
      ],
      "name": "whitelisted",
      "outputs": [
        {
          "internalType": "bool",
          "name": "",
          "type": "bool"
        }
      ],
      "stateMutability": "view",
      "type": "function"
    }
  ],
  "transactionHash": "0x517e392b2bbb7f5901c037df2466d3b33150236b2db8cad024e3ec8b92554486",
  "args": [
    "0xf29162ed5Ed4Da23656C5190aae71e61Bb074AeC",
    [],
    []
  ],
  "solcInputHash": "47a48e3fded8a512a17f386cfbcb5bcc",
  "bytecode": "0x60806040523480156200001157600080fd5b5060405162001321380380620013218339810160408190526200003491620003b0565b6200004f600080516020620012a18339815191528062000190565b62000079600080516020620012c1833981519152600080516020620012a183398151915262000190565b620000a360008051602062001301833981519152600080516020620012c183398151915262000190565b620000cd600080516020620012e1833981519152600080516020620012c183398151915262000190565b620000e8600080516020620012a183398151915284620001e2565b62000103600080516020620012c183398151915284620001e2565b60005b82518110156200014e5762000145600080516020620013018339815191528483815181106200013157fe5b6020026020010151620001e260201b60201c565b60010162000106565b5060005b815181101562000186576200017d600080516020620012e18339815191528383815181106200013157fe5b60010162000152565b505050506200042b565b600082815260208190526040808220600201549051839285917fbd79b86ffe0ab8e8776151514217cd7cacd52c909f66475c3af44e129f0b00ff9190a460009182526020829052604090912060020155565b620001ee8282620001f2565b5050565b60008281526020818152604090912062000217918390620007eb6200026b821b17901c565b15620001ee57620002276200028b565b6001600160a01b0316816001600160a01b0316837f2f8788117e7eff1d82e926ec794901d17c78024a50270940304540a733656f0d60405160405180910390a45050565b600062000282836001600160a01b0384166200028f565b90505b92915050565b3390565b60006200029d8383620002de565b620002d55750815460018181018455600084815260208082209093018490558454848252828601909352604090209190915562000285565b50600062000285565b60009081526001919091016020526040902054151590565b80516001600160a01b03811681146200028557600080fd5b600082601f8301126200031f578081fd5b81516001600160401b038082111562000336578283fd5b60208083026040518282820101818110858211171562000354578687fd5b6040528481529450818501925085820181870183018810156200037657600080fd5b600091505b84821015620003a557620003908882620002f6565b8452928201926001919091019082016200037b565b505050505092915050565b600080600060608486031215620003c5578283fd5b620003d18585620002f6565b60208501519093506001600160401b0380821115620003ee578384fd5b620003fc878388016200030e565b9350604086015191508082111562000412578283fd5b5062000421868287016200030e565b9150509250925092565b610e66806200043b6000396000f3fe608060405234801561001057600080fd5b50600436106101005760003560e01c806391d1485411610097578063ce6ccfaf11610066578063ce6ccfaf146101e4578063d547741f14610204578063d936547e14610217578063f634dcbd1461022a57610100565b806391d14854146101a1578063a217fddf146101c1578063c39893ff146101c9578063ca15c873146101d157610100565b80634460bdd6116100d35780634460bdd6146101695780635321afb01461017157806375b238fc146101795780639010d07c1461018157610100565b8063041f173f14610105578063248a9ca31461011a5780632f2ff15d1461014357806336568abe14610156575b600080fd5b610118610113366004610ad4565b61023d565b005b61012d610128366004610ba1565b61034f565b60405161013a9190610c77565b60405180910390f35b610118610151366004610bb9565b610367565b610118610164366004610bb9565b6103b8565b61012d6103fa565b61012d61040c565b61012d61041e565b61019461018f366004610bf3565b610430565b60405161013a9190610c14565b6101b46101af366004610bb9565b610451565b60405161013a9190610c6c565b61012d610469565b61012d61046e565b61012d6101df366004610ba1565b610480565b6101f76101f2366004610aa6565b610497565b60405161013a9190610c28565b610118610212366004610bb9565b6105a8565b6101b4610225366004610aa6565b6105e2565b610118610238366004610b43565b61068f565b60005b8181101561034a57600083838381811061025657fe5b905060200201602081019061026b9190610aa6565b9050610285600080516020610df183398151915282610451565b156102a2576102a2600080516020610df1833981519152826105a8565b6102ba600080516020610e1183398151915282610451565b156102d7576102d7600080516020610e11833981519152826105a8565b6102ef600080516020610dd183398151915282610451565b1561030c5761030c600080516020610dd1833981519152826105a8565b610324600080516020610db183398151915282610451565b1561034157610341600080516020610db1833981519152826105a8565b50600101610240565b505050565b6000818152602081905260409020600201545b919050565b600082815260208190526040902060020154610385906101af610800565b6103aa5760405162461bcd60e51b81526004016103a190610cc2565b60405180910390fd5b6103b48282610804565b5050565b6103c0610800565b6001600160a01b0316816001600160a01b0316146103f05760405162461bcd60e51b81526004016103a190610d61565b6103b4828261086d565b600080516020610db183398151915281565b600080516020610df183398151915281565b600080516020610dd183398151915281565b600082815260208190526040812061044890836108d6565b90505b92915050565b600082815260208190526040812061044890836108e2565b600081565b600080516020610e1183398151915281565b600081815260208190526040812061044b906108f7565b60606104a1610a88565b6040518060800160405280600080516020610dd18339815191528152602001600080516020610e118339815191528152602001600080516020610df18339815191528152602001600080516020610db183398151915281525090506060600467ffffffffffffffff8111801561051657600080fd5b50604051908082528060200260200182016040528015610540578160200160208202803683370190505b50905060005b60048110156105a05761056983826004811061055e57fe5b602002015186610451565b156105985782816004811061057a57fe5b602002015182828151811061058b57fe5b6020026020010181815250505b600101610546565b509392505050565b6000828152602081905260409020600201546105c6906101af610800565b6103f05760405162461bcd60e51b81526004016103a190610d11565b60006105ec610a88565b6040518060800160405280600080516020610dd18339815191528152602001600080516020610e118339815191528152602001600080516020610df18339815191528152602001600080516020610db1833981519152815250905060005b60048110156106855761066d82826004811061066257fe5b602002015185610451565b1561067d57600192505050610362565b60010161064a565b5060009392505050565b60005b8181101561034a57368383838181106106a757fe5b9050604002019050600080516020610e1183398151915281602001351480156106ea57506106ea600080516020610df18339815191526101af6020840184610aa6565b1561070e5761070e600080516020610df18339815191526102126020840184610aa6565b600080516020610df183398151915281602001351480156107495750610749600080516020610e118339815191526101af6020840184610aa6565b1561076d5761076d600080516020610e118339815191526102126020840184610aa6565b600080516020610dd183398151915281602001351480156107aa57506107a8600080516020610df18339815191526101af6020840184610aa6565b155b156107ce576107ce600080516020610df18339815191526101516020840184610aa6565b6107e2602082018035906101519084610aa6565b50600101610692565b6000610448836001600160a01b038416610902565b3390565b600082815260208190526040902061081c90826107eb565b156103b457610829610800565b6001600160a01b0316816001600160a01b0316837f2f8788117e7eff1d82e926ec794901d17c78024a50270940304540a733656f0d60405160405180910390a45050565b6000828152602081905260409020610885908261094c565b156103b457610892610800565b6001600160a01b0316816001600160a01b0316837ff6391f5c32d9c69d2a47ea670b442974b53935d1edc7fd64eb21e047a839171b60405160405180910390a45050565b60006104488383610961565b6000610448836001600160a01b0384166109a6565b600061044b826109be565b600061090e83836109a6565b6109445750815460018181018455600084815260208082209093018490558454848252828601909352604090209190915561044b565b50600061044b565b6000610448836001600160a01b0384166109c2565b815460009082106109845760405162461bcd60e51b81526004016103a190610c80565b82600001828154811061099357fe5b9060005260206000200154905092915050565b60009081526001919091016020526040902054151590565b5490565b60008181526001830160205260408120548015610a7e57835460001980830191908101906000908790839081106109f557fe5b9060005260206000200154905080876000018481548110610a1257fe5b600091825260208083209091019290925582815260018981019092526040902090840190558654879080610a4257fe5b6001900381819060005260206000200160009055905586600101600087815260200190815260200160002060009055600194505050505061044b565b600091505061044b565b60405180608001604052806004906020820280368337509192915050565b600060208284031215610ab7578081fd5b81356001600160a01b0381168114610acd578182fd5b9392505050565b60008060208385031215610ae6578081fd5b823567ffffffffffffffff80821115610afd578283fd5b818501915085601f830112610b10578283fd5b813581811115610b1e578384fd5b8660208083028501011115610b31578384fd5b60209290920196919550909350505050565b60008060208385031215610b55578182fd5b823567ffffffffffffffff80821115610b6c578384fd5b818501915085601f830112610b7f578384fd5b813581811115610b8d578485fd5b866020604083028501011115610b31578485fd5b600060208284031215610bb2578081fd5b5035919050565b60008060408385031215610bcb578182fd5b8235915060208301356001600160a01b0381168114610be8578182fd5b809150509250929050565b60008060408385031215610c05578182fd5b50508035926020909101359150565b6001600160a01b0391909116815260200190565b6020808252825182820181905260009190848201906040850190845b81811015610c6057835183529284019291840191600101610c44565b50909695505050505050565b901515815260200190565b90815260200190565b60208082526022908201527f456e756d657261626c655365743a20696e646578206f7574206f6620626f756e604082015261647360f01b606082015260800190565b6020808252602f908201527f416363657373436f6e74726f6c3a2073656e646572206d75737420626520616e60408201526e0818591b5a5b881d1bc819dc985b9d608a1b606082015260800190565b60208082526030908201527f416363657373436f6e74726f6c3a2073656e646572206d75737420626520616e60408201526f2061646d696e20746f207265766f6b6560801b606082015260800190565b6020808252602f908201527f416363657373436f6e74726f6c3a2063616e206f6e6c792072656e6f756e636560408201526e103937b632b9903337b91039b2b63360891b60608201526080019056fe7613a25ecc738585a232ad50a301178f12b3ba8887d13e138b523c4269c47689a49807205ce4d355092ef5a8a18f56e8913cf4a201fbe287825b095693c21775f1ace51d64be07e49551907f704b17a27f35380de69c40bb47b25cccef03fe1ea0962abd2c4b5637166310be8994eed908f58b5b5396ff129d47c68a40bd22bea2646970667358221220283f7935bb1acf572b30dbfddc3a957c043e193eecea79d1483b46bc0187982c64736f6c634300060c00337613a25ecc738585a232ad50a301178f12b3ba8887d13e138b523c4269c47689a49807205ce4d355092ef5a8a18f56e8913cf4a201fbe287825b095693c21775f1ace51d64be07e49551907f704b17a27f35380de69c40bb47b25cccef03fe1ea0962abd2c4b5637166310be8994eed908f58b5b5396ff129d47c68a40bd22be",
  "devdoc": {
    "kind": "dev",
    "methods": {
      "constructor": {
        "details": "FCX user manager."
      },
      "getRoleAdmin(bytes32)": {
        "details": "Returns the admin role that controls `role`. See {grantRole} and {revokeRole}. To change a role's admin, use {_setRoleAdmin}."
      },
      "getRoleMember(bytes32,uint256)": {
        "details": "Returns one of the accounts that have `role`. `index` must be a value between 0 and {getRoleMemberCount}, non-inclusive. Role bearers are not sorted in any particular way, and their ordering may change at any point. WARNING: When using {getRoleMember} and {getRoleMemberCount}, make sure you perform all queries on the same block. See the following https://forum.openzeppelin.com/t/iterating-over-elements-on-enumerableset-in-openzeppelin-contracts/2296[forum post] for more information."
      },
      "getRoleMemberCount(bytes32)": {
        "details": "Returns the number of accounts that have `role`. Can be used together with {getRoleMember} to enumerate all bearers of a role."
      },
      "getRoles(address)": {
        "details": "get all roles of account"
      },
      "grantRole(bytes32,address)": {
        "details": "Grants `role` to `account`. If `account` had not been already granted `role`, emits a {RoleGranted} event. Requirements: - the caller must have ``role``'s admin role."
      },
      "grantRoles((address,bytes32)[])": {
        "details": "Grants `roles` to `accounts`. If `account` had not been already granted `role`, emits a {RoleGranted} event. Requirements: - the caller must have ``role``'s admin role."
      },
      "hasRole(bytes32,address)": {
        "details": "Returns `true` if `account` has been granted `role`."
      },
      "renounceRole(bytes32,address)": {
        "details": "Revokes `role` from the calling account. Roles are often managed via {grantRole} and {revokeRole}: this function's purpose is to provide a mechanism for accounts to lose their privileges if they are compromised (such as when a trusted device is misplaced). If the calling account had been granted `role`, emits a {RoleRevoked} event. Requirements: - the caller must be `account`."
      },
      "revokeRole(bytes32,address)": {
        "details": "Revokes `role` from `account`. If `account` had been granted `role`, emits a {RoleRevoked} event. Requirements: - the caller must have ``role``'s admin role."
      },
      "whitelisted(address)": {
        "details": "check account in whitelist"
      }
    },
    "version": 1
  },
  "userdoc": {
    "kind": "user",
    "methods": {},
    "version": 1
  },
  "storageLayout": {
    "storage": [
      {
        "astId": 22,
        "contract": "contracts/FCXAccessControl.sol:FCXAccessControl",
        "label": "_roles",
        "offset": 0,
        "slot": "0",
        "type": "t_mapping(t_bytes32,t_struct(RoleData)18_storage)"
      }
    ],
    "types": {
      "t_array(t_bytes32)dyn_storage": {
        "base": "t_bytes32",
        "encoding": "dynamic_array",
        "label": "bytes32[]",
        "numberOfBytes": "32"
      },
      "t_bytes32": {
        "encoding": "inplace",
        "label": "bytes32",
        "numberOfBytes": "32"
      },
      "t_mapping(t_bytes32,t_struct(RoleData)18_storage)": {
        "encoding": "mapping",
        "key": "t_bytes32",
        "label": "mapping(bytes32 => struct AccessControl.RoleData)",
        "numberOfBytes": "32",
        "value": "t_struct(RoleData)18_storage"
      },
      "t_mapping(t_bytes32,t_uint256)": {
        "encoding": "mapping",
        "key": "t_bytes32",
        "label": "mapping(bytes32 => uint256)",
        "numberOfBytes": "32",
        "value": "t_uint256"
      },
      "t_struct(AddressSet)1813_storage": {
        "encoding": "inplace",
        "label": "struct EnumerableSet.AddressSet",
        "members": [
          {
            "astId": 1812,
            "contract": "contracts/FCXAccessControl.sol:FCXAccessControl",
            "label": "_inner",
            "offset": 0,
            "slot": "0",
            "type": "t_struct(Set)1548_storage"
          }
        ],
        "numberOfBytes": "64"
      },
      "t_struct(RoleData)18_storage": {
        "encoding": "inplace",
        "label": "struct AccessControl.RoleData",
        "members": [
          {
            "astId": 15,
            "contract": "contracts/FCXAccessControl.sol:FCXAccessControl",
            "label": "members",
            "offset": 0,
            "slot": "0",
            "type": "t_struct(AddressSet)1813_storage"
          },
          {
            "astId": 17,
            "contract": "contracts/FCXAccessControl.sol:FCXAccessControl",
            "label": "adminRole",
            "offset": 0,
            "slot": "2",
            "type": "t_bytes32"
          }
        ],
        "numberOfBytes": "96"
      },
      "t_struct(Set)1548_storage": {
        "encoding": "inplace",
        "label": "struct EnumerableSet.Set",
        "members": [
          {
            "astId": 1543,
            "contract": "contracts/FCXAccessControl.sol:FCXAccessControl",
            "label": "_values",
            "offset": 0,
            "slot": "0",
            "type": "t_array(t_bytes32)dyn_storage"
          },
          {
            "astId": 1547,
            "contract": "contracts/FCXAccessControl.sol:FCXAccessControl",
            "label": "_indexes",
            "offset": 0,
            "slot": "1",
            "type": "t_mapping(t_bytes32,t_uint256)"
          }
        ],
        "numberOfBytes": "64"
      },
      "t_uint256": {
        "encoding": "inplace",
        "label": "uint256",
        "numberOfBytes": "32"
      }
    }
  }
}