{
  "address": "0x00098026682c3B24f9aD5e60311Ce7A0cb753b44",
  "abi": [
    {
      "inputs": [
        {
          "internalType": "contract IConfigurableRightsPool",
          "name": "self",
          "type": "IConfigurableRightsPool"
        },
        {
          "internalType": "contract IBPool",
          "name": "bPool",
          "type": "IBPool"
        },
        {
          "internalType": "uint256",
          "name": "poolAmountIn",
          "type": "uint256"
        },
        {
          "internalType": "uint256[]",
          "name": "minAmountsOut",
          "type": "uint256[]"
        }
      ],
      "name": "exitPool",
      "outputs": [
        {
          "internalType": "uint256",
          "name": "exitFee",
          "type": "uint256"
        },
        {
          "internalType": "uint256",
          "name": "pAiAfterExitFee",
          "type": "uint256"
        },
        {
          "internalType": "uint256[]",
          "name": "actualAmountsOut",
          "type": "uint256[]"
        }
      ],
      "stateMutability": "view",
      "type": "function"
    },
    {
      "inputs": [
        {
          "internalType": "contract IConfigurableRightsPool",
          "name": "self",
          "type": "IConfigurableRightsPool"
        },
        {
          "internalType": "contract IBPool",
          "name": "bPool",
          "type": "IBPool"
        },
        {
          "internalType": "address",
          "name": "tokenOut",
          "type": "address"
        },
        {
          "internalType": "uint256",
          "name": "tokenAmountOut",
          "type": "uint256"
        },
        {
          "internalType": "uint256",
          "name": "maxPoolAmountIn",
          "type": "uint256"
        }
      ],
      "name": "exitswapExternAmountOut",
      "outputs": [
        {
          "internalType": "uint256",
          "name": "exitFee",
          "type": "uint256"
        },
        {
          "internalType": "uint256",
          "name": "poolAmountIn",
          "type": "uint256"
        }
      ],
      "stateMutability": "view",
      "type": "function"
    },
    {
      "inputs": [
        {
          "internalType": "contract IConfigurableRightsPool",
          "name": "self",
          "type": "IConfigurableRightsPool"
        },
        {
          "internalType": "contract IBPool",
          "name": "bPool",
          "type": "IBPool"
        },
        {
          "internalType": "address",
          "name": "tokenOut",
          "type": "address"
        },
        {
          "internalType": "uint256",
          "name": "poolAmountIn",
          "type": "uint256"
        },
        {
          "internalType": "uint256",
          "name": "minAmountOut",
          "type": "uint256"
        }
      ],
      "name": "exitswapPoolAmountIn",
      "outputs": [
        {
          "internalType": "uint256",
          "name": "exitFee",
          "type": "uint256"
        },
        {
          "internalType": "uint256",
          "name": "tokenAmountOut",
          "type": "uint256"
        }
      ],
      "stateMutability": "view",
      "type": "function"
    },
    {
      "inputs": [
        {
          "internalType": "contract IConfigurableRightsPool",
          "name": "self",
          "type": "IConfigurableRightsPool"
        },
        {
          "internalType": "contract IBPool",
          "name": "bPool",
          "type": "IBPool"
        },
        {
          "internalType": "uint256",
          "name": "poolAmountOut",
          "type": "uint256"
        },
        {
          "internalType": "uint256[]",
          "name": "maxAmountsIn",
          "type": "uint256[]"
        }
      ],
      "name": "joinPool",
      "outputs": [
        {
          "internalType": "uint256[]",
          "name": "actualAmountsIn",
          "type": "uint256[]"
        }
      ],
      "stateMutability": "view",
      "type": "function"
    },
    {
      "inputs": [
        {
          "internalType": "contract IConfigurableRightsPool",
          "name": "self",
          "type": "IConfigurableRightsPool"
        },
        {
          "internalType": "contract IBPool",
          "name": "bPool",
          "type": "IBPool"
        },
        {
          "internalType": "address",
          "name": "tokenIn",
          "type": "address"
        },
        {
          "internalType": "uint256",
          "name": "tokenAmountIn",
          "type": "uint256"
        },
        {
          "internalType": "uint256",
          "name": "minPoolAmountOut",
          "type": "uint256"
        }
      ],
      "name": "joinswapExternAmountIn",
      "outputs": [
        {
          "internalType": "uint256",
          "name": "poolAmountOut",
          "type": "uint256"
        }
      ],
      "stateMutability": "view",
      "type": "function"
    },
    {
      "inputs": [
        {
          "internalType": "contract IConfigurableRightsPool",
          "name": "self",
          "type": "IConfigurableRightsPool"
        },
        {
          "internalType": "contract IBPool",
          "name": "bPool",
          "type": "IBPool"
        },
        {
          "internalType": "address",
          "name": "tokenIn",
          "type": "address"
        },
        {
          "internalType": "uint256",
          "name": "poolAmountOut",
          "type": "uint256"
        },
        {
          "internalType": "uint256",
          "name": "maxAmountIn",
          "type": "uint256"
        }
      ],
      "name": "joinswapPoolAmountOut",
      "outputs": [
        {
          "internalType": "uint256",
          "name": "tokenAmountIn",
          "type": "uint256"
        }
      ],
      "stateMutability": "view",
      "type": "function"
    }
  ],
  "transactionHash": "0xf3daf6f483f090cae77a3c9811b7c5c2222c72d50b90978d8d7f854f12f87a71",
  "args": [],
  "solcInputHash": "3ab02400ec88730fc886e6b58fe6ae75",
  "bytecode": "0x613f65610026600b82828239805160001a60731461001957fe5b30600052607381538281f3fe73000000000000000000000000000000000000000030146080604052600436106100f45760003560e01c806382495b4511610096578063d505a94e11610070578063d505a94e14610247578063df90de0b1461025a578063efa587741461026d578063f544aa1c1461028d576100f4565b806382495b45146101e7578063a1925f1d14610207578063b489ec1914610227576100f4565b80635471c3e4116100d25780635471c3e41461015b5780636a6dc6e714610186578063724a2d53146101a657806377d44349146101c7576100f4565b80630970e47f146100f957806313b8bf241461011b5780631c1af1361461013b575b600080fd5b81801561010557600080fd5b50610119610114366004613721565b6102ad565b005b81801561012757600080fd5b506101196101363660046136ac565b610754565b81801561014757600080fd5b506101196101563660046134ee565b610a46565b61016e610169366004613815565b610a52565b60405161017d93929190613eac565b60405180910390f35b6101996101943660046137bb565b610d2b565b60405161017d9190613e95565b6101b96101b43660046137bb565b611180565b60405161017d929190613e9e565b8180156101d357600080fd5b506101196101e2366004613526565b6115e3565b8180156101f357600080fd5b50610119610202366004613681565b611624565b61021a610215366004613815565b6119a6565b60405161017d91906139a9565b81801561023357600080fd5b50610119610242366004613631565b611c61565b6101b96102553660046137bb565b611e57565b6101996102683660046137bb565b612233565b81801561027957600080fd5b50610119610288366004613886565b612604565b81801561029957600080fd5b506101196102a836600461376b565b612976565b6000836001600160a01b03166318160ddd6040518163ffffffff1660e01b815260040160206040518083038186803b1580156102e857600080fd5b505afa1580156102fc573d6000803e3d6000fd5b505050506040513d601f19601f8201168201806040525081019061032091906138cb565b905060006104226103ac83866001600160a01b031663948d8ce6876040518263ffffffff1660e01b8152600401610357919061391d565b60206040518083038186803b15801561036f57600080fd5b505afa158015610383573d6000803e3d6000fd5b505050506040513d601f19601f820116820180604052508101906103a791906138cb565b61302c565b856001600160a01b031663936c34776040518163ffffffff1660e01b815260040160206040518083038186803b1580156103e557600080fd5b505afa1580156103f9573d6000803e3d6000fd5b505050506040513d601f19601f8201168201806040525081019061041d91906138cb565b6130ab565b90506000846001600160a01b031663f8b2cb4f856040518263ffffffff1660e01b8152600401610452919061391d565b60206040518083038186803b15801561046a57600080fd5b505afa15801561047e573d6000803e3d6000fd5b505050506040513d601f19601f820116820180604052508101906104a291906138cb565b60405163cf5e7bd360e01b81529091506001600160a01b0386169063cf5e7bd3906104d190879060040161391d565b600060405180830381600087803b1580156104eb57600080fd5b505af11580156104ff573d6000803e3d6000fd5b505050506000846001600160a01b031663a9059cbb886001600160a01b0316633018205f6040518163ffffffff1660e01b815260040160206040518083038186803b15801561054d57600080fd5b505afa158015610561573d6000803e3d6000fd5b505050506040513d601f19601f82011682018060405250810190610585919061350a565b846040518363ffffffff1660e01b81526004016105a3929190613955565b602060405180830381600087803b1580156105bd57600080fd5b505af11580156105d1573d6000803e3d6000fd5b505050506040513d601f19601f820116820180604052508101906105f59190613611565b90508061061d5760405162461bcd60e51b815260040161061490613e17565b60405180910390fd5b866001600160a01b03166355c32a23886001600160a01b0316633018205f6040518163ffffffff1660e01b815260040160206040518083038186803b15801561066557600080fd5b505afa158015610679573d6000803e3d6000fd5b505050506040513d601f19601f8201168201806040525081019061069d919061350a565b856040518363ffffffff1660e01b81526004016106bb929190613955565b600060405180830381600087803b1580156106d557600080fd5b505af11580156106e9573d6000803e3d6000fd5b505060405163011075bb60e51b81526001600160a01b038a16925063220eb7609150610719908690600401613e95565b600060405180830381600087803b15801561073357600080fd5b505af1158015610747573d6000803e3d6000fd5b5050505050505050505050565b8143106107735760405162461bcd60e51b8152600401610614906139e9565b8243111561078357438655610787565b8286555b8061079683886000015461313c565b10156107b45760405162461bcd60e51b815260040161061490613a20565b6060876001600160a01b031663cc77828d6040518163ffffffff1660e01b815260040160006040518083038186803b1580156107ef57600080fd5b505afa158015610803573d6000803e3d6000fd5b505050506040513d6000823e601f3d908101601f1916820160405261082b9190810190613566565b8051909150851461084e5760405162461bcd60e51b815260040161061490613a55565b6000815167ffffffffffffffff8111801561086857600080fd5b50604051908082528060200260200182016040528015610892578160200160208202803683370190505b5080516108a99160028b0191602090910190613406565b5060005b82518110156109fb576802b5e3af16b18800008888838181106108cc57fe5b9050602002013511156108f15760405162461bcd60e51b815260040161061490613cfc565b670de0b6b3a764000088888381811061090657fe5b90506020020135101561092b5760405162461bcd60e51b815260040161061490613c54565b6109478289898481811061093b57fe5b90506020020135613175565b9150896001600160a01b031663948d8ce684838151811061096457fe5b60200260200101516040518263ffffffff1660e01b8152600401610988919061391d565b60206040518083038186803b1580156109a057600080fd5b505afa1580156109b4573d6000803e3d6000fd5b505050506040513d601f19601f820116820180604052508101906109d891906138cb565b8960020182815481106109e757fe5b6000918252602090912001556001016108ad565b506802b5e3af16b1880000811115610a255760405162461bcd60e51b815260040161061490613b2d565b60018801849055610a3a600389018888613451565b50505050505050505050565b610a4f816131a1565b50565b600080606080876001600160a01b031663cc77828d6040518163ffffffff1660e01b815260040160006040518083038186803b158015610a9157600080fd5b505afa158015610aa5573d6000803e3d6000fd5b505050506040513d6000823e601f3d908101601f19168201604052610acd9190810190613566565b80519091508514610af05760405162461bcd60e51b815260040161061490613b5b565b6000896001600160a01b03166318160ddd6040518163ffffffff1660e01b815260040160206040518083038186803b158015610b2b57600080fd5b505afa158015610b3f573d6000803e3d6000fd5b505050506040513d601f19601f82011682018060405250810190610b6391906138cb565b9050610b7088600061302c565b9450610b7c888661313c565b93506000610b8f8561041d846001613175565b905080610bae5760405162461bcd60e51b815260040161061490613adc565b825167ffffffffffffffff81118015610bc657600080fd5b50604051908082528060200260200182016040528015610bf0578160200160208202803683370190505b50935060005b8351811015610d1c576000848281518110610c0d57fe5b6020026020010151905060008c6001600160a01b031663f8b2cb4f836040518263ffffffff1660e01b8152600401610c45919061391d565b60206040518083038186803b158015610c5d57600080fd5b505afa158015610c71573d6000803e3d6000fd5b505050506040513d601f19601f82011682018060405250810190610c9591906138cb565b90506000610ca8856103a784600161313c565b905080610cc75760405162461bcd60e51b815260040161061490613adc565b8b8b85818110610cd357fe5b90506020020135811015610cf95760405162461bcd60e51b815260040161061490613b89565b80888581518110610d0657fe5b6020908102919091010152505050600101610bf6565b50505050955095509592505050565b604051630bcded8960e21b81526000906001600160a01b03861690632f37b62490610d5a90879060040161391d565b60206040518083038186803b158015610d7257600080fd5b505afa158015610d86573d6000803e3d6000fd5b505050506040513d601f19601f82011682018060405250810190610daa9190613611565b610dc65760405162461bcd60e51b815260040161061490613cad565b60405163f8b2cb4f60e01b81526001600160a01b03861690635c1bbaf790829063f8b2cb4f90610dfa90899060040161391d565b60206040518083038186803b158015610e1257600080fd5b505afa158015610e26573d6000803e3d6000fd5b505050506040513d601f19601f82011682018060405250810190610e4a91906138cb565b604051634a46c67360e11b81526001600160a01b0389169063948d8ce690610e76908a9060040161391d565b60206040518083038186803b158015610e8e57600080fd5b505afa158015610ea2573d6000803e3d6000fd5b505050506040513d601f19601f82011682018060405250810190610ec691906138cb565b896001600160a01b03166318160ddd6040518163ffffffff1660e01b815260040160206040518083038186803b158015610eff57600080fd5b505afa158015610f13573d6000803e3d6000fd5b505050506040513d601f19601f82011682018060405250810190610f3791906138cb565b896001600160a01b031663936c34776040518163ffffffff1660e01b815260040160206040518083038186803b158015610f7057600080fd5b505afa158015610f84573d6000803e3d6000fd5b505050506040513d601f19601f82011682018060405250810190610fa891906138cb565b888b6001600160a01b031663d4cadf686040518163ffffffff1660e01b815260040160206040518083038186803b158015610fe257600080fd5b505afa158015610ff6573d6000803e3d6000fd5b505050506040513d601f19601f8201168201806040525081019061101a91906138cb565b6040518763ffffffff1660e01b815260040161103b96959493929190613ecb565b60206040518083038186803b15801561105357600080fd5b505afa158015611067573d6000803e3d6000fd5b505050506040513d601f19601f8201168201806040525081019061108b91906138cb565b9050806110aa5760405162461bcd60e51b815260040161061490613adc565b818111156110ca5760405162461bcd60e51b815260040161061490613c2e565b60405163f8b2cb4f60e01b8152611158906001600160a01b0387169063f8b2cb4f906110fa90889060040161391d565b60206040518083038186803b15801561111257600080fd5b505afa158015611126573d6000803e3d6000fd5b505050506040513d601f19601f8201168201806040525081019061114a91906138cb565b6706f05b59d3b2000061302c565b8111156111775760405162461bcd60e51b815260040161061490613ab2565b95945050505050565b600080856001600160a01b0316632f37b624866040518263ffffffff1660e01b81526004016111af919061391d565b60206040518083038186803b1580156111c757600080fd5b505afa1580156111db573d6000803e3d6000fd5b505050506040513d601f19601f820116820180604052508101906111ff9190613611565b61121b5760405162461bcd60e51b815260040161061490613cad565b60405163f8b2cb4f60e01b81526112a9906001600160a01b0388169063f8b2cb4f9061124b90899060040161391d565b60206040518083038186803b15801561126357600080fd5b505afa158015611277573d6000803e3d6000fd5b505050506040513d601f19601f8201168201806040525081019061129b91906138cb565b6704a03ce68d21555661302c565b8411156112c85760405162461bcd60e51b815260040161061490613c82565b60405163f8b2cb4f60e01b81526001600160a01b038716906382f652ad90829063f8b2cb4f906112fc908a9060040161391d565b60206040518083038186803b15801561131457600080fd5b505afa158015611328573d6000803e3d6000fd5b505050506040513d601f19601f8201168201806040525081019061134c91906138cb565b604051634a46c67360e11b81526001600160a01b038a169063948d8ce690611378908b9060040161391d565b60206040518083038186803b15801561139057600080fd5b505afa1580156113a4573d6000803e3d6000fd5b505050506040513d601f19601f820116820180604052508101906113c891906138cb565b8a6001600160a01b03166318160ddd6040518163ffffffff1660e01b815260040160206040518083038186803b15801561140157600080fd5b505afa158015611415573d6000803e3d6000fd5b505050506040513d601f19601f8201168201806040525081019061143991906138cb565b8a6001600160a01b031663936c34776040518163ffffffff1660e01b815260040160206040518083038186803b15801561147257600080fd5b505afa158015611486573d6000803e3d6000fd5b505050506040513d601f19601f820116820180604052508101906114aa91906138cb565b898c6001600160a01b031663d4cadf686040518163ffffffff1660e01b815260040160206040518083038186803b1580156114e457600080fd5b505afa1580156114f8573d6000803e3d6000fd5b505050506040513d601f19601f8201168201806040525081019061151c91906138cb565b6040518763ffffffff1660e01b815260040161153d96959493929190613ecb565b60206040518083038186803b15801561155557600080fd5b505afa158015611569573d6000803e3d6000fd5b505050506040513d601f19601f8201168201806040525081019061158d91906138cb565b9050806115ac5760405162461bcd60e51b815260040161061490613adc565b828111156115cc5760405162461bcd60e51b815260040161061490613c2e565b6115d781600061302c565b91509550959350505050565b60005b8181101561161f576116178383838181106115fd57fe5b905060200201602081019061161291906134ee565b6131a1565b6001016115e6565b505050565b805461162f576119a2565b80544310156116505760405162461bcd60e51b815260040161061490613bd9565b600081600101544311156116695750600181015461166c565b50435b60006116808360010154846000015461313c565b9050600061169283856000015461313c565b905060008060006060886001600160a01b031663cc77828d6040518163ffffffff1660e01b815260040160006040518083038186803b1580156116d457600080fd5b505afa1580156116e8573d6000803e3d6000fd5b505050506040513d6000823e601f3d908101601f191682016040526117109190810190613566565b905060005b81518110156119895788600301818154811061172d57fe5b906000526020600020015489600201828154811061174757fe5b9060005260206000200154146119815788600201818154811061176657fe5b906000526020600020015489600301828154811061178057fe5b9060005260206000200154101561180e576117cd8960020182815481106117a357fe5b90600052602060002001548a60030183815481106117bd57fe5b906000526020600020015461313c565b94506117d985886130ab565b93506118078960020182815481106117ed57fe5b9060005260206000200154611802888761302c565b61313c565b9250611877565b61183a89600301828154811061182057fe5b90600052602060002001548a60020183815481106117bd57fe5b945061184685886130ab565b935061187489600201828154811061185a57fe5b906000526020600020015461186f888761302c565b613175565b92505b60008a6001600160a01b031663f8b2cb4f84848151811061189457fe5b60200260200101516040518263ffffffff1660e01b81526004016118b8919061391d565b60206040518083038186803b1580156118d057600080fd5b505afa1580156118e4573d6000803e3d6000fd5b505050506040513d601f19601f8201168201806040525081019061190891906138cb565b90508a6001600160a01b0316633fdddaa284848151811061192557fe5b602002602001015183876040518463ffffffff1660e01b815260040161194d93929190613988565b600060405180830381600087803b15801561196757600080fd5b505af115801561197b573d6000803e3d6000fd5b50505050505b600101611715565b508760010154431061199a57600088555b505050505050505b5050565b606080856001600160a01b031663cc77828d6040518163ffffffff1660e01b815260040160006040518083038186803b1580156119e257600080fd5b505afa1580156119f6573d6000803e3d6000fd5b505050506040513d6000823e601f3d908101601f19168201604052611a1e9190810190613566565b80519091508314611a415760405162461bcd60e51b815260040161061490613b5b565b6000876001600160a01b03166318160ddd6040518163ffffffff1660e01b815260040160206040518083038186803b158015611a7c57600080fd5b505afa158015611a90573d6000803e3d6000fd5b505050506040513d601f19601f82011682018060405250810190611ab491906138cb565b90506000611ac78761041d84600161313c565b905080611ae65760405162461bcd60e51b815260040161061490613adc565b825167ffffffffffffffff81118015611afe57600080fd5b50604051908082528060200260200182016040528015611b28578160200160208202803683370190505b50935060005b8351811015611c54576000848281518110611b4557fe5b6020026020010151905060008a6001600160a01b031663f8b2cb4f836040518263ffffffff1660e01b8152600401611b7d919061391d565b60206040518083038186803b158015611b9557600080fd5b505afa158015611ba9573d6000803e3d6000fd5b505050506040513d601f19601f82011682018060405250810190611bcd91906138cb565b90506000611be0856103a7846001613175565b905080611bff5760405162461bcd60e51b815260040161061490613adc565b898985818110611c0b57fe5b90506020020135811115611c315760405162461bcd60e51b815260040161061490613c2e565b80888581518110611c3e57fe5b6020908102919091010152505050600101611b2e565b5050505095945050505050565b604051630bcded8960e21b81526001600160a01b03861690632f37b62490611c8d90879060040161391d565b60206040518083038186803b158015611ca557600080fd5b505afa158015611cb9573d6000803e3d6000fd5b505050506040513d601f19601f82011682018060405250810190611cdd9190613611565b15611cfa5760405162461bcd60e51b815260040161061490613a8c565b6802b5e3af16b1880000821115611d235760405162461bcd60e51b815260040161061490613cfc565b670de0b6b3a7640000821015611d4b5760405162461bcd60e51b815260040161061490613c54565b670de0b6b3a7640000603202611dd1866001600160a01b031663936c34776040518163ffffffff1660e01b815260040160206040518083038186803b158015611d9357600080fd5b505afa158015611da7573d6000803e3d6000fd5b505050506040513d601f19601f82011682018060405250810190611dcb91906138cb565b84613175565b1115611def5760405162461bcd60e51b815260040161061490613b2d565b612710831015611e115760405162461bcd60e51b815260040161061490613de8565b805460038201939093556002810191909155436001820155600160a01b6001600160a01b03199092166001600160a01b03939093169290921760ff60a01b191617905550565b600080856001600160a01b0316632f37b624866040518263ffffffff1660e01b8152600401611e86919061391d565b60206040518083038186803b158015611e9e57600080fd5b505afa158015611eb2573d6000803e3d6000fd5b505050506040513d601f19601f82011682018060405250810190611ed69190613611565b611ef25760405162461bcd60e51b815260040161061490613cad565b60405163f8b2cb4f60e01b81526001600160a01b03871690638929801290829063f8b2cb4f90611f26908a9060040161391d565b60206040518083038186803b158015611f3e57600080fd5b505afa158015611f52573d6000803e3d6000fd5b505050506040513d601f19601f82011682018060405250810190611f7691906138cb565b604051634a46c67360e11b81526001600160a01b038a169063948d8ce690611fa2908b9060040161391d565b60206040518083038186803b158015611fba57600080fd5b505afa158015611fce573d6000803e3d6000fd5b505050506040513d601f19601f82011682018060405250810190611ff291906138cb565b8a6001600160a01b03166318160ddd6040518163ffffffff1660e01b815260040160206040518083038186803b15801561202b57600080fd5b505afa15801561203f573d6000803e3d6000fd5b505050506040513d601f19601f8201168201806040525081019061206391906138cb565b8a6001600160a01b031663936c34776040518163ffffffff1660e01b815260040160206040518083038186803b15801561209c57600080fd5b505afa1580156120b0573d6000803e3d6000fd5b505050506040513d601f19601f820116820180604052508101906120d491906138cb565b898c6001600160a01b031663d4cadf686040518163ffffffff1660e01b815260040160206040518083038186803b15801561210e57600080fd5b505afa158015612122573d6000803e3d6000fd5b505050506040513d601f19601f8201168201806040525081019061214691906138cb565b6040518763ffffffff1660e01b815260040161216796959493929190613ecb565b60206040518083038186803b15801561217f57600080fd5b505afa158015612193573d6000803e3d6000fd5b505050506040513d601f19601f820116820180604052508101906121b791906138cb565b9050828110156121d95760405162461bcd60e51b815260040161061490613b89565b60405163f8b2cb4f60e01b8152612209906001600160a01b0388169063f8b2cb4f9061124b90899060040161391d565b8111156122285760405162461bcd60e51b815260040161061490613c82565b6115d784600061302c565b604051630bcded8960e21b81526000906001600160a01b03861690632f37b6249061226290879060040161391d565b60206040518083038186803b15801561227a57600080fd5b505afa15801561228e573d6000803e3d6000fd5b505050506040513d601f19601f820116820180604052508101906122b29190613611565b6122ce5760405162461bcd60e51b815260040161061490613cad565b60405163f8b2cb4f60e01b81526122fe906001600160a01b0387169063f8b2cb4f906110fa90889060040161391d565b83111561231d5760405162461bcd60e51b815260040161061490613ab2565b60405163f8b2cb4f60e01b81526001600160a01b03861690638656b65390829063f8b2cb4f9061235190899060040161391d565b60206040518083038186803b15801561236957600080fd5b505afa15801561237d573d6000803e3d6000fd5b505050506040513d601f19601f820116820180604052508101906123a191906138cb565b604051634a46c67360e11b81526001600160a01b0389169063948d8ce6906123cd908a9060040161391d565b60206040518083038186803b1580156123e557600080fd5b505afa1580156123f9573d6000803e3d6000fd5b505050506040513d601f19601f8201168201806040525081019061241d91906138cb565b896001600160a01b03166318160ddd6040518163ffffffff1660e01b815260040160206040518083038186803b15801561245657600080fd5b505afa15801561246a573d6000803e3d6000fd5b505050506040513d601f19601f8201168201806040525081019061248e91906138cb565b896001600160a01b031663936c34776040518163ffffffff1660e01b815260040160206040518083038186803b1580156124c757600080fd5b505afa1580156124db573d6000803e3d6000fd5b505050506040513d601f19601f820116820180604052508101906124ff91906138cb565b888b6001600160a01b031663d4cadf686040518163ffffffff1660e01b815260040160206040518083038186803b15801561253957600080fd5b505afa15801561254d573d6000803e3d6000fd5b505050506040513d601f19601f8201168201806040525081019061257191906138cb565b6040518763ffffffff1660e01b815260040161259296959493929190613ecb565b60206040518083038186803b1580156125aa57600080fd5b505afa1580156125be573d6000803e3d6000fd5b505050506040513d601f19601f820116820180604052508101906125e291906138cb565b9050818110156111775760405162461bcd60e51b815260040161061490613b89565b8054600160a01b900460ff1661262c5760405162461bcd60e51b8152600401610614906139bc565b8161263b43836001015461313c565b10156126595760405162461bcd60e51b815260040161061490613d2a565b6000846001600160a01b03166318160ddd6040518163ffffffff1660e01b815260040160206040518083038186803b15801561269457600080fd5b505afa1580156126a8573d6000803e3d6000fd5b505050506040513d601f19601f820116820180604052508101906126cc91906138cb565b9050600061271a6126e183856002015461302c565b866001600160a01b031663936c34776040518163ffffffff1660e01b815260040160206040518083038186803b1580156103e557600080fd5b835460ff60a01b198116855560408051633018205f60e01b815290519293506000926001600160a01b03928316926323b872dd92908b1691633018205f91600480820192602092909190829003018186803b15801561277857600080fd5b505afa15801561278c573d6000803e3d6000fd5b505050506040513d601f19601f820116820180604052508101906127b0919061350a565b8987600301546040518463ffffffff1660e01b81526004016127d493929190613931565b602060405180830381600087803b1580156127ee57600080fd5b505af1158015612802573d6000803e3d6000fd5b505050506040513d601f19601f820116820180604052508101906128269190613611565b9050806128455760405162461bcd60e51b815260040161061490613e17565b835461285d906001600160a01b031687600019613243565b90508061287c5760405162461bcd60e51b815260040161061490613e17565b835460038501546002860154604051631c9c3ca760e31b81526001600160a01b03808b169463e4e1e538946128b8949190921692600401613988565b600060405180830381600087803b1580156128d257600080fd5b505af11580156128e6573d6000803e3d6000fd5b50506040516325d2bc4160e11b81526001600160a01b038a169250634ba578829150612916908590600401613e95565b600060405180830381600087803b15801561293057600080fd5b505af1158015612944573d6000803e3d6000fd5b5050604051630257733360e21b81526001600160a01b038a16925063095dcccc91506107199033908690600401613955565b670de0b6b3a764000081101561299e5760405162461bcd60e51b815260040161061490613cd4565b6802b5e3af16b18800008111156129c75760405162461bcd60e51b815260040161061490613b05565b604051634a46c67360e11b81526000906001600160a01b0385169063948d8ce6906129f690869060040161391d565b60206040518083038186803b158015612a0e57600080fd5b505afa158015612a22573d6000803e3d6000fd5b505050506040513d601f19601f82011682018060405250810190612a4691906138cb565b905081811415612a565750613026565b60405163f8b2cb4f60e01b81526000906001600160a01b0386169063f8b2cb4f90612a8590879060040161391d565b60206040518083038186803b158015612a9d57600080fd5b505afa158015612ab1573d6000803e3d6000fd5b505050506040513d601f19601f82011682018060405250810190612ad591906138cb565b90506000866001600160a01b03166318160ddd6040518163ffffffff1660e01b815260040160206040518083038186803b158015612b1257600080fd5b505afa158015612b26573d6000803e3d6000fd5b505050506040513d601f19601f82011682018060405250810190612b4a91906138cb565b90506000866001600160a01b031663936c34776040518163ffffffff1660e01b815260040160206040518083038186803b158015612b8757600080fd5b505afa158015612b9b573d6000803e3d6000fd5b505050506040513d601f19601f82011682018060405250810190612bbf91906138cb565b905060008060008087891015612df157612bd9888a61313c565b9150612be9866103a784886130ab565b9350612bf9876103a7848b6130ab565b9250612c05878461313c565b9050612710811015612c295760405162461bcd60e51b815260040161061490613bb0565b604051631feeed5160e11b81526001600160a01b038c1690633fdddaa290612c59908d9085908e90600401613988565b600060405180830381600087803b158015612c7357600080fd5b505af1158015612c87573d6000803e3d6000fd5b505060405163a9059cbb60e01b8152600092506001600160a01b038d16915063a9059cbb90612cbc9033908890600401613955565b602060405180830381600087803b158015612cd657600080fd5b505af1158015612cea573d6000803e3d6000fd5b505050506040513d601f19601f82011682018060405250810190612d0e9190613611565b905080612d2d5760405162461bcd60e51b815260040161061490613e17565b6040516355c32a2360e01b81526001600160a01b038e16906355c32a2390612d5b9033908990600401613955565b600060405180830381600087803b158015612d7557600080fd5b505af1158015612d89573d6000803e3d6000fd5b505050508c6001600160a01b031663220eb760866040518263ffffffff1660e01b8152600401612db99190613e95565b600060405180830381600087803b158015612dd357600080fd5b505af1158015612de7573d6000803e3d6000fd5b505050505061301d565b612dfb898961313c565b91506802b5e3af16b1880000612e118684613175565b1115612e2f5760405162461bcd60e51b815260040161061490613b2d565b612e3d866103a784886130ab565b9350612e4d876103a7848b6130ab565b925060008a6001600160a01b03166323b872dd3330876040518463ffffffff1660e01b8152600401612e8193929190613931565b602060405180830381600087803b158015612e9b57600080fd5b505af1158015612eaf573d6000803e3d6000fd5b505050506040513d601f19601f82011682018060405250810190612ed39190613611565b905080612ef25760405162461bcd60e51b815260040161061490613e17565b8b6001600160a01b0316633fdddaa28c612f0c8b88613175565b8d6040518463ffffffff1660e01b8152600401612f2b93929190613988565b600060405180830381600087803b158015612f4557600080fd5b505af1158015612f59573d6000803e3d6000fd5b505050508c6001600160a01b0316634ba57882866040518263ffffffff1660e01b8152600401612f899190613e95565b600060405180830381600087803b158015612fa357600080fd5b505af1158015612fb7573d6000803e3d6000fd5b505050508c6001600160a01b031663095dcccc33876040518363ffffffff1660e01b8152600401612fe9929190613955565b600060405180830381600087803b15801561300357600080fd5b505af1158015613017573d6000803e3d6000fd5b50505050505b50505050505050505b50505050565b60008261303b575060006130a5565b8282028284828161304857fe5b04146130665760405162461bcd60e51b815260040161061490613d61565b6706f05b59d3b200008101818110156130915760405162461bcd60e51b815260040161061490613d61565b6000670de0b6b3a7640000825b0493505050505b92915050565b6000816130ca5760405162461bcd60e51b815260040161061490613dc2565b826130d7575060006130a5565b670de0b6b3a7640000838102908482816130ed57fe5b041461310b5760405162461bcd60e51b815260040161061490613c04565b600283048101818110156131315760405162461bcd60e51b815260040161061490613c04565b600084828161309e57fe5b600080600061314b85856133e1565b91509150801561316d5760405162461bcd60e51b815260040161061490613e40565b509392505050565b60008282018381101561319a5760405162461bcd60e51b815260040161061490613e6b565b9392505050565b60405163a9059cbb60e01b81526000906001600160a01b0383169063a9059cbb906131d29033908590600401613955565b602060405180830381600087803b1580156131ec57600080fd5b505af1158015613200573d6000803e3d6000fd5b505050506040513d601f19601f820116820180604052508101906132249190613611565b9050806119a25760405162461bcd60e51b815260040161061490613d8b565b600080846001600160a01b031663dd62ed3e30866040518363ffffffff1660e01b815260040161327492919061396e565b60206040518083038186803b15801561328c57600080fd5b505afa1580156132a0573d6000803e3d6000fd5b505050506040513d601f19601f820116820180604052508101906132c491906138cb565b9050828114156132d857600191505061319a565b80156133615760405163095ea7b360e01b81526001600160a01b0386169063095ea7b39061330d908790600090600401613955565b602060405180830381600087803b15801561332757600080fd5b505af115801561333b573d6000803e3d6000fd5b505050506040513d601f19601f8201168201806040525081019061335f9190613611565b505b60405163095ea7b360e01b81526001600160a01b0386169063095ea7b39061338f9087908790600401613955565b602060405180830381600087803b1580156133a957600080fd5b505af11580156133bd573d6000803e3d6000fd5b505050506040513d601f19601f820116820180604052508101906111779190613611565b6000808383116133f757505080820360006133ff565b505081810360015b9250929050565b828054828255906000526020600020908101928215613441579160200282015b82811115613441578251825591602001919060010190613426565b5061344d92915061348c565b5090565b828054828255906000526020600020908101928215613441579160200282015b82811115613441578235825591602001919060010190613471565b5b8082111561344d576000815560010161348d565b80516130a581613f1a565b60008083601f8401126134bd578182fd5b50813567ffffffffffffffff8111156134d4578182fd5b60208301915083602080830285010111156133ff57600080fd5b6000602082840312156134ff578081fd5b813561319a81613f1a565b60006020828403121561351b578081fd5b815161319a81613f1a565b60008060208385031215613538578081fd5b823567ffffffffffffffff81111561354e578182fd5b61355a858286016134ac565b90969095509350505050565b60006020808385031215613578578182fd5b825167ffffffffffffffff8082111561358f578384fd5b818501915085601f8301126135a2578384fd5b8151818111156135b0578485fd5b83810291506135c0848301613ef3565b8181528481019084860184860187018a10156135da578788fd5b8795505b83861015613604576135f08a826134a1565b8352600195909501949186019186016135de565b5098975050505050505050565b600060208284031215613622578081fd5b8151801515811461319a578182fd5b600080600080600060a08688031215613648578081fd5b853561365381613f1a565b9450602086013561366381613f1a565b94979496505050506040830135926060810135926080909101359150565b60008060408385031215613693578182fd5b823561369e81613f1a565b946020939093013593505050565b600080600080600080600060c0888a0312156136c6578182fd5b87356136d181613f1a565b965060208801359550604088013567ffffffffffffffff8111156136f3578283fd5b6136ff8a828b016134ac565b989b979a50986060810135976080820135975060a09091013595509350505050565b600080600060608486031215613735578283fd5b833561374081613f1a565b9250602084013561375081613f1a565b9150604084013561376081613f1a565b809150509250925092565b60008060008060808587031215613780578384fd5b843561378b81613f1a565b9350602085013561379b81613f1a565b925060408501356137ab81613f1a565b9396929550929360600135925050565b600080600080600060a086880312156137d2578283fd5b85356137dd81613f1a565b945060208601356137ed81613f1a565b935060408601356137fd81613f1a565b94979396509394606081013594506080013592915050565b60008060008060006080868803121561382c578283fd5b853561383781613f1a565b9450602086013561384781613f1a565b935060408601359250606086013567ffffffffffffffff811115613869578182fd5b613875888289016134ac565b969995985093965092949392505050565b6000806000806080858703121561389b578182fd5b84356138a681613f1a565b935060208501356138b681613f1a565b93969395505050506040820135916060013590565b6000602082840312156138dc578081fd5b5051919050565b6000815180845260208085019450808401835b83811015613912578151875295820195908201906001016138f6565b509495945050505050565b6001600160a01b0391909116815260200190565b6001600160a01b039384168152919092166020820152604081019190915260600190565b6001600160a01b03929092168252602082015260400190565b6001600160a01b0392831681529116602082015260400190565b6001600160a01b039390931683526020830191909152604082015260600190565b60006020825261319a60208301846138e3565b60208082526013908201527211549497d393d7d513d2d15397d0d3d3535255606a1b604082015260600190565b6020808252601e908201527f4552525f4752414455414c5f5550444154455f54494d455f54524156454c0000604082015260600190565b6020808252818101527f4552525f5745494748545f4348414e47455f54494d455f42454c4f575f4d494e604082015260600190565b6020808252601a908201527f4552525f53544152545f574549474854535f4d49534d41544348000000000000604082015260600190565b6020808252600c908201526b11549497d254d7d093d5539160a21b604082015260600190565b60208082526010908201526f4552525f4d41585f494e5f524154494f60801b604082015260600190565b6020808252600f908201526e08aa4a4be9a82a890be82a0a0a49eb608b1b604082015260600190565b6020808252600e908201526d11549497d3505617d5d15251d21560921b604082015260600190565b60208082526014908201527311549497d3505617d513d5105317d5d15251d21560621b604082015260600190565b60208082526014908201527308aa4a4be829a9eaa9ca8a6be9a92a69a82a886960631b604082015260600190565b6020808252600d908201526c11549497d31253525517d3d555609a1b604082015260600190565b6020808252600f908201526e4552525f4d494e5f42414c414e434560881b604082015260600190565b60208082526011908201527011549497d0d0539517d413d2d157d65155607a1b604082015260600190565b60208082526010908201526f11549497d1125597d25395115493905360821b604082015260600190565b6020808252600c908201526b22a9292fa624a6a4aa2fa4a760a11b604082015260600190565b60208082526014908201527322a9292faba2a4a3a42a2fa122a627abafa6a4a760611b604082015260600190565b6020808252601190820152704552525f4d41585f4f55545f524154494f60781b604082015260600190565b6020808252600d908201526c11549497d393d517d093d55391609a1b604082015260600190565b6020808252600e908201526d11549497d3525397d5d15251d21560921b604082015260600190565b60208082526014908201527308aa4a4beae8a928e90a8be82849eac8abe9a82b60631b604082015260600190565b6020808252601b908201527f4552525f54494d454c4f434b5f5354494c4c5f434f554e54494e470000000000604082015260600190565b60208082526010908201526f4552525f4d554c5f4f564552464c4f5760801b604082015260600190565b60208082526017908201527f4552525f4e4f4e434f4e464f524d494e475f544f4b454e000000000000000000604082015260600190565b6020808252600c908201526b4552525f4449565f5a45524f60a01b604082015260600190565b60208082526015908201527422a9292fa120a620a721a2afa122a627abafa6a4a760591b604082015260600190565b6020808252600f908201526e4552525f45524332305f46414c534560881b604082015260600190565b6020808252601190820152704552525f5355425f554e444552464c4f5760781b604082015260600190565b60208082526010908201526f4552525f4144445f4f564552464c4f5760801b604082015260600190565b90815260200190565b918252602082015260400190565b60008482528360208301526060604083015261117760608301846138e3565b958652602086019490945260408501929092526060840152608083015260a082015260c00190565b60405181810167ffffffffffffffff81118282101715613f1257600080fd5b604052919050565b6001600160a01b0381168114610a4f57600080fdfea2646970667358221220778affdf9cfa922a1096118921a8977b10c8667312d12e3cf2e5f6a53189b62c64736f6c634300060c0033",
  "devdoc": {
    "author": "Balancer Labs",
    "kind": "dev",
    "methods": {
      "applyAddToken(IConfigurableRightsPool,IBPool,uint256,SmartPoolManager.NewTokenParams storage)": {
        "params": {
          "addTokenTimeLockInBlocks": "-  Wait time between committing and applying a new token",
          "bPool": "- Core BPool the CRP is wrapping",
          "newToken": "- NewTokenParams struct used to hold the token data (in CRP storage)",
          "self": "- ConfigurableRightsPool instance calling the library"
        }
      },
      "commitAddToken(IBPool,address,uint256,uint256,SmartPoolManager.NewTokenParams storage)": {
        "params": {
          "bPool": "- Core BPool the CRP is wrapping",
          "balance": "- how much to be added",
          "denormalizedWeight": "- the desired token weight",
          "newToken": "- NewTokenParams struct used to hold the token data (in CRP storage)",
          "token": "- the token to be added"
        }
      },
      "exitPool(IConfigurableRightsPool,IBPool,uint256,uint256[])": {
        "params": {
          "bPool": "- Core BPool the CRP is wrapping",
          "minAmountsOut": "- minimum amount of asset tokens to receive",
          "poolAmountIn": "- amount of pool tokens to redeem",
          "self": "- ConfigurableRightsPool instance calling the library"
        },
        "returns": {
          "actualAmountsOut": "- calculated amounts of each token to pull",
          "exitFee": "- calculated exit fee",
          "pAiAfterExitFee": "- final amount in (after accounting for exit fee)"
        }
      },
      "exitswapExternAmountOut(IConfigurableRightsPool,IBPool,address,uint256,uint256)": {
        "params": {
          "bPool": "- Core BPool the CRP is wrapping",
          "maxPoolAmountIn": "- maximum pool tokens to be redeemed",
          "self": "- ConfigurableRightsPool instance calling the library",
          "tokenAmountOut": "- amount of underlying asset tokens to receive",
          "tokenOut": "- which token the caller wants to receive"
        },
        "returns": {
          "exitFee": "- calculated exit fee",
          "poolAmountIn": "- amount of pool tokens redeemed"
        }
      },
      "exitswapPoolAmountIn(IConfigurableRightsPool,IBPool,address,uint256,uint256)": {
        "params": {
          "bPool": "- Core BPool the CRP is wrapping",
          "minAmountOut": "- minimum asset tokens to receive",
          "poolAmountIn": "- amount of pool tokens to redeem",
          "self": "- ConfigurableRightsPool instance calling the library",
          "tokenOut": "- which token the caller wants to receive"
        },
        "returns": {
          "exitFee": "- calculated exit fee",
          "tokenAmountOut": "- amount of asset tokens returned"
        }
      },
      "joinPool(IConfigurableRightsPool,IBPool,uint256,uint256[])": {
        "params": {
          "bPool": "- Core BPool the CRP is wrapping",
          "maxAmountsIn": "- Max amount of asset tokens to spend",
          "poolAmountOut": "- number of pool tokens to receive",
          "self": "- ConfigurableRightsPool instance calling the library"
        },
        "returns": {
          "actualAmountsIn": "- calculated values of the tokens to pull in"
        }
      },
      "joinswapExternAmountIn(IConfigurableRightsPool,IBPool,address,uint256,uint256)": {
        "params": {
          "bPool": "- Core BPool the CRP is wrapping",
          "minPoolAmountOut": "- minimum of pool tokens to receive",
          "self": "- ConfigurableRightsPool instance calling the library",
          "tokenAmountIn": "- amount of deposit",
          "tokenIn": "- which token we're transferring in"
        },
        "returns": {
          "poolAmountOut": "- amount of pool tokens minted and transferred"
        }
      },
      "joinswapPoolAmountOut(IConfigurableRightsPool,IBPool,address,uint256,uint256)": {
        "params": {
          "bPool": "- Core BPool the CRP is wrapping",
          "maxAmountIn": "- Maximum asset tokens that can be pulled to pay for the pool tokens",
          "poolAmountOut": "- amount of pool tokens to be received",
          "self": "- ConfigurableRightsPool instance calling the library",
          "tokenIn": "- which token we're transferring in (system calculates amount required)"
        },
        "returns": {
          "tokenAmountIn": "- amount of asset tokens transferred in to purchase the pool tokens"
        }
      },
      "pokeWeights(IBPool,SmartPoolManager.GradualUpdateParams storage)": {
        "params": {
          "bPool": "- Core BPool the CRP is wrapping",
          "gradualUpdate": "- gradual update parameters from the CRP"
        }
      },
      "removeToken(IConfigurableRightsPool,IBPool,address)": {
        "details": "Logic in the CRP controls when ths can be called. There are two related permissions:      AddRemoveTokens - which allows removing down to the underlying BPool limit of two      RemoveAllTokens - which allows completely draining the pool by removing all tokens                        This can result in a non-viable pool with 0 or 1 tokens (by design),                        meaning all swapping or binding operations would fail in this state",
        "params": {
          "bPool": "- Core BPool the CRP is wrapping",
          "self": "- ConfigurableRightsPool instance calling the library",
          "token": "- token to remove"
        }
      },
      "updateWeight(IConfigurableRightsPool,IBPool,address,uint256)": {
        "details": "Refactored to library to make CRPFactory deployable",
        "params": {
          "bPool": "- Core BPool the CRP is wrapping",
          "newWeight": "- new weight of the token",
          "self": "- ConfigurableRightsPool instance calling the library",
          "token": "- token to be reweighted"
        }
      },
      "updateWeightsGradually(IBPool,SmartPoolManager.GradualUpdateParams storage,uint256[],uint256,uint256,uint256)": {
        "params": {
          "bPool": "- Core BPool the CRP is wrapping",
          "endBlock": "- when weights will be at their final values",
          "minimumWeightChangeBlockPeriod": "- needed to validate the block period",
          "newWeights": "- final weights we want to get to",
          "startBlock": "- when weights should start to change"
        }
      },
      "verifyTokenCompliance(address)": {
        "details": "Will revert if invalid",
        "params": {
          "token": "- The prospective token to verify"
        }
      },
      "verifyTokenCompliance(address[])": {
        "details": "Will revert if invalid - overloaded to save space in the main contract",
        "params": {
          "tokens": "- The prospective tokens to verify"
        }
      }
    },
    "title": "Factor out the weight updates",
    "version": 1
  },
  "userdoc": {
    "kind": "user",
    "methods": {
      "applyAddToken(IConfigurableRightsPool,IBPool,uint256,SmartPoolManager.NewTokenParams storage)": {
        "notice": "Add the token previously committed (in commitAddToken) to the pool"
      },
      "commitAddToken(IBPool,address,uint256,uint256,SmartPoolManager.NewTokenParams storage)": {
        "notice": "Schedule (commit) a token to be added; must call applyAddToken after a fixed         number of blocks to actually add the token"
      },
      "exitPool(IConfigurableRightsPool,IBPool,uint256,uint256[])": {
        "notice": "Exit a pool - redeem pool tokens for underlying assets"
      },
      "exitswapExternAmountOut(IConfigurableRightsPool,IBPool,address,uint256,uint256)": {
        "notice": "Exit a pool - redeem pool tokens for a specific amount of underlying assets         Asset must be present in the pool"
      },
      "exitswapPoolAmountIn(IConfigurableRightsPool,IBPool,address,uint256,uint256)": {
        "notice": "Exit a pool - redeem a specific number of pool tokens for an underlying asset         Asset must be present in the pool, and will incur an EXIT_FEE (if set to non-zero)"
      },
      "joinPool(IConfigurableRightsPool,IBPool,uint256,uint256[])": {
        "notice": "Join a pool"
      },
      "joinswapExternAmountIn(IConfigurableRightsPool,IBPool,address,uint256,uint256)": {
        "notice": "Join by swapping a fixed amount of an external token in (must be present in the pool)         System calculates the pool token amount"
      },
      "joinswapPoolAmountOut(IConfigurableRightsPool,IBPool,address,uint256,uint256)": {
        "notice": "Join by swapping an external token in (must be present in the pool)         To receive an exact amount of pool tokens out. System calculates the deposit amount"
      },
      "pokeWeights(IBPool,SmartPoolManager.GradualUpdateParams storage)": {
        "notice": "External function called to make the contract update weights according to plan"
      },
      "removeToken(IConfigurableRightsPool,IBPool,address)": {
        "notice": "Remove a token from the pool"
      },
      "updateWeight(IConfigurableRightsPool,IBPool,address,uint256)": {
        "notice": "Update the weight of an existing token"
      },
      "updateWeightsGradually(IBPool,SmartPoolManager.GradualUpdateParams storage,uint256[],uint256,uint256,uint256)": {
        "notice": "Update weights in a predetermined way, between startBlock and endBlock,         through external cals to pokeWeights"
      },
      "verifyTokenCompliance(address)": {
        "notice": "Non ERC20-conforming tokens are problematic; don't allow them in pools"
      },
      "verifyTokenCompliance(address[])": {
        "notice": "Non ERC20-conforming tokens are problematic; don't allow them in pools"
      }
    },
    "version": 1
  },
  "storageLayout": {
    "storage": [],
    "types": null
  }
}